{"contracts/cygnus-oracle/CygnusNebulaOracle.sol":{"CygnusNebulaOracle":{"abi":[{"inputs":[{"internalType":"contract IERC20","name":"denomination","type":"address"},{"internalType":"contract AggregatorV3Interface","name":"denominationPrice","type":"address"}],"stateMutability":"nonpayable","type":"constructor"},{"inputs":[{"internalType":"address","name":"pendingAdmin","type":"address"}],"name":"CygnusNebulaOracle__AdminCantBeZero","type":"error"},{"inputs":[{"internalType":"address","name":"msgSender","type":"address"}],"name":"CygnusNebulaOracle__MsgSenderNotAdmin","type":"error"},{"inputs":[{"internalType":"contract IDexPair","name":"lpTokenPair","type":"address"}],"name":"CygnusNebulaOracle__NebulaRecordAlreadyInitialized","type":"error"},{"inputs":[{"internalType":"contract IDexPair","name":"lpTokenPair","type":"address"}],"name":"CygnusNebulaOracle__NebulaRecordNotInitialized","type":"error"},{"inputs":[{"internalType":"address","name":"lpTokenPair","type":"address"}],"name":"CygnusNebulaOracle__PairAlreadyInitialized","type":"error"},{"inputs":[{"internalType":"address","name":"lpTokenPair","type":"address"}],"name":"CygnusNebulaOracle__PairNotInitialized","type":"error"},{"inputs":[{"internalType":"address","name":"pendingAdmin","type":"address"}],"name":"CygnusNebulaOracle__PendingAdminAlreadySet","type":"error"},{"inputs":[{"internalType":"contract IERC20","name":"token","type":"address"},{"internalType":"uint256","name":"decimals","type":"uint256"}],"name":"IERC20Normalizer__TokenDecimalsGreaterThan18","type":"error"},{"inputs":[{"internalType":"contract IERC20","name":"token","type":"address"}],"name":"IERC20Normalizer__TokenDecimalsZero","type":"error"},{"inputs":[{"internalType":"uint256","name":"x","type":"uint256"}],"name":"PRBMathUD60x18__Exp2InputTooBig","type":"error"},{"inputs":[{"internalType":"uint256","name":"x","type":"uint256"}],"name":"PRBMathUD60x18__ExpInputTooBig","type":"error"},{"inputs":[{"internalType":"uint256","name":"x","type":"uint256"}],"name":"PRBMathUD60x18__LogInputTooSmall","type":"error"},{"inputs":[{"internalType":"uint256","name":"prod1","type":"uint256"},{"internalType":"uint256","name":"denominator","type":"uint256"}],"name":"PRBMath__MulDivOverflow","type":"error"},{"inputs":[],"name":"ReentrantCall","type":"error"},{"anonymous":false,"inputs":[{"indexed":false,"internalType":"bool","name":"initialized","type":"bool"},{"indexed":false,"internalType":"uint88","name":"oracleId","type":"uint88"},{"indexed":false,"internalType":"address","name":"lpTokenPair","type":"address"},{"indexed":false,"internalType":"contract AggregatorV3Interface","name":"priceFeedA","type":"address"},{"indexed":false,"internalType":"contract AggregatorV3Interface","name":"priceFeedB","type":"address"}],"name":"InitializeCygnusNebula","type":"event"},{"anonymous":false,"inputs":[{"indexed":false,"internalType":"address","name":"oracleOldAdmin","type":"address"},{"indexed":false,"internalType":"address","name":"oracleNewAdmin","type":"address"}],"name":"NewOracleAdmin","type":"event"},{"anonymous":false,"inputs":[{"indexed":false,"internalType":"address","name":"oracleCurrentAdmin","type":"address"},{"indexed":false,"internalType":"address","name":"oraclePendingAdmin","type":"address"}],"name":"NewOraclePendingAdmin","type":"event"},{"inputs":[],"name":"SECONDS_PER_YEAR","outputs":[{"internalType":"uint256","name":"","type":"uint256"}],"stateMutability":"view","type":"function"},{"inputs":[],"name":"admin","outputs":[{"internalType":"address","name":"","type":"address"}],"stateMutability":"view","type":"function"},{"inputs":[{"internalType":"uint256","name":"","type":"uint256"}],"name":"allNebulas","outputs":[{"internalType":"address","name":"","type":"address"}],"stateMutability":"view","type":"function"},{"inputs":[{"internalType":"address","name":"lpTokenPair","type":"address"}],"name":"assetPricesUsd","outputs":[{"internalType":"uint256","name":"tokenPriceA","type":"uint256"},{"internalType":"uint256","name":"tokenPriceB","type":"uint256"}],"stateMutability":"view","type":"function"},{"inputs":[],"name":"decimals","outputs":[{"internalType":"uint8","name":"","type":"uint8"}],"stateMutability":"view","type":"function"},{"inputs":[],"name":"denominationAggregator","outputs":[{"internalType":"contract AggregatorV3Interface","name":"","type":"address"}],"stateMutability":"view","type":"function"},{"inputs":[],"name":"denominationPriceUsd","outputs":[{"internalType":"uint256","name":"","type":"uint256"}],"stateMutability":"view","type":"function"},{"inputs":[],"name":"denominationToken","outputs":[{"internalType":"contract IERC20","name":"","type":"address"}],"stateMutability":"view","type":"function"},{"inputs":[{"internalType":"uint256","name":"exchangeRateLast","type":"uint256"},{"internalType":"uint256","name":"exchangeRateNow","type":"uint256"},{"internalType":"uint256","name":"timeElapsed","type":"uint256"}],"name":"getAnnualizedLogApr","outputs":[{"internalType":"uint256","name":"","type":"uint256"}],"stateMutability":"pure","type":"function"},{"inputs":[{"internalType":"address","name":"lpTokenPair","type":"address"}],"name":"getBasePosition","outputs":[{"internalType":"uint256","name":"liquidity","type":"uint256"},{"internalType":"uint256","name":"total0","type":"uint256"},{"internalType":"uint256","name":"total1","type":"uint256"}],"stateMutability":"view","type":"function"},{"inputs":[{"internalType":"address","name":"lpTokenPair","type":"address"}],"name":"getLimitPosition","outputs":[{"internalType":"uint256","name":"liquidity","type":"uint256"},{"internalType":"uint256","name":"total0","type":"uint256"},{"internalType":"uint256","name":"total1","type":"uint256"}],"stateMutability":"view","type":"function"},{"inputs":[{"internalType":"address","name":"","type":"address"}],"name":"getNebula","outputs":[{"internalType":"bool","name":"initialized","type":"bool"},{"internalType":"uint88","name":"oracleId","type":"uint88"},{"internalType":"address","name":"underlying","type":"address"},{"internalType":"address","name":"algebraPool","type":"address"},{"internalType":"contract IERC20","name":"token0","type":"address"},{"internalType":"contract IERC20","name":"token1","type":"address"},{"internalType":"uint256","name":"token0Decimals","type":"uint256"},{"internalType":"uint256","name":"token1Decimals","type":"uint256"},{"internalType":"contract AggregatorV3Interface","name":"priceFeedA","type":"address"},{"internalType":"contract AggregatorV3Interface","name":"priceFeedB","type":"address"}],"stateMutability":"view","type":"function"},{"inputs":[{"internalType":"address","name":"lpTokenPair","type":"address"}],"name":"getTotalAmounts","outputs":[{"internalType":"uint256","name":"total0","type":"uint256"},{"internalType":"uint256","name":"total1","type":"uint256"}],"stateMutability":"view","type":"function"},{"inputs":[{"internalType":"address","name":"lpTokenPair","type":"address"},{"internalType":"contract AggregatorV3Interface","name":"aggregatorA","type":"address"},{"internalType":"contract AggregatorV3Interface","name":"aggregatorB","type":"address"}],"name":"initializeNebula","outputs":[],"stateMutability":"nonpayable","type":"function"},{"inputs":[{"internalType":"address","name":"lpTokenPair","type":"address"}],"name":"lpTokenPriceUsd","outputs":[{"internalType":"uint256","name":"lpTokenPrice","type":"uint256"}],"stateMutability":"view","type":"function"},{"inputs":[],"name":"name","outputs":[{"internalType":"string","name":"","type":"string"}],"stateMutability":"view","type":"function"},{"inputs":[],"name":"nebulaSize","outputs":[{"internalType":"uint24","name":"","type":"uint24"}],"stateMutability":"view","type":"function"},{"inputs":[],"name":"pendingAdmin","outputs":[{"internalType":"address","name":"","type":"address"}],"stateMutability":"view","type":"function"},{"inputs":[],"name":"setOracleAdmin","outputs":[],"stateMutability":"nonpayable","type":"function"},{"inputs":[{"internalType":"address","name":"newPendingAdmin","type":"address"}],"name":"setOraclePendingAdmin","outputs":[],"stateMutability":"nonpayable","type":"function"},{"inputs":[],"name":"symbol","outputs":[{"internalType":"string","name":"","type":"string"}],"stateMutability":"view","type":"function"},{"inputs":[],"name":"version","outputs":[{"internalType":"string","name":"","type":"string"}],"stateMutability":"view","type":"function"}],"evm":{"bytecode":{"linkReferences":{},"object":"60e06040523480156200001157600080fd5b506040516200457838038062004578833981016040819052620000349162000244565b6000805460ff19166001179055620000493390565b600480546001600160a01b0319166001600160a01b03928316178155606084901b6001600160601b0319166080526040805163313ce56760e01b815290519285169263313ce56792828101926020929190829003018186803b158015620000af57600080fd5b505afa158015620000c4573d6000803e3d6000fd5b505050506040513d601f19601f82011682018060405250810190620000ea919062000282565b60f81b7fff000000000000000000000000000000000000000000000000000000000000001660a052606081901b6001600160601b03191660c0526200012f8162000138565b505050620002c5565b600080826001600160a01b031663313ce5676040518163ffffffff1660e01b815260040160206040518083038186803b1580156200017557600080fd5b505afa1580156200018a573d6000803e3d6000fd5b505050506040513d601f19601f82011682018060405250810190620001b0919062000282565b60ff16905080620001e45760405163fe3c012960e01b81526001600160a01b03841660048201526024015b60405180910390fd5b60128111156200021a576040516396434c7f60e01b81526001600160a01b038416600482015260248101829052604401620001db565b6001600160a01b039092166000908152600160205260409020601292909203600a0a918290555090565b6000806040838503121562000257578182fd5b82516200026481620002ac565b60208401519092506200027781620002ac565b809150509250929050565b60006020828403121562000294578081fd5b815160ff81168114620002a5578182fd5b9392505050565b6001600160a01b0381168114620002c257600080fd5b50565b60805160601c60a05160f81c60c05160601c614242620003366000396000818161035a015281816108bf0152818161096801528181610c4601528181610cef0152611c6201526000818161026c0152818161099401528181610d1b0152610d670152600061052701526142426000f3fe608060405234801561001057600080fd5b50600436106101825760003560e01c80636fcd22b9116100d8578063ba3941e71161008c578063f0ac40c411610066578063f0ac40c414610413578063f6b9fdfb14610522578063f851a4401461054957600080fd5b8063ba3941e7146103de578063d02c70e8146103f5578063e6a69ab81461040857600080fd5b80638fd1c213116100bd5780638fd1c2131461037c57806395d89b411461038f578063a39443f7146103cb57600080fd5b80636fcd22b91461034d5780638eb6f8f01461035557600080fd5b806351fcba9d1161013a57806362bbb6e01161011457806362bbb6e01461031f57806365c9b257146103275780636e9384061461033a57600080fd5b806351fcba9d146102a057806354fd4d50146102b55780635b22d050146102f157600080fd5b8063193d1da91161016b578063193d1da9146101fa5780632678224714610222578063313ce5671461026757600080fd5b806306fdde031461018757806317e5a1a1146101d9575b600080fd5b6101c36040518060400160405280601e81526020017f4379676e75732d4e6562756c613a2047616d6d61204c50204f7261636c65000081525081565b6040516101d09190613e80565b60405180910390f35b6101ec6101e7366004613ca2565b610569565b6040519081526020016101d0565b61020d610208366004613ca2565b6109ee565b604080519283526020830191909152016101d0565b6005546102429073ffffffffffffffffffffffffffffffffffffffff1681565b60405173ffffffffffffffffffffffffffffffffffffffff90911681526020016101d0565b61028e7f000000000000000000000000000000000000000000000000000000000000000081565b60405160ff90911681526020016101d0565b6102b36102ae366004613cda565b610dba565b005b6101c36040518060400160405280600581526020017f312e302e3000000000000000000000000000000000000000000000000000000081525081565b6103046102ff366004613ca2565b611460565b604080519384526020840192909252908201526060016101d0565b6102b36116ea565b6102b3610335366004613ca2565b61187e565b61020d610348366004613ca2565b6119d8565b6101ec611c5d565b6102427f000000000000000000000000000000000000000000000000000000000000000081565b6101ec61038a366004613de5565b611d09565b6101c36040518060400160405280600981526020017f4379674e6562756c61000000000000000000000000000000000000000000000081525081565b6103046103d9366004613ca2565b611d7c565b60035460405162ffffff90911681526020016101d0565b610242610403366004613db5565b611ff3565b6101ec6301e1338081565b6104ac610421366004613ca2565b60026020819052600091825260409091208054600182015492820154600383015460048401546005850154600686015460079096015460ff8616976affffffffffffffffffffff6101008804169773ffffffffffffffffffffffffffffffffffffffff6c0100000000000000000000000090980488169791821696821695821694939290821691168a565b604080519a15158b526affffffffffffffffffffff90991660208b015273ffffffffffffffffffffffffffffffffffffffff978816988a01989098529486166060890152928516608088015290841660a087015260c086015260e0850152811661010084015216610120820152610140016101d0565b6102427f000000000000000000000000000000000000000000000000000000000000000081565b6004546102429073ffffffffffffffffffffffffffffffffffffffff1681565b73ffffffffffffffffffffffffffffffffffffffff8181166000908152600260208181526040808420815161014081018352815460ff811615158083526101008083046affffffffffffffffffffff16968401969096526c0100000000000000000000000090910488169382019390935260018201548716606082015293810154861660808501526003810154861660a0850152600481015460c0850152600581015460e085015260068101548616928401929092526007909101549093166101208201529091610683576040517ffb642b4d00000000000000000000000000000000000000000000000000000000815273ffffffffffffffffffffffffffffffffffffffff841660048201526024015b60405180910390fd5b600081610100015173ffffffffffffffffffffffffffffffffffffffff1663feaf968c6040518163ffffffff1660e01b815260040160a06040518083038186803b1580156106d057600080fd5b505afa1580156106e4573d6000803e3d6000fd5b505050506040513d601f19601f820116820180604052508101906107089190613e10565b505050915050600082610120015173ffffffffffffffffffffffffffffffffffffffff1663feaf968c6040518163ffffffff1660e01b815260040160a06040518083038186803b15801561075b57600080fd5b505afa15801561076f573d6000803e3d6000fd5b505050506040513d601f19601f820116820180604052508101906107939190613e10565b50505091505060006107aa8461010001518461202a565b905060006107bd8561012001518461202a565b905060006107d5838760c00151848960e00151612071565b90506000806107e488846120d3565b9150915060006107f889608001518461202a565b9050600061080a8a60a001518461202a565b905060008c73ffffffffffffffffffffffffffffffffffffffff166318160ddd6040518163ffffffff1660e01b815260040160206040518083038186803b15801561085457600080fd5b505afa158015610868573d6000803e3d6000fd5b505050506040513d601f19601f8201168201806040525081019061088c9190613dcd565b905060008161089b8985614056565b6108a58b87614056565b6108af9190613ef1565b6108b99190613f09565b905060007f000000000000000000000000000000000000000000000000000000000000000073ffffffffffffffffffffffffffffffffffffffff1663feaf968c6040518163ffffffff1660e01b815260040160a06040518083038186803b15801561092357600080fd5b505afa158015610937573d6000803e3d6000fd5b505050506040513d601f19601f8201168201806040525081019061095b9190613e10565b505050915050600061098d7f00000000000000000000000000000000000000000000000000000000000000008361202a565b90506109ba7f000000000000000000000000000000000000000000000000000000000000000060126140df565b6109c590600a613f8a565b6109cf848361228f565b6109d99190613f09565b9e505050505050505050505050505050919050565b73ffffffffffffffffffffffffffffffffffffffff8181166000908152600260208181526040808420815161014081018352815460ff811615158083526101008083046affffffffffffffffffffff16968401969096526c0100000000000000000000000090910488169382019390935260018201548716606082015293810154861660808501526003810154861660a0850152600481015460c0850152600581015460e085015260068101548616928401929092526007909101549093166101208201529091829190610b06576040517ffb642b4d00000000000000000000000000000000000000000000000000000000815273ffffffffffffffffffffffffffffffffffffffff8516600482015260240161067a565b600081610100015173ffffffffffffffffffffffffffffffffffffffff1663feaf968c6040518163ffffffff1660e01b815260040160a06040518083038186803b158015610b5357600080fd5b505afa158015610b67573d6000803e3d6000fd5b505050506040513d601f19601f82011682018060405250810190610b8b9190613e10565b505050915050600082610120015173ffffffffffffffffffffffffffffffffffffffff1663feaf968c6040518163ffffffff1660e01b815260040160a06040518083038186803b158015610bde57600080fd5b505afa158015610bf2573d6000803e3d6000fd5b505050506040513d601f19601f82011682018060405250810190610c169190613e10565b5050509150506000610c2d8461010001518461202a565b90506000610c408561012001518461202a565b905060007f000000000000000000000000000000000000000000000000000000000000000073ffffffffffffffffffffffffffffffffffffffff1663feaf968c6040518163ffffffff1660e01b815260040160a06040518083038186803b158015610caa57600080fd5b505afa158015610cbe573d6000803e3d6000fd5b505050506040513d601f19601f82011682018060405250810190610ce29190613e10565b5050509150506000610d147f00000000000000000000000000000000000000000000000000000000000000008361202a565b9050610d417f000000000000000000000000000000000000000000000000000000000000000060126140df565b610d4c90600a613f8a565b610d56858361228f565b610d609190613f09565b9850610d8d7f000000000000000000000000000000000000000000000000000000000000000060126140df565b610d9890600a613f8a565b610da2848361228f565b610dac9190613f09565b975050505050505050915091565b60005460ff16610df6576040517f37ed32e800000000000000000000000000000000000000000000000000000000815260040160405180910390fd5b600080547fffffffffffffffffffffffffffffffffffffffffffffffffffffffffffffff00169055610e266122a4565b73ffffffffffffffffffffffffffffffffffffffff83166000908152600260205260409020805460ff1615610e9f576040517f48a979dc00000000000000000000000000000000000000000000000000000000815273ffffffffffffffffffffffffffffffffffffffff8516600482015260240161067a565b600354815460ff1662ffffff91909116610100026bffffffffffffffffffffffff16176c0100000000000000000000000073ffffffffffffffffffffffffffffffffffffffff8616908102919091178255604080517f16f0115b00000000000000000000000000000000000000000000000000000000815290516316f0115b91600480820192602092909190829003018186803b158015610f3f57600080fd5b505afa158015610f53573d6000803e3d6000fd5b505050506040513d601f19601f82011682018060405250810190610f779190613cbe565b8160010160006101000a81548173ffffffffffffffffffffffffffffffffffffffff021916908373ffffffffffffffffffffffffffffffffffffffff1602179055508373ffffffffffffffffffffffffffffffffffffffff16630dfe16816040518163ffffffff1660e01b815260040160206040518083038186803b158015610fff57600080fd5b505afa158015611013573d6000803e3d6000fd5b505050506040513d601f19601f820116820180604052508101906110379190613cbe565b8160020160006101000a81548173ffffffffffffffffffffffffffffffffffffffff021916908373ffffffffffffffffffffffffffffffffffffffff1602179055508373ffffffffffffffffffffffffffffffffffffffff1663d21220a76040518163ffffffff1660e01b815260040160206040518083038186803b1580156110bf57600080fd5b505afa1580156110d3573d6000803e3d6000fd5b505050506040513d601f19601f820116820180604052508101906110f79190613cbe565b6003820180547fffffffffffffffffffffffff00000000000000000000000000000000000000001673ffffffffffffffffffffffffffffffffffffffff9283161790556002820154611149911661230f565b50600381015461116e9073ffffffffffffffffffffffffffffffffffffffff1661230f565b508060020160009054906101000a900473ffffffffffffffffffffffffffffffffffffffff1673ffffffffffffffffffffffffffffffffffffffff1663313ce5676040518163ffffffff1660e01b815260040160206040518083038186803b1580156111d957600080fd5b505afa1580156111ed573d6000803e3d6000fd5b505050506040513d601f19601f820116820180604052508101906112119190613e5f565b60ff166004808301919091556003820154604080517f313ce567000000000000000000000000000000000000000000000000000000008152905173ffffffffffffffffffffffffffffffffffffffff9092169263313ce567928282019260209290829003018186803b15801561128657600080fd5b505afa15801561129a573d6000803e3d6000fd5b505050506040513d601f19601f820116820180604052508101906112be9190613e5f565b60ff16600582015560068101805473ffffffffffffffffffffffffffffffffffffffff8086167fffffffffffffffffffffffff000000000000000000000000000000000000000092831617909255600783018054928516929091169190911790556113288361230f565b506113328261230f565b5060038054600180820183556000929092527fc2575a0e9e593c00f959f8c92f12db2869c3395a3b0502d05e2516446f71f85b0180547fffffffffffffffffffffffff00000000000000000000000000000000000000001673ffffffffffffffffffffffffffffffffffffffff87811691821790925583547fffffffffffffffffffffffffffffffffffffffffffffffffffffffffffffff00168317808555604080519485526101009091046affffffffffffffffffffff1660208501528301528481166060830152831660808201527fa9c1a243c663bea93d8b6c5d7850083fd601a6719a17f6e8eb16e89860e258559060a00160405180910390a15050600080547fffffffffffffffffffffffffffffffffffffffffffffffffffffffffffffff001660011790555050565b73ffffffffffffffffffffffffffffffffffffffff8181166000908152600260208181526040808420815161014081018352815460ff811615158083526101008083046affffffffffffffffffffff16968401969096526c0100000000000000000000000090910488169382019390935260018201548716606082015293810154861660808501526003810154861660a0850152600481015460c0850152600581015460e08501526006810154861692840192909252600790910154909316610120820152909182918291611579576040517ffb642b4d00000000000000000000000000000000000000000000000000000000815273ffffffffffffffffffffffffffffffffffffffff8616600482015260240161067a565b600081610100015173ffffffffffffffffffffffffffffffffffffffff1663feaf968c6040518163ffffffff1660e01b815260040160a06040518083038186803b1580156115c657600080fd5b505afa1580156115da573d6000803e3d6000fd5b505050506040513d601f19601f820116820180604052508101906115fe9190613e10565b505050915050600082610120015173ffffffffffffffffffffffffffffffffffffffff1663feaf968c6040518163ffffffff1660e01b815260040160a06040518083038186803b15801561165157600080fd5b505afa158015611665573d6000803e3d6000fd5b505050506040513d601f19601f820116820180604052508101906116899190613e10565b50505091505060006116a08461010001518461202a565b905060006116b38561012001518461202a565b905060006116cb838760c00151848960e00151612071565b90506116d78682612475565b9850985098505050505050509193909250565b60005460ff16611726576040517f37ed32e800000000000000000000000000000000000000000000000000000000815260040160405180910390fd5b600080547fffffffffffffffffffffffffffffffffffffffffffffffffffffffffffffff001690556117566122a4565b60055473ffffffffffffffffffffffffffffffffffffffff166117c1576005546040517fb964881700000000000000000000000000000000000000000000000000000000815273ffffffffffffffffffffffffffffffffffffffff909116600482015260240161067a565b600480546005805473ffffffffffffffffffffffffffffffffffffffff8082167fffffffffffffffffffffffff0000000000000000000000000000000000000000808616821790965594909116909155604080519190921680825260208201939093527f5d79527e1742e3cb9a668b777100775a1648a5a8adea9c578d164dd2d0908aac91015b60405180910390a150600080547fffffffffffffffffffffffffffffffffffffffffffffffffffffffffffffff00166001179055565b60005460ff166118ba576040517f37ed32e800000000000000000000000000000000000000000000000000000000815260040160405180910390fd5b600080547fffffffffffffffffffffffffffffffffffffffffffffffffffffffffffffff001690556118ea6122a4565b60055473ffffffffffffffffffffffffffffffffffffffff82811691161415611957576040517f3181df5200000000000000000000000000000000000000000000000000000000815273ffffffffffffffffffffffffffffffffffffffff8216600482015260240161067a565b600580547fffffffffffffffffffffffff00000000000000000000000000000000000000001673ffffffffffffffffffffffffffffffffffffffff8381169182179092556004546040805191909316815260208101919091527f0ddc205eecbcb9fd6100d787269a63285115c1e35297b5cd128aa171376b76229101611848565b73ffffffffffffffffffffffffffffffffffffffff8181166000908152600260208181526040808420815161014081018352815460ff811615158083526101008083046affffffffffffffffffffff16968401969096526c0100000000000000000000000090910488169382019390935260018201548716606082015293810154861660808501526003810154861660a0850152600481015460c0850152600581015460e085015260068101548616928401929092526007909101549093166101208201529091829190611af0576040517ffb642b4d00000000000000000000000000000000000000000000000000000000815273ffffffffffffffffffffffffffffffffffffffff8516600482015260240161067a565b600081610100015173ffffffffffffffffffffffffffffffffffffffff1663feaf968c6040518163ffffffff1660e01b815260040160a06040518083038186803b158015611b3d57600080fd5b505afa158015611b51573d6000803e3d6000fd5b505050506040513d601f19601f82011682018060405250810190611b759190613e10565b505050915050600082610120015173ffffffffffffffffffffffffffffffffffffffff1663feaf968c6040518163ffffffff1660e01b815260040160a06040518083038186803b158015611bc857600080fd5b505afa158015611bdc573d6000803e3d6000fd5b505050506040513d601f19601f82011682018060405250810190611c009190613e10565b5050509150506000611c178461010001518461202a565b90506000611c2a8561012001518461202a565b90506000611c42838760c00151848960e00151612071565b9050611c4e86826120d3565b97509750505050505050915091565b6000807f000000000000000000000000000000000000000000000000000000000000000073ffffffffffffffffffffffffffffffffffffffff1663feaf968c6040518163ffffffff1660e01b815260040160a06040518083038186803b158015611cc657600080fd5b505afa158015611cda573d6000803e3d6000fd5b505050506040513d601f19601f82011682018060405250810190611cfe9190613e10565b509195945050505050565b600080611d1585612612565b90506000611d2285612612565b90506000611d3083836140c8565b9050600085611d436301e1338084614056565b611d4d9190613f09565b90506000670de0b6b3a7640000611d638361266b565b611d6d91906140c8565b955050505050505b9392505050565b73ffffffffffffffffffffffffffffffffffffffff8181166000908152600260208181526040808420815161014081018352815460ff811615158083526101008083046affffffffffffffffffffff16968401969096526c0100000000000000000000000090910488169382019390935260018201548716606082015293810154861660808501526003810154861660a0850152600481015460c0850152600581015460e08501526006810154861692840192909252600790910154909316610120820152909182918291611e95576040517ffb642b4d00000000000000000000000000000000000000000000000000000000815273ffffffffffffffffffffffffffffffffffffffff8616600482015260240161067a565b600081610100015173ffffffffffffffffffffffffffffffffffffffff1663feaf968c6040518163ffffffff1660e01b815260040160a06040518083038186803b158015611ee257600080fd5b505afa158015611ef6573d6000803e3d6000fd5b505050506040513d601f19601f82011682018060405250810190611f1a9190613e10565b505050915050600082610120015173ffffffffffffffffffffffffffffffffffffffff1663feaf968c6040518163ffffffff1660e01b815260040160a06040518083038186803b158015611f6d57600080fd5b505afa158015611f81573d6000803e3d6000fd5b505050506040513d601f19601f82011682018060405250810190611fa59190613e10565b5050509150506000611fbc8461010001518461202a565b90506000611fcf8561012001518461202a565b90506000611fe7838760c00151848960e00151612071565b90506116d786826126da565b6003818154811061200357600080fd5b60009182526020909120015473ffffffffffffffffffffffffffffffffffffffff16905081565b73ffffffffffffffffffffffffffffffffffffffff8216600090815260016020526040812054806001141561205f5782612069565b6120698184614056565b949350505050565b600060306120c861208386600a613f7e565b61208d9086614056565b61209885600a613f7e565b6120a29089614056565b6120b9906c01000000000000000000000000614056565b6120c39190613f09565b6127b0565b901b95945050505050565b6000806000806120e38686612475565b92509250506000806120f588886126da565b60808b01516040808d015190517f70a0823100000000000000000000000000000000000000000000000000000000815273ffffffffffffffffffffffffffffffffffffffff918216600482015293965091945085935087929116906370a082319060240160206040518083038186803b15801561217157600080fd5b505afa158015612185573d6000803e3d6000fd5b505050506040513d601f19601f820116820180604052508101906121a99190613dcd565b6121b39190613ef1565b6121bd9190613ef1565b955080838960a0015173ffffffffffffffffffffffffffffffffffffffff166370a082318b604001516040518263ffffffff1660e01b815260040161221e919073ffffffffffffffffffffffffffffffffffffffff91909116815260200190565b60206040518083038186803b15801561223657600080fd5b505afa15801561224a573d6000803e3d6000fd5b505050506040513d601f19601f8201168201806040525081019061226e9190613dcd565b6122789190613ef1565b6122829190613ef1565b9450505050509250929050565b6000611d7583670de0b6b3a764000084612a66565b60045473ffffffffffffffffffffffffffffffffffffffff163373ffffffffffffffffffffffffffffffffffffffff161461230d576040517f97fcc9e200000000000000000000000000000000000000000000000000000000815233600482015260240161067a565b565b6000808273ffffffffffffffffffffffffffffffffffffffff1663313ce5676040518163ffffffff1660e01b815260040160206040518083038186803b15801561235857600080fd5b505afa15801561236c573d6000803e3d6000fd5b505050506040513d601f19601f820116820180604052508101906123909190613e5f565b60ff169050806123e4576040517ffe3c012900000000000000000000000000000000000000000000000000000000815273ffffffffffffffffffffffffffffffffffffffff8416600482015260240161067a565b601281111561243e576040517f96434c7f00000000000000000000000000000000000000000000000000000000815273ffffffffffffffffffffffffffffffffffffffff841660048201526024810182905260440161067a565b73ffffffffffffffffffffffffffffffffffffffff9092166000908152600160205260409020601292909203600a0a918290555090565b600080600080856040015173ffffffffffffffffffffffffffffffffffffffff1663fa0827436040518163ffffffff1660e01b815260040160206040518083038186803b1580156124c557600080fd5b505afa1580156124d9573d6000803e3d6000fd5b505050506040513d601f19601f820116820180604052508101906124fd9190613d24565b90506000866040015173ffffffffffffffffffffffffffffffffffffffff1663888a91346040518163ffffffff1660e01b815260040160206040518083038186803b15801561254b57600080fd5b505afa15801561255f573d6000803e3d6000fd5b505050506040513d601f19601f820116820180604052508101906125839190613d24565b9050600080600061259e8a6040015186868d60600151612b92565b9250925092506125b089868686612c4f565b90975095506125d16fffffffffffffffffffffffffffffffff831688613ef1565b96506125ef6fffffffffffffffffffffffffffffffff821687613ef1565b9550826fffffffffffffffffffffffffffffffff16975050505050509250925092565b60006714057b7ef767814f670de0b6b3a764000061262f84612c7c565b0281612664577f4e487b7100000000000000000000000000000000000000000000000000000000600052601260045260246000fd5b0492915050565b6000680736ea4425c11ac63182106126b2576040517f315da0680000000000000000000000000000000000000000000000000000000081526004810183905260240161067a565b6714057b7ef767814f8202611d75670de0b6b3a76400006706f05b59d3b20000830104612d45565b600080600080856040015173ffffffffffffffffffffffffffffffffffffffff166351e87af76040518163ffffffff1660e01b815260040160206040518083038186803b15801561272a57600080fd5b505afa15801561273e573d6000803e3d6000fd5b505050506040513d601f19601f820116820180604052508101906127629190613d24565b90506000866040015173ffffffffffffffffffffffffffffffffffffffff16630f35bcac6040518163ffffffff1660e01b815260040160206040518083038186803b15801561254b57600080fd5b6000816127bf57506000919050565b5060018170010000000000000000000000000000000081106127e65760409190911b9060801c5b6801000000000000000081106128015760209190911b9060401c5b64010000000081106128185760109190911b9060201c5b62010000811061282d5760089190911b9060101c5b61010081106128415760049190911b9060081c5b601081106128545760029190911b9060041c5b6008811061286457600182901b91505b600182848161289c577f4e487b7100000000000000000000000000000000000000000000000000000000600052601260045260246000fd5b048301901c915060018284816128db577f4e487b7100000000000000000000000000000000000000000000000000000000600052601260045260246000fd5b048301901c9150600182848161291a577f4e487b7100000000000000000000000000000000000000000000000000000000600052601260045260246000fd5b048301901c91506001828481612959577f4e487b7100000000000000000000000000000000000000000000000000000000600052601260045260246000fd5b048301901c91506001828481612998577f4e487b7100000000000000000000000000000000000000000000000000000000600052601260045260246000fd5b048301901c915060018284816129d7577f4e487b7100000000000000000000000000000000000000000000000000000000600052601260045260246000fd5b048301901c91506001828481612a16577f4e487b7100000000000000000000000000000000000000000000000000000000600052601260045260246000fd5b048301901c91506000828481612a55577f4e487b7100000000000000000000000000000000000000000000000000000000600052601260045260246000fd5b04905080831015611d755782612069565b600080807fffffffffffffffffffffffffffffffffffffffffffffffffffffffffffffffff8587098587029250828110838203039150508060001415612ae657838281612adc577f4e487b7100000000000000000000000000000000000000000000000000000000600052601260045260246000fd5b0492505050611d75565b838110612b29576040517f773cc18c000000000000000000000000000000000000000000000000000000008152600481018790526024810186905260440161067a565b60008486880960026001871981018816978890046003810283188082028403028082028403028082028403028082028403028082028403029081029092039091026000889003889004909101858311909403939093029303949094049190911702949350505050565b60008060008062ffffff861662ffffff88168960181b1760181b1790508473ffffffffffffffffffffffffffffffffffffffff1663514ea4bf826040518263ffffffff1660e01b8152600401612bea91815260200190565b60c06040518083038186803b158015612c0257600080fd5b505afa158015612c16573d6000803e3d6000fd5b505050506040513d601f19601f82011682018060405250810190612c3a9190613d45565b949d909c50939a509298505050505050505050565b600080612c6e86612c5f87612da4565b612c6887612da4565b86613236565b915091505b94509492505050565b6000670de0b6b3a7640000821015612cc3576040517fd88504dc0000000000000000000000000000000000000000000000000000000081526004810183905260240161067a565b6000612cd8670de0b6b3a7640000840461331f565b670de0b6b3a7640000808202935090915083821c90811415612cfb575050919050565b6706f05b59d3b200005b8015612d3d57670de0b6b3a7640000828002049150671bc16d674ec800008210612d35579283019260019190911c905b60011c612d05565b505050919050565b6000680a688906bd8b0000008210612d8c576040517f4a4f26f10000000000000000000000000000000000000000000000000000000081526004810183905260240161067a565b670de0b6b3a7640000604083901b04611d7581613418565b60008060008360020b12612dbb578260020b612dc8565b8260020b612dc890614153565b9050612df37ffffffffffffffffffffffffffffffffffffffffffffffffffffffffffff27618614116565b60020b811115612e5f576040517f08c379a000000000000000000000000000000000000000000000000000000000815260206004820152600160248201527f5400000000000000000000000000000000000000000000000000000000000000604482015260640161067a565b600060018216612e8057700100000000000000000000000000000000612e92565b6ffffcb933bd6fad37aa2d162d1a5940015b70ffffffffffffffffffffffffffffffffff1690506002821615612ed1576080612ecc826ffff97272373d413259a46990580e213a614056565b901c90505b6004821615612efb576080612ef6826ffff2e50f5f656932ef12357cf3c7fdcc614056565b901c90505b6008821615612f25576080612f20826fffe5caca7e10e4e61c3624eaa0941cd0614056565b901c90505b6010821615612f4f576080612f4a826fffcb9843d60f6159c9db58835c926644614056565b901c90505b6020821615612f79576080612f74826fff973b41fa98c081472e6896dfb254c0614056565b901c90505b6040821615612fa3576080612f9e826fff2ea16466c96a3843ec78b326b52861614056565b901c90505b6080821615612fcd576080612fc8826ffe5dee046a99a2a811c461f1969c3053614056565b901c90505b610100821615612ff8576080612ff3826ffcbe86c7900a88aedcffc83b479aa3a4614056565b901c90505b61020082161561302357608061301e826ff987a7253ac413176f2b074cf7815e54614056565b901c90505b61040082161561304e576080613049826ff3392b0822b70005940c7a398e4b70f3614056565b901c90505b610800821615613079576080613074826fe7159475a2c29b7443b29c7fa6e889d9614056565b901c90505b6110008216156130a457608061309f826fd097f3bdfd2022b8845ad8f792aa5825614056565b901c90505b6120008216156130cf5760806130ca826fa9f746462d870fdf8a65dc1f90e061e5614056565b901c90505b6140008216156130fa5760806130f5826f70d869a156d2a1b890bb3df62baf32f7614056565b901c90505b618000821615613125576080613120826f31be135f97d08fd981231505542fcfa6614056565b901c90505b6201000082161561315157608061314c826f09aa508b5b7a84e1c677de54f3e99bc9614056565b901c90505b6202000082161561317c576080613177826e5d6af8dedb81196699c329225ee604614056565b901c90505b620400008216156131a65760806131a1826d2216e584f5fa1ea926041bedfe98614056565b901c90505b620800008216156131ce5760806131c9826b048a170391f7dc42444e8fa2614056565b901c90505b60008460020b131561320757613204817fffffffffffffffffffffffffffffffffffffffffffffffffffffffffffffffff613f09565b90505b61321664010000000082614102565b15613222576001613225565b60005b6120699060ff16602083901c613ef1565b6000808373ffffffffffffffffffffffffffffffffffffffff168573ffffffffffffffffffffffffffffffffffffffff161115613271579293925b8473ffffffffffffffffffffffffffffffffffffffff168673ffffffffffffffffffffffffffffffffffffffff16116132b6576132af858585613b28565b9150612c73565b8373ffffffffffffffffffffffffffffffffffffffff168673ffffffffffffffffffffffffffffffffffffffff161015613309576132f5868585613b28565b9150613302858785613be5565b9050612c73565b613314858585613be5565b905094509492505050565b6000700100000000000000000000000000000000821061334c57608091821c916133499082613ef1565b90505b68010000000000000000821061336f57604091821c9161336c9082613ef1565b90505b640100000000821061338e57602091821c9161338b9082613ef1565b90505b6201000082106133ab57601091821c916133a89082613ef1565b90505b61010082106133c757600891821c916133c49082613ef1565b90505b601082106133e257600491821c916133df9082613ef1565b90505b600482106133fd57600291821c916133fa9082613ef1565b90505b6002821061341357613410600182613ef1565b90505b919050565b778000000000000000000000000000000000000000000000006780000000000000008216156134505768016a09e667f3bcc9090260401c5b67400000000000000082161561346f576801306fe0a31b7152df0260401c5b67200000000000000082161561348e576801172b83c7d517adce0260401c5b6710000000000000008216156134ad5768010b5586cf9890f62a0260401c5b6708000000000000008216156134cc576801059b0d31585743ae0260401c5b6704000000000000008216156134eb57680102c9a3e778060ee70260401c5b67020000000000000082161561350a5768010163da9fb33356d80260401c5b67010000000000000082161561352957680100b1afa5abcbed610260401c5b66800000000000008216156135475768010058c86da1c09ea20260401c5b6640000000000000821615613565576801002c605e2e8cec500260401c5b662000000000000082161561358357680100162f3904051fa10260401c5b66100000000000008216156135a1576801000b175effdc76ba0260401c5b66080000000000008216156135bf57680100058ba01fb9f96d0260401c5b66040000000000008216156135dd5768010002c5cc37da94920260401c5b66020000000000008216156135fb576801000162e525ee05470260401c5b66010000000000008216156136195768010000b17255775c040260401c5b65800000000000821615613636576801000058b91b5bc9ae0260401c5b6540000000000082161561365357680100002c5c89d5ec6d0260401c5b652000000000008216156136705768010000162e43f4f8310260401c5b6510000000000082161561368d57680100000b1721bcfc9a0260401c5b650800000000008216156136aa5768010000058b90cf1e6e0260401c5b650400000000008216156136c7576801000002c5c863b73f0260401c5b650200000000008216156136e457680100000162e430e5a20260401c5b65010000000000821615613701576801000000b1721835510260401c5b64800000000082161561371d57680100000058b90c0b490260401c5b6440000000008216156137395768010000002c5c8601cc0260401c5b642000000000821615613755576801000000162e42fff00260401c5b6410000000008216156137715768010000000b17217fbb0260401c5b64080000000082161561378d576801000000058b90bfce0260401c5b6404000000008216156137a957680100000002c5c85fe30260401c5b6402000000008216156137c55768010000000162e42ff10260401c5b6401000000008216156137e157680100000000b17217f80260401c5b63800000008216156137fc5768010000000058b90bfc0260401c5b6340000000821615613817576801000000002c5c85fe0260401c5b632000000082161561383257680100000000162e42ff0260401c5b631000000082161561384d576801000000000b17217f0260401c5b630800000082161561386857680100000000058b90c00260401c5b63040000008216156138835768010000000002c5c8600260401c5b630200000082161561389e576801000000000162e4300260401c5b63010000008216156138b95768010000000000b172180260401c5b628000008216156138d3576801000000000058b90c0260401c5b624000008216156138ed57680100000000002c5c860260401c5b622000008216156139075768010000000000162e430260401c5b6210000082161561392157680100000000000b17210260401c5b6208000082161561393b5768010000000000058b910260401c5b62040000821615613955576801000000000002c5c80260401c5b6202000082161561396f57680100000000000162e40260401c5b62010000821615613989576801000000000000b1720260401c5b6180008216156139a257680100000000000058b90260401c5b6140008216156139bb5768010000000000002c5d0260401c5b6120008216156139d4576801000000000000162e0260401c5b6110008216156139ed5768010000000000000b170260401c5b610800821615613a06576801000000000000058c0260401c5b610400821615613a1f57680100000000000002c60260401c5b610200821615613a3857680100000000000001630260401c5b610100821615613a5157680100000000000000b10260401c5b6080821615613a6957680100000000000000590260401c5b6040821615613a81576801000000000000002c0260401c5b6020821615613a9957680100000000000000160260401c5b6010821615613ab1576801000000000000000b0260401c5b6008821615613ac957680100000000000000060260401c5b6004821615613ae157680100000000000000030260401c5b6002821615613af957680100000000000000010260401c5b6001821615613b1157680100000000000000010260401c5b670de0b6b3a76400000260409190911c60bf031c90565b60008273ffffffffffffffffffffffffffffffffffffffff168473ffffffffffffffffffffffffffffffffffffffff161115613b62579192915b73ffffffffffffffffffffffffffffffffffffffff8416613bdb7bffffffffffffffffffffffffffffffff000000000000000000000000606085901b16613ba98787614093565b73ffffffffffffffffffffffffffffffffffffffff168673ffffffffffffffffffffffffffffffffffffffff16612a66565b6120699190613f09565b60008273ffffffffffffffffffffffffffffffffffffffff168473ffffffffffffffffffffffffffffffffffffffff161115613c1f579192915b6120696fffffffffffffffffffffffffffffffff8316613c3f8686614093565b73ffffffffffffffffffffffffffffffffffffffff166c01000000000000000000000000612a66565b80516fffffffffffffffffffffffffffffffff8116811461341357600080fd5b805169ffffffffffffffffffff8116811461341357600080fd5b600060208284031215613cb3578081fd5b8135611d75816141e7565b600060208284031215613ccf578081fd5b8151611d75816141e7565b600080600060608486031215613cee578182fd5b8335613cf9816141e7565b92506020840135613d09816141e7565b91506040840135613d19816141e7565b809150509250925092565b600060208284031215613d35578081fd5b81518060020b8114611d75578182fd5b60008060008060008060c08789031215613d5d578182fd5b613d6687613c68565b9550602087015163ffffffff81168114613d7e578283fd5b6040880151606089015191965094509250613d9b60808801613c68565b9150613da960a08801613c68565b90509295509295509295565b600060208284031215613dc6578081fd5b5035919050565b600060208284031215613dde578081fd5b5051919050565b600080600060608486031215613df9578283fd5b505081359360208301359350604090920135919050565b600080600080600060a08688031215613e27578081fd5b613e3086613c88565b9450602086015193506040860151925060608601519150613e5360808701613c88565b90509295509295909350565b600060208284031215613e70578081fd5b815160ff81168114611d75578182fd5b6000602080835283518082850152825b81811015613eac57858101830151858201604001528201613e90565b81811115613ebd5783604083870101525b50601f017fffffffffffffffffffffffffffffffffffffffffffffffffffffffffffffffe016929092016040019392505050565b60008219821115613f0457613f04614189565b500190565b600082613f1857613f186141b8565b500490565b600181815b80851115613f7657817fffffffffffffffffffffffffffffffffffffffffffffffffffffffffffffffff04821115613f5c57613f5c614189565b80851615613f6957918102915b93841c9390800290613f22565b509250929050565b6000611d758383613f95565b6000611d7560ff8416835b600082613fa457506001614050565b81613fb157506000614050565b8160018114613fc75760028114613fd157613fed565b6001915050614050565b60ff841115613fe257613fe2614189565b50506001821b614050565b5060208310610133831016604e8410600b8410161715614010575081810a614050565b61401a8383613f1d565b807fffffffffffffffffffffffffffffffffffffffffffffffffffffffffffffffff0482111561404c5761404c614189565b0290505b92915050565b6000817fffffffffffffffffffffffffffffffffffffffffffffffffffffffffffffffff048311821515161561408e5761408e614189565b500290565b600073ffffffffffffffffffffffffffffffffffffffff838116908316818110156140c0576140c0614189565b039392505050565b6000828210156140da576140da614189565b500390565b600060ff821660ff8416808210156140f9576140f9614189565b90039392505050565b600082614111576141116141b8565b500690565b60008160020b7fffffffffffffffffffffffffffffffffffffffffffffffffffffffffff80000081141561414c5761414c614189565b9003919050565b60007f800000000000000000000000000000000000000000000000000000000000000082141561418557614185614189565b0390565b7f4e487b7100000000000000000000000000000000000000000000000000000000600052601160045260246000fd5b7f4e487b7100000000000000000000000000000000000000000000000000000000600052601260045260246000fd5b73ffffffffffffffffffffffffffffffffffffffff8116811461420957600080fd5b5056fea26469706673582212207851add39f35c22c8043425e55f1dadddad51003dc817132e29e7c2901e1febf64736f6c63430008040033","opcodes":"PUSH1 0xE0 PUSH1 0x40 MSTORE CALLVALUE DUP1 ISZERO PUSH3 0x11 JUMPI PUSH1 0x0 DUP1 REVERT JUMPDEST POP PUSH1 0x40 MLOAD PUSH3 0x4578 CODESIZE SUB DUP1 PUSH3 0x4578 DUP4 CODECOPY DUP2 ADD PUSH1 0x40 DUP2 SWAP1 MSTORE PUSH3 0x34 SWAP2 PUSH3 0x244 JUMP JUMPDEST PUSH1 0x0 DUP1 SLOAD PUSH1 0xFF NOT AND PUSH1 0x1 OR SWAP1 SSTORE PUSH3 0x49 CALLER SWAP1 JUMP JUMPDEST PUSH1 0x4 DUP1 SLOAD PUSH1 0x1 PUSH1 0x1 PUSH1 0xA0 SHL SUB NOT AND PUSH1 0x1 PUSH1 0x1 PUSH1 0xA0 SHL SUB SWAP3 DUP4 AND OR DUP2 SSTORE PUSH1 0x60 DUP5 SWAP1 SHL PUSH1 0x1 PUSH1 0x1 PUSH1 0x60 SHL SUB NOT AND PUSH1 0x80 MSTORE PUSH1 0x40 DUP1 MLOAD PUSH4 0x313CE567 PUSH1 0xE0 SHL DUP2 MSTORE SWAP1 MLOAD SWAP3 DUP6 AND SWAP3 PUSH4 0x313CE567 SWAP3 DUP3 DUP2 ADD SWAP3 PUSH1 0x20 SWAP3 SWAP2 SWAP1 DUP3 SWAP1 SUB ADD DUP2 DUP7 DUP1 EXTCODESIZE ISZERO DUP1 ISZERO PUSH3 0xAF JUMPI PUSH1 0x0 DUP1 REVERT JUMPDEST POP GAS STATICCALL ISZERO DUP1 ISZERO PUSH3 0xC4 JUMPI RETURNDATASIZE PUSH1 0x0 DUP1 RETURNDATACOPY RETURNDATASIZE PUSH1 0x0 REVERT JUMPDEST POP POP POP POP PUSH1 0x40 MLOAD RETURNDATASIZE PUSH1 0x1F NOT PUSH1 0x1F DUP3 ADD AND DUP3 ADD DUP1 PUSH1 0x40 MSTORE POP DUP2 ADD SWAP1 PUSH3 0xEA SWAP2 SWAP1 PUSH3 0x282 JUMP JUMPDEST PUSH1 0xF8 SHL PUSH32 0xFF00000000000000000000000000000000000000000000000000000000000000 AND PUSH1 0xA0 MSTORE PUSH1 0x60 DUP2 SWAP1 SHL PUSH1 0x1 PUSH1 0x1 PUSH1 0x60 SHL SUB NOT AND PUSH1 0xC0 MSTORE PUSH3 0x12F DUP2 PUSH3 0x138 JUMP JUMPDEST POP POP POP PUSH3 0x2C5 JUMP JUMPDEST PUSH1 0x0 DUP1 DUP3 PUSH1 0x1 PUSH1 0x1 PUSH1 0xA0 SHL SUB AND PUSH4 0x313CE567 PUSH1 0x40 MLOAD DUP2 PUSH4 0xFFFFFFFF AND PUSH1 0xE0 SHL DUP2 MSTORE PUSH1 0x4 ADD PUSH1 0x20 PUSH1 0x40 MLOAD DUP1 DUP4 SUB DUP2 DUP7 DUP1 EXTCODESIZE ISZERO DUP1 ISZERO PUSH3 0x175 JUMPI PUSH1 0x0 DUP1 REVERT JUMPDEST POP GAS STATICCALL ISZERO DUP1 ISZERO PUSH3 0x18A JUMPI RETURNDATASIZE PUSH1 0x0 DUP1 RETURNDATACOPY RETURNDATASIZE PUSH1 0x0 REVERT JUMPDEST POP POP POP POP PUSH1 0x40 MLOAD RETURNDATASIZE PUSH1 0x1F NOT PUSH1 0x1F DUP3 ADD AND DUP3 ADD DUP1 PUSH1 0x40 MSTORE POP DUP2 ADD SWAP1 PUSH3 0x1B0 SWAP2 SWAP1 PUSH3 0x282 JUMP JUMPDEST PUSH1 0xFF AND SWAP1 POP DUP1 PUSH3 0x1E4 JUMPI PUSH1 0x40 MLOAD PUSH4 0xFE3C0129 PUSH1 0xE0 SHL DUP2 MSTORE PUSH1 0x1 PUSH1 0x1 PUSH1 0xA0 SHL SUB DUP5 AND PUSH1 0x4 DUP3 ADD MSTORE PUSH1 0x24 ADD JUMPDEST PUSH1 0x40 MLOAD DUP1 SWAP2 SUB SWAP1 REVERT JUMPDEST PUSH1 0x12 DUP2 GT ISZERO PUSH3 0x21A JUMPI PUSH1 0x40 MLOAD PUSH4 0x96434C7F PUSH1 0xE0 SHL DUP2 MSTORE PUSH1 0x1 PUSH1 0x1 PUSH1 0xA0 SHL SUB DUP5 AND PUSH1 0x4 DUP3 ADD MSTORE PUSH1 0x24 DUP2 ADD DUP3 SWAP1 MSTORE PUSH1 0x44 ADD PUSH3 0x1DB JUMP JUMPDEST PUSH1 0x1 PUSH1 0x1 PUSH1 0xA0 SHL SUB SWAP1 SWAP3 AND PUSH1 0x0 SWAP1 DUP2 MSTORE PUSH1 0x1 PUSH1 0x20 MSTORE PUSH1 0x40 SWAP1 KECCAK256 PUSH1 0x12 SWAP3 SWAP1 SWAP3 SUB PUSH1 0xA EXP SWAP2 DUP3 SWAP1 SSTORE POP SWAP1 JUMP JUMPDEST PUSH1 0x0 DUP1 PUSH1 0x40 DUP4 DUP6 SUB SLT ISZERO PUSH3 0x257 JUMPI DUP2 DUP3 REVERT JUMPDEST DUP3 MLOAD PUSH3 0x264 DUP2 PUSH3 0x2AC JUMP JUMPDEST PUSH1 0x20 DUP5 ADD MLOAD SWAP1 SWAP3 POP PUSH3 0x277 DUP2 PUSH3 0x2AC JUMP JUMPDEST DUP1 SWAP2 POP POP SWAP3 POP SWAP3 SWAP1 POP JUMP JUMPDEST PUSH1 0x0 PUSH1 0x20 DUP3 DUP5 SUB SLT ISZERO PUSH3 0x294 JUMPI DUP1 DUP2 REVERT JUMPDEST DUP2 MLOAD PUSH1 0xFF DUP2 AND DUP2 EQ PUSH3 0x2A5 JUMPI DUP2 DUP3 REVERT JUMPDEST SWAP4 SWAP3 POP POP POP JUMP JUMPDEST PUSH1 0x1 PUSH1 0x1 PUSH1 0xA0 SHL SUB DUP2 AND DUP2 EQ PUSH3 0x2C2 JUMPI PUSH1 0x0 DUP1 REVERT JUMPDEST POP JUMP JUMPDEST PUSH1 0x80 MLOAD PUSH1 0x60 SHR PUSH1 0xA0 MLOAD PUSH1 0xF8 SHR PUSH1 0xC0 MLOAD PUSH1 0x60 SHR PUSH2 0x4242 PUSH3 0x336 PUSH1 0x0 CODECOPY PUSH1 0x0 DUP2 DUP2 PUSH2 0x35A ADD MSTORE DUP2 DUP2 PUSH2 0x8BF ADD MSTORE DUP2 DUP2 PUSH2 0x968 ADD MSTORE DUP2 DUP2 PUSH2 0xC46 ADD MSTORE DUP2 DUP2 PUSH2 0xCEF ADD MSTORE PUSH2 0x1C62 ADD MSTORE PUSH1 0x0 DUP2 DUP2 PUSH2 0x26C ADD MSTORE DUP2 DUP2 PUSH2 0x994 ADD MSTORE DUP2 DUP2 PUSH2 0xD1B ADD MSTORE PUSH2 0xD67 ADD MSTORE PUSH1 0x0 PUSH2 0x527 ADD MSTORE PUSH2 0x4242 PUSH1 0x0 RETURN INVALID PUSH1 0x80 PUSH1 0x40 MSTORE CALLVALUE DUP1 ISZERO PUSH2 0x10 JUMPI PUSH1 0x0 DUP1 REVERT JUMPDEST POP PUSH1 0x4 CALLDATASIZE LT PUSH2 0x182 JUMPI PUSH1 0x0 CALLDATALOAD PUSH1 0xE0 SHR DUP1 PUSH4 0x6FCD22B9 GT PUSH2 0xD8 JUMPI DUP1 PUSH4 0xBA3941E7 GT PUSH2 0x8C JUMPI DUP1 PUSH4 0xF0AC40C4 GT PUSH2 0x66 JUMPI DUP1 PUSH4 0xF0AC40C4 EQ PUSH2 0x413 JUMPI DUP1 PUSH4 0xF6B9FDFB EQ PUSH2 0x522 JUMPI DUP1 PUSH4 0xF851A440 EQ PUSH2 0x549 JUMPI PUSH1 0x0 DUP1 REVERT JUMPDEST DUP1 PUSH4 0xBA3941E7 EQ PUSH2 0x3DE JUMPI DUP1 PUSH4 0xD02C70E8 EQ PUSH2 0x3F5 JUMPI DUP1 PUSH4 0xE6A69AB8 EQ PUSH2 0x408 JUMPI PUSH1 0x0 DUP1 REVERT JUMPDEST DUP1 PUSH4 0x8FD1C213 GT PUSH2 0xBD JUMPI DUP1 PUSH4 0x8FD1C213 EQ PUSH2 0x37C JUMPI DUP1 PUSH4 0x95D89B41 EQ PUSH2 0x38F JUMPI DUP1 PUSH4 0xA39443F7 EQ PUSH2 0x3CB JUMPI PUSH1 0x0 DUP1 REVERT JUMPDEST DUP1 PUSH4 0x6FCD22B9 EQ PUSH2 0x34D JUMPI DUP1 PUSH4 0x8EB6F8F0 EQ PUSH2 0x355 JUMPI PUSH1 0x0 DUP1 REVERT JUMPDEST DUP1 PUSH4 0x51FCBA9D GT PUSH2 0x13A JUMPI DUP1 PUSH4 0x62BBB6E0 GT PUSH2 0x114 JUMPI DUP1 PUSH4 0x62BBB6E0 EQ PUSH2 0x31F JUMPI DUP1 PUSH4 0x65C9B257 EQ PUSH2 0x327 JUMPI DUP1 PUSH4 0x6E938406 EQ PUSH2 0x33A JUMPI PUSH1 0x0 DUP1 REVERT JUMPDEST DUP1 PUSH4 0x51FCBA9D EQ PUSH2 0x2A0 JUMPI DUP1 PUSH4 0x54FD4D50 EQ PUSH2 0x2B5 JUMPI DUP1 PUSH4 0x5B22D050 EQ PUSH2 0x2F1 JUMPI PUSH1 0x0 DUP1 REVERT JUMPDEST DUP1 PUSH4 0x193D1DA9 GT PUSH2 0x16B JUMPI DUP1 PUSH4 0x193D1DA9 EQ PUSH2 0x1FA JUMPI DUP1 PUSH4 0x26782247 EQ PUSH2 0x222 JUMPI DUP1 PUSH4 0x313CE567 EQ PUSH2 0x267 JUMPI PUSH1 0x0 DUP1 REVERT JUMPDEST DUP1 PUSH4 0x6FDDE03 EQ PUSH2 0x187 JUMPI DUP1 PUSH4 0x17E5A1A1 EQ PUSH2 0x1D9 JUMPI JUMPDEST PUSH1 0x0 DUP1 REVERT JUMPDEST PUSH2 0x1C3 PUSH1 0x40 MLOAD DUP1 PUSH1 0x40 ADD PUSH1 0x40 MSTORE DUP1 PUSH1 0x1E DUP2 MSTORE PUSH1 0x20 ADD PUSH32 0x4379676E75732D4E6562756C613A2047616D6D61204C50204F7261636C650000 DUP2 MSTORE POP DUP2 JUMP JUMPDEST PUSH1 0x40 MLOAD PUSH2 0x1D0 SWAP2 SWAP1 PUSH2 0x3E80 JUMP JUMPDEST PUSH1 0x40 MLOAD DUP1 SWAP2 SUB SWAP1 RETURN JUMPDEST PUSH2 0x1EC PUSH2 0x1E7 CALLDATASIZE PUSH1 0x4 PUSH2 0x3CA2 JUMP JUMPDEST PUSH2 0x569 JUMP JUMPDEST PUSH1 0x40 MLOAD SWAP1 DUP2 MSTORE PUSH1 0x20 ADD PUSH2 0x1D0 JUMP JUMPDEST PUSH2 0x20D PUSH2 0x208 CALLDATASIZE PUSH1 0x4 PUSH2 0x3CA2 JUMP JUMPDEST PUSH2 0x9EE JUMP JUMPDEST PUSH1 0x40 DUP1 MLOAD SWAP3 DUP4 MSTORE PUSH1 0x20 DUP4 ADD SWAP2 SWAP1 SWAP2 MSTORE ADD PUSH2 0x1D0 JUMP JUMPDEST PUSH1 0x5 SLOAD PUSH2 0x242 SWAP1 PUSH20 0xFFFFFFFFFFFFFFFFFFFFFFFFFFFFFFFFFFFFFFFF AND DUP2 JUMP JUMPDEST PUSH1 0x40 MLOAD PUSH20 0xFFFFFFFFFFFFFFFFFFFFFFFFFFFFFFFFFFFFFFFF SWAP1 SWAP2 AND DUP2 MSTORE PUSH1 0x20 ADD PUSH2 0x1D0 JUMP JUMPDEST PUSH2 0x28E PUSH32 0x0 DUP2 JUMP JUMPDEST PUSH1 0x40 MLOAD PUSH1 0xFF SWAP1 SWAP2 AND DUP2 MSTORE PUSH1 0x20 ADD PUSH2 0x1D0 JUMP JUMPDEST PUSH2 0x2B3 PUSH2 0x2AE CALLDATASIZE PUSH1 0x4 PUSH2 0x3CDA JUMP JUMPDEST PUSH2 0xDBA JUMP JUMPDEST STOP JUMPDEST PUSH2 0x1C3 PUSH1 0x40 MLOAD DUP1 PUSH1 0x40 ADD PUSH1 0x40 MSTORE DUP1 PUSH1 0x5 DUP2 MSTORE PUSH1 0x20 ADD PUSH32 0x312E302E30000000000000000000000000000000000000000000000000000000 DUP2 MSTORE POP DUP2 JUMP JUMPDEST PUSH2 0x304 PUSH2 0x2FF CALLDATASIZE PUSH1 0x4 PUSH2 0x3CA2 JUMP JUMPDEST PUSH2 0x1460 JUMP JUMPDEST PUSH1 0x40 DUP1 MLOAD SWAP4 DUP5 MSTORE PUSH1 0x20 DUP5 ADD SWAP3 SWAP1 SWAP3 MSTORE SWAP1 DUP3 ADD MSTORE PUSH1 0x60 ADD PUSH2 0x1D0 JUMP JUMPDEST PUSH2 0x2B3 PUSH2 0x16EA JUMP JUMPDEST PUSH2 0x2B3 PUSH2 0x335 CALLDATASIZE PUSH1 0x4 PUSH2 0x3CA2 JUMP JUMPDEST PUSH2 0x187E JUMP JUMPDEST PUSH2 0x20D PUSH2 0x348 CALLDATASIZE PUSH1 0x4 PUSH2 0x3CA2 JUMP JUMPDEST PUSH2 0x19D8 JUMP JUMPDEST PUSH2 0x1EC PUSH2 0x1C5D JUMP JUMPDEST PUSH2 0x242 PUSH32 0x0 DUP2 JUMP JUMPDEST PUSH2 0x1EC PUSH2 0x38A CALLDATASIZE PUSH1 0x4 PUSH2 0x3DE5 JUMP JUMPDEST PUSH2 0x1D09 JUMP JUMPDEST PUSH2 0x1C3 PUSH1 0x40 MLOAD DUP1 PUSH1 0x40 ADD PUSH1 0x40 MSTORE DUP1 PUSH1 0x9 DUP2 MSTORE PUSH1 0x20 ADD PUSH32 0x4379674E6562756C610000000000000000000000000000000000000000000000 DUP2 MSTORE POP DUP2 JUMP JUMPDEST PUSH2 0x304 PUSH2 0x3D9 CALLDATASIZE PUSH1 0x4 PUSH2 0x3CA2 JUMP JUMPDEST PUSH2 0x1D7C JUMP JUMPDEST PUSH1 0x3 SLOAD PUSH1 0x40 MLOAD PUSH3 0xFFFFFF SWAP1 SWAP2 AND DUP2 MSTORE PUSH1 0x20 ADD PUSH2 0x1D0 JUMP JUMPDEST PUSH2 0x242 PUSH2 0x403 CALLDATASIZE PUSH1 0x4 PUSH2 0x3DB5 JUMP JUMPDEST PUSH2 0x1FF3 JUMP JUMPDEST PUSH2 0x1EC PUSH4 0x1E13380 DUP2 JUMP JUMPDEST PUSH2 0x4AC PUSH2 0x421 CALLDATASIZE PUSH1 0x4 PUSH2 0x3CA2 JUMP JUMPDEST PUSH1 0x2 PUSH1 0x20 DUP2 SWAP1 MSTORE PUSH1 0x0 SWAP2 DUP3 MSTORE PUSH1 0x40 SWAP1 SWAP2 KECCAK256 DUP1 SLOAD PUSH1 0x1 DUP3 ADD SLOAD SWAP3 DUP3 ADD SLOAD PUSH1 0x3 DUP4 ADD SLOAD PUSH1 0x4 DUP5 ADD SLOAD PUSH1 0x5 DUP6 ADD SLOAD PUSH1 0x6 DUP7 ADD SLOAD PUSH1 0x7 SWAP1 SWAP7 ADD SLOAD PUSH1 0xFF DUP7 AND SWAP8 PUSH11 0xFFFFFFFFFFFFFFFFFFFFFF PUSH2 0x100 DUP9 DIV AND SWAP8 PUSH20 0xFFFFFFFFFFFFFFFFFFFFFFFFFFFFFFFFFFFFFFFF PUSH13 0x1000000000000000000000000 SWAP1 SWAP9 DIV DUP9 AND SWAP8 SWAP2 DUP3 AND SWAP7 DUP3 AND SWAP6 DUP3 AND SWAP5 SWAP4 SWAP3 SWAP1 DUP3 AND SWAP2 AND DUP11 JUMP JUMPDEST PUSH1 0x40 DUP1 MLOAD SWAP11 ISZERO ISZERO DUP12 MSTORE PUSH11 0xFFFFFFFFFFFFFFFFFFFFFF SWAP1 SWAP10 AND PUSH1 0x20 DUP12 ADD MSTORE PUSH20 0xFFFFFFFFFFFFFFFFFFFFFFFFFFFFFFFFFFFFFFFF SWAP8 DUP9 AND SWAP9 DUP11 ADD SWAP9 SWAP1 SWAP9 MSTORE SWAP5 DUP7 AND PUSH1 0x60 DUP10 ADD MSTORE SWAP3 DUP6 AND PUSH1 0x80 DUP9 ADD MSTORE SWAP1 DUP5 AND PUSH1 0xA0 DUP8 ADD MSTORE PUSH1 0xC0 DUP7 ADD MSTORE PUSH1 0xE0 DUP6 ADD MSTORE DUP2 AND PUSH2 0x100 DUP5 ADD MSTORE AND PUSH2 0x120 DUP3 ADD MSTORE PUSH2 0x140 ADD PUSH2 0x1D0 JUMP JUMPDEST PUSH2 0x242 PUSH32 0x0 DUP2 JUMP JUMPDEST PUSH1 0x4 SLOAD PUSH2 0x242 SWAP1 PUSH20 0xFFFFFFFFFFFFFFFFFFFFFFFFFFFFFFFFFFFFFFFF AND DUP2 JUMP JUMPDEST PUSH20 0xFFFFFFFFFFFFFFFFFFFFFFFFFFFFFFFFFFFFFFFF DUP2 DUP2 AND PUSH1 0x0 SWAP1 DUP2 MSTORE PUSH1 0x2 PUSH1 0x20 DUP2 DUP2 MSTORE PUSH1 0x40 DUP1 DUP5 KECCAK256 DUP2 MLOAD PUSH2 0x140 DUP2 ADD DUP4 MSTORE DUP2 SLOAD PUSH1 0xFF DUP2 AND ISZERO ISZERO DUP1 DUP4 MSTORE PUSH2 0x100 DUP1 DUP4 DIV PUSH11 0xFFFFFFFFFFFFFFFFFFFFFF AND SWAP7 DUP5 ADD SWAP7 SWAP1 SWAP7 MSTORE PUSH13 0x1000000000000000000000000 SWAP1 SWAP2 DIV DUP9 AND SWAP4 DUP3 ADD SWAP4 SWAP1 SWAP4 MSTORE PUSH1 0x1 DUP3 ADD SLOAD DUP8 AND PUSH1 0x60 DUP3 ADD MSTORE SWAP4 DUP2 ADD SLOAD DUP7 AND PUSH1 0x80 DUP6 ADD MSTORE PUSH1 0x3 DUP2 ADD SLOAD DUP7 AND PUSH1 0xA0 DUP6 ADD MSTORE PUSH1 0x4 DUP2 ADD SLOAD PUSH1 0xC0 DUP6 ADD MSTORE PUSH1 0x5 DUP2 ADD SLOAD PUSH1 0xE0 DUP6 ADD MSTORE PUSH1 0x6 DUP2 ADD SLOAD DUP7 AND SWAP3 DUP5 ADD SWAP3 SWAP1 SWAP3 MSTORE PUSH1 0x7 SWAP1 SWAP2 ADD SLOAD SWAP1 SWAP4 AND PUSH2 0x120 DUP3 ADD MSTORE SWAP1 SWAP2 PUSH2 0x683 JUMPI PUSH1 0x40 MLOAD PUSH32 0xFB642B4D00000000000000000000000000000000000000000000000000000000 DUP2 MSTORE PUSH20 0xFFFFFFFFFFFFFFFFFFFFFFFFFFFFFFFFFFFFFFFF DUP5 AND PUSH1 0x4 DUP3 ADD MSTORE PUSH1 0x24 ADD JUMPDEST PUSH1 0x40 MLOAD DUP1 SWAP2 SUB SWAP1 REVERT JUMPDEST PUSH1 0x0 DUP2 PUSH2 0x100 ADD MLOAD PUSH20 0xFFFFFFFFFFFFFFFFFFFFFFFFFFFFFFFFFFFFFFFF AND PUSH4 0xFEAF968C PUSH1 0x40 MLOAD DUP2 PUSH4 0xFFFFFFFF AND PUSH1 0xE0 SHL DUP2 MSTORE PUSH1 0x4 ADD PUSH1 0xA0 PUSH1 0x40 MLOAD DUP1 DUP4 SUB DUP2 DUP7 DUP1 EXTCODESIZE ISZERO DUP1 ISZERO PUSH2 0x6D0 JUMPI PUSH1 0x0 DUP1 REVERT JUMPDEST POP GAS STATICCALL ISZERO DUP1 ISZERO PUSH2 0x6E4 JUMPI RETURNDATASIZE PUSH1 0x0 DUP1 RETURNDATACOPY RETURNDATASIZE PUSH1 0x0 REVERT JUMPDEST POP POP POP POP PUSH1 0x40 MLOAD RETURNDATASIZE PUSH1 0x1F NOT PUSH1 0x1F DUP3 ADD AND DUP3 ADD DUP1 PUSH1 0x40 MSTORE POP DUP2 ADD SWAP1 PUSH2 0x708 SWAP2 SWAP1 PUSH2 0x3E10 JUMP JUMPDEST POP POP POP SWAP2 POP POP PUSH1 0x0 DUP3 PUSH2 0x120 ADD MLOAD PUSH20 0xFFFFFFFFFFFFFFFFFFFFFFFFFFFFFFFFFFFFFFFF AND PUSH4 0xFEAF968C PUSH1 0x40 MLOAD DUP2 PUSH4 0xFFFFFFFF AND PUSH1 0xE0 SHL DUP2 MSTORE PUSH1 0x4 ADD PUSH1 0xA0 PUSH1 0x40 MLOAD DUP1 DUP4 SUB DUP2 DUP7 DUP1 EXTCODESIZE ISZERO DUP1 ISZERO PUSH2 0x75B JUMPI PUSH1 0x0 DUP1 REVERT JUMPDEST POP GAS STATICCALL ISZERO DUP1 ISZERO PUSH2 0x76F JUMPI RETURNDATASIZE PUSH1 0x0 DUP1 RETURNDATACOPY RETURNDATASIZE PUSH1 0x0 REVERT JUMPDEST POP POP POP POP PUSH1 0x40 MLOAD RETURNDATASIZE PUSH1 0x1F NOT PUSH1 0x1F DUP3 ADD AND DUP3 ADD DUP1 PUSH1 0x40 MSTORE POP DUP2 ADD SWAP1 PUSH2 0x793 SWAP2 SWAP1 PUSH2 0x3E10 JUMP JUMPDEST POP POP POP SWAP2 POP POP PUSH1 0x0 PUSH2 0x7AA DUP5 PUSH2 0x100 ADD MLOAD DUP5 PUSH2 0x202A JUMP JUMPDEST SWAP1 POP PUSH1 0x0 PUSH2 0x7BD DUP6 PUSH2 0x120 ADD MLOAD DUP5 PUSH2 0x202A JUMP JUMPDEST SWAP1 POP PUSH1 0x0 PUSH2 0x7D5 DUP4 DUP8 PUSH1 0xC0 ADD MLOAD DUP5 DUP10 PUSH1 0xE0 ADD MLOAD PUSH2 0x2071 JUMP JUMPDEST SWAP1 POP PUSH1 0x0 DUP1 PUSH2 0x7E4 DUP9 DUP5 PUSH2 0x20D3 JUMP JUMPDEST SWAP2 POP SWAP2 POP PUSH1 0x0 PUSH2 0x7F8 DUP10 PUSH1 0x80 ADD MLOAD DUP5 PUSH2 0x202A JUMP JUMPDEST SWAP1 POP PUSH1 0x0 PUSH2 0x80A DUP11 PUSH1 0xA0 ADD MLOAD DUP5 PUSH2 0x202A JUMP JUMPDEST SWAP1 POP PUSH1 0x0 DUP13 PUSH20 0xFFFFFFFFFFFFFFFFFFFFFFFFFFFFFFFFFFFFFFFF AND PUSH4 0x18160DDD PUSH1 0x40 MLOAD DUP2 PUSH4 0xFFFFFFFF AND PUSH1 0xE0 SHL DUP2 MSTORE PUSH1 0x4 ADD PUSH1 0x20 PUSH1 0x40 MLOAD DUP1 DUP4 SUB DUP2 DUP7 DUP1 EXTCODESIZE ISZERO DUP1 ISZERO PUSH2 0x854 JUMPI PUSH1 0x0 DUP1 REVERT JUMPDEST POP GAS STATICCALL ISZERO DUP1 ISZERO PUSH2 0x868 JUMPI RETURNDATASIZE PUSH1 0x0 DUP1 RETURNDATACOPY RETURNDATASIZE PUSH1 0x0 REVERT JUMPDEST POP POP POP POP PUSH1 0x40 MLOAD RETURNDATASIZE PUSH1 0x1F NOT PUSH1 0x1F DUP3 ADD AND DUP3 ADD DUP1 PUSH1 0x40 MSTORE POP DUP2 ADD SWAP1 PUSH2 0x88C SWAP2 SWAP1 PUSH2 0x3DCD JUMP JUMPDEST SWAP1 POP PUSH1 0x0 DUP2 PUSH2 0x89B DUP10 DUP6 PUSH2 0x4056 JUMP JUMPDEST PUSH2 0x8A5 DUP12 DUP8 PUSH2 0x4056 JUMP JUMPDEST PUSH2 0x8AF SWAP2 SWAP1 PUSH2 0x3EF1 JUMP JUMPDEST PUSH2 0x8B9 SWAP2 SWAP1 PUSH2 0x3F09 JUMP JUMPDEST SWAP1 POP PUSH1 0x0 PUSH32 0x0 PUSH20 0xFFFFFFFFFFFFFFFFFFFFFFFFFFFFFFFFFFFFFFFF AND PUSH4 0xFEAF968C PUSH1 0x40 MLOAD DUP2 PUSH4 0xFFFFFFFF AND PUSH1 0xE0 SHL DUP2 MSTORE PUSH1 0x4 ADD PUSH1 0xA0 PUSH1 0x40 MLOAD DUP1 DUP4 SUB DUP2 DUP7 DUP1 EXTCODESIZE ISZERO DUP1 ISZERO PUSH2 0x923 JUMPI PUSH1 0x0 DUP1 REVERT JUMPDEST POP GAS STATICCALL ISZERO DUP1 ISZERO PUSH2 0x937 JUMPI RETURNDATASIZE PUSH1 0x0 DUP1 RETURNDATACOPY RETURNDATASIZE PUSH1 0x0 REVERT JUMPDEST POP POP POP POP PUSH1 0x40 MLOAD RETURNDATASIZE PUSH1 0x1F NOT PUSH1 0x1F DUP3 ADD AND DUP3 ADD DUP1 PUSH1 0x40 MSTORE POP DUP2 ADD SWAP1 PUSH2 0x95B SWAP2 SWAP1 PUSH2 0x3E10 JUMP JUMPDEST POP POP POP SWAP2 POP POP PUSH1 0x0 PUSH2 0x98D PUSH32 0x0 DUP4 PUSH2 0x202A JUMP JUMPDEST SWAP1 POP PUSH2 0x9BA PUSH32 0x0 PUSH1 0x12 PUSH2 0x40DF JUMP JUMPDEST PUSH2 0x9C5 SWAP1 PUSH1 0xA PUSH2 0x3F8A JUMP JUMPDEST PUSH2 0x9CF DUP5 DUP4 PUSH2 0x228F JUMP JUMPDEST PUSH2 0x9D9 SWAP2 SWAP1 PUSH2 0x3F09 JUMP JUMPDEST SWAP15 POP POP POP POP POP POP POP POP POP POP POP POP POP POP POP SWAP2 SWAP1 POP JUMP JUMPDEST PUSH20 0xFFFFFFFFFFFFFFFFFFFFFFFFFFFFFFFFFFFFFFFF DUP2 DUP2 AND PUSH1 0x0 SWAP1 DUP2 MSTORE PUSH1 0x2 PUSH1 0x20 DUP2 DUP2 MSTORE PUSH1 0x40 DUP1 DUP5 KECCAK256 DUP2 MLOAD PUSH2 0x140 DUP2 ADD DUP4 MSTORE DUP2 SLOAD PUSH1 0xFF DUP2 AND ISZERO ISZERO DUP1 DUP4 MSTORE PUSH2 0x100 DUP1 DUP4 DIV PUSH11 0xFFFFFFFFFFFFFFFFFFFFFF AND SWAP7 DUP5 ADD SWAP7 SWAP1 SWAP7 MSTORE PUSH13 0x1000000000000000000000000 SWAP1 SWAP2 DIV DUP9 AND SWAP4 DUP3 ADD SWAP4 SWAP1 SWAP4 MSTORE PUSH1 0x1 DUP3 ADD SLOAD DUP8 AND PUSH1 0x60 DUP3 ADD MSTORE SWAP4 DUP2 ADD SLOAD DUP7 AND PUSH1 0x80 DUP6 ADD MSTORE PUSH1 0x3 DUP2 ADD SLOAD DUP7 AND PUSH1 0xA0 DUP6 ADD MSTORE PUSH1 0x4 DUP2 ADD SLOAD PUSH1 0xC0 DUP6 ADD MSTORE PUSH1 0x5 DUP2 ADD SLOAD PUSH1 0xE0 DUP6 ADD MSTORE PUSH1 0x6 DUP2 ADD SLOAD DUP7 AND SWAP3 DUP5 ADD SWAP3 SWAP1 SWAP3 MSTORE PUSH1 0x7 SWAP1 SWAP2 ADD SLOAD SWAP1 SWAP4 AND PUSH2 0x120 DUP3 ADD MSTORE SWAP1 SWAP2 DUP3 SWAP2 SWAP1 PUSH2 0xB06 JUMPI PUSH1 0x40 MLOAD PUSH32 0xFB642B4D00000000000000000000000000000000000000000000000000000000 DUP2 MSTORE PUSH20 0xFFFFFFFFFFFFFFFFFFFFFFFFFFFFFFFFFFFFFFFF DUP6 AND PUSH1 0x4 DUP3 ADD MSTORE PUSH1 0x24 ADD PUSH2 0x67A JUMP JUMPDEST PUSH1 0x0 DUP2 PUSH2 0x100 ADD MLOAD PUSH20 0xFFFFFFFFFFFFFFFFFFFFFFFFFFFFFFFFFFFFFFFF AND PUSH4 0xFEAF968C PUSH1 0x40 MLOAD DUP2 PUSH4 0xFFFFFFFF AND PUSH1 0xE0 SHL DUP2 MSTORE PUSH1 0x4 ADD PUSH1 0xA0 PUSH1 0x40 MLOAD DUP1 DUP4 SUB DUP2 DUP7 DUP1 EXTCODESIZE ISZERO DUP1 ISZERO PUSH2 0xB53 JUMPI PUSH1 0x0 DUP1 REVERT JUMPDEST POP GAS STATICCALL ISZERO DUP1 ISZERO PUSH2 0xB67 JUMPI RETURNDATASIZE PUSH1 0x0 DUP1 RETURNDATACOPY RETURNDATASIZE PUSH1 0x0 REVERT JUMPDEST POP POP POP POP PUSH1 0x40 MLOAD RETURNDATASIZE PUSH1 0x1F NOT PUSH1 0x1F DUP3 ADD AND DUP3 ADD DUP1 PUSH1 0x40 MSTORE POP DUP2 ADD SWAP1 PUSH2 0xB8B SWAP2 SWAP1 PUSH2 0x3E10 JUMP JUMPDEST POP POP POP SWAP2 POP POP PUSH1 0x0 DUP3 PUSH2 0x120 ADD MLOAD PUSH20 0xFFFFFFFFFFFFFFFFFFFFFFFFFFFFFFFFFFFFFFFF AND PUSH4 0xFEAF968C PUSH1 0x40 MLOAD DUP2 PUSH4 0xFFFFFFFF AND PUSH1 0xE0 SHL DUP2 MSTORE PUSH1 0x4 ADD PUSH1 0xA0 PUSH1 0x40 MLOAD DUP1 DUP4 SUB DUP2 DUP7 DUP1 EXTCODESIZE ISZERO DUP1 ISZERO PUSH2 0xBDE JUMPI PUSH1 0x0 DUP1 REVERT JUMPDEST POP GAS STATICCALL ISZERO DUP1 ISZERO PUSH2 0xBF2 JUMPI RETURNDATASIZE PUSH1 0x0 DUP1 RETURNDATACOPY RETURNDATASIZE PUSH1 0x0 REVERT JUMPDEST POP POP POP POP PUSH1 0x40 MLOAD RETURNDATASIZE PUSH1 0x1F NOT PUSH1 0x1F DUP3 ADD AND DUP3 ADD DUP1 PUSH1 0x40 MSTORE POP DUP2 ADD SWAP1 PUSH2 0xC16 SWAP2 SWAP1 PUSH2 0x3E10 JUMP JUMPDEST POP POP POP SWAP2 POP POP PUSH1 0x0 PUSH2 0xC2D DUP5 PUSH2 0x100 ADD MLOAD DUP5 PUSH2 0x202A JUMP JUMPDEST SWAP1 POP PUSH1 0x0 PUSH2 0xC40 DUP6 PUSH2 0x120 ADD MLOAD DUP5 PUSH2 0x202A JUMP JUMPDEST SWAP1 POP PUSH1 0x0 PUSH32 0x0 PUSH20 0xFFFFFFFFFFFFFFFFFFFFFFFFFFFFFFFFFFFFFFFF AND PUSH4 0xFEAF968C PUSH1 0x40 MLOAD DUP2 PUSH4 0xFFFFFFFF AND PUSH1 0xE0 SHL DUP2 MSTORE PUSH1 0x4 ADD PUSH1 0xA0 PUSH1 0x40 MLOAD DUP1 DUP4 SUB DUP2 DUP7 DUP1 EXTCODESIZE ISZERO DUP1 ISZERO PUSH2 0xCAA JUMPI PUSH1 0x0 DUP1 REVERT JUMPDEST POP GAS STATICCALL ISZERO DUP1 ISZERO PUSH2 0xCBE JUMPI RETURNDATASIZE PUSH1 0x0 DUP1 RETURNDATACOPY RETURNDATASIZE PUSH1 0x0 REVERT JUMPDEST POP POP POP POP PUSH1 0x40 MLOAD RETURNDATASIZE PUSH1 0x1F NOT PUSH1 0x1F DUP3 ADD AND DUP3 ADD DUP1 PUSH1 0x40 MSTORE POP DUP2 ADD SWAP1 PUSH2 0xCE2 SWAP2 SWAP1 PUSH2 0x3E10 JUMP JUMPDEST POP POP POP SWAP2 POP POP PUSH1 0x0 PUSH2 0xD14 PUSH32 0x0 DUP4 PUSH2 0x202A JUMP JUMPDEST SWAP1 POP PUSH2 0xD41 PUSH32 0x0 PUSH1 0x12 PUSH2 0x40DF JUMP JUMPDEST PUSH2 0xD4C SWAP1 PUSH1 0xA PUSH2 0x3F8A JUMP JUMPDEST PUSH2 0xD56 DUP6 DUP4 PUSH2 0x228F JUMP JUMPDEST PUSH2 0xD60 SWAP2 SWAP1 PUSH2 0x3F09 JUMP JUMPDEST SWAP9 POP PUSH2 0xD8D PUSH32 0x0 PUSH1 0x12 PUSH2 0x40DF JUMP JUMPDEST PUSH2 0xD98 SWAP1 PUSH1 0xA PUSH2 0x3F8A JUMP JUMPDEST PUSH2 0xDA2 DUP5 DUP4 PUSH2 0x228F JUMP JUMPDEST PUSH2 0xDAC SWAP2 SWAP1 PUSH2 0x3F09 JUMP JUMPDEST SWAP8 POP POP POP POP POP POP POP POP SWAP2 POP SWAP2 JUMP JUMPDEST PUSH1 0x0 SLOAD PUSH1 0xFF AND PUSH2 0xDF6 JUMPI PUSH1 0x40 MLOAD PUSH32 0x37ED32E800000000000000000000000000000000000000000000000000000000 DUP2 MSTORE PUSH1 0x4 ADD PUSH1 0x40 MLOAD DUP1 SWAP2 SUB SWAP1 REVERT JUMPDEST PUSH1 0x0 DUP1 SLOAD PUSH32 0xFFFFFFFFFFFFFFFFFFFFFFFFFFFFFFFFFFFFFFFFFFFFFFFFFFFFFFFFFFFFFF00 AND SWAP1 SSTORE PUSH2 0xE26 PUSH2 0x22A4 JUMP JUMPDEST PUSH20 0xFFFFFFFFFFFFFFFFFFFFFFFFFFFFFFFFFFFFFFFF DUP4 AND PUSH1 0x0 SWAP1 DUP2 MSTORE PUSH1 0x2 PUSH1 0x20 MSTORE PUSH1 0x40 SWAP1 KECCAK256 DUP1 SLOAD PUSH1 0xFF AND ISZERO PUSH2 0xE9F JUMPI PUSH1 0x40 MLOAD PUSH32 0x48A979DC00000000000000000000000000000000000000000000000000000000 DUP2 MSTORE PUSH20 0xFFFFFFFFFFFFFFFFFFFFFFFFFFFFFFFFFFFFFFFF DUP6 AND PUSH1 0x4 DUP3 ADD MSTORE PUSH1 0x24 ADD PUSH2 0x67A JUMP JUMPDEST PUSH1 0x3 SLOAD DUP2 SLOAD PUSH1 0xFF AND PUSH3 0xFFFFFF SWAP2 SWAP1 SWAP2 AND PUSH2 0x100 MUL PUSH12 0xFFFFFFFFFFFFFFFFFFFFFFFF AND OR PUSH13 0x1000000000000000000000000 PUSH20 0xFFFFFFFFFFFFFFFFFFFFFFFFFFFFFFFFFFFFFFFF DUP7 AND SWAP1 DUP2 MUL SWAP2 SWAP1 SWAP2 OR DUP3 SSTORE PUSH1 0x40 DUP1 MLOAD PUSH32 0x16F0115B00000000000000000000000000000000000000000000000000000000 DUP2 MSTORE SWAP1 MLOAD PUSH4 0x16F0115B SWAP2 PUSH1 0x4 DUP1 DUP3 ADD SWAP3 PUSH1 0x20 SWAP3 SWAP1 SWAP2 SWAP1 DUP3 SWAP1 SUB ADD DUP2 DUP7 DUP1 EXTCODESIZE ISZERO DUP1 ISZERO PUSH2 0xF3F JUMPI PUSH1 0x0 DUP1 REVERT JUMPDEST POP GAS STATICCALL ISZERO DUP1 ISZERO PUSH2 0xF53 JUMPI RETURNDATASIZE PUSH1 0x0 DUP1 RETURNDATACOPY RETURNDATASIZE PUSH1 0x0 REVERT JUMPDEST POP POP POP POP PUSH1 0x40 MLOAD RETURNDATASIZE PUSH1 0x1F NOT PUSH1 0x1F DUP3 ADD AND DUP3 ADD DUP1 PUSH1 0x40 MSTORE POP DUP2 ADD SWAP1 PUSH2 0xF77 SWAP2 SWAP1 PUSH2 0x3CBE JUMP JUMPDEST DUP2 PUSH1 0x1 ADD PUSH1 0x0 PUSH2 0x100 EXP DUP2 SLOAD DUP2 PUSH20 0xFFFFFFFFFFFFFFFFFFFFFFFFFFFFFFFFFFFFFFFF MUL NOT AND SWAP1 DUP4 PUSH20 0xFFFFFFFFFFFFFFFFFFFFFFFFFFFFFFFFFFFFFFFF AND MUL OR SWAP1 SSTORE POP DUP4 PUSH20 0xFFFFFFFFFFFFFFFFFFFFFFFFFFFFFFFFFFFFFFFF AND PUSH4 0xDFE1681 PUSH1 0x40 MLOAD DUP2 PUSH4 0xFFFFFFFF AND PUSH1 0xE0 SHL DUP2 MSTORE PUSH1 0x4 ADD PUSH1 0x20 PUSH1 0x40 MLOAD DUP1 DUP4 SUB DUP2 DUP7 DUP1 EXTCODESIZE ISZERO DUP1 ISZERO PUSH2 0xFFF JUMPI PUSH1 0x0 DUP1 REVERT JUMPDEST POP GAS STATICCALL ISZERO DUP1 ISZERO PUSH2 0x1013 JUMPI RETURNDATASIZE PUSH1 0x0 DUP1 RETURNDATACOPY RETURNDATASIZE PUSH1 0x0 REVERT JUMPDEST POP POP POP POP PUSH1 0x40 MLOAD RETURNDATASIZE PUSH1 0x1F NOT PUSH1 0x1F DUP3 ADD AND DUP3 ADD DUP1 PUSH1 0x40 MSTORE POP DUP2 ADD SWAP1 PUSH2 0x1037 SWAP2 SWAP1 PUSH2 0x3CBE JUMP JUMPDEST DUP2 PUSH1 0x2 ADD PUSH1 0x0 PUSH2 0x100 EXP DUP2 SLOAD DUP2 PUSH20 0xFFFFFFFFFFFFFFFFFFFFFFFFFFFFFFFFFFFFFFFF MUL NOT AND SWAP1 DUP4 PUSH20 0xFFFFFFFFFFFFFFFFFFFFFFFFFFFFFFFFFFFFFFFF AND MUL OR SWAP1 SSTORE POP DUP4 PUSH20 0xFFFFFFFFFFFFFFFFFFFFFFFFFFFFFFFFFFFFFFFF AND PUSH4 0xD21220A7 PUSH1 0x40 MLOAD DUP2 PUSH4 0xFFFFFFFF AND PUSH1 0xE0 SHL DUP2 MSTORE PUSH1 0x4 ADD PUSH1 0x20 PUSH1 0x40 MLOAD DUP1 DUP4 SUB DUP2 DUP7 DUP1 EXTCODESIZE ISZERO DUP1 ISZERO PUSH2 0x10BF JUMPI PUSH1 0x0 DUP1 REVERT JUMPDEST POP GAS STATICCALL ISZERO DUP1 ISZERO PUSH2 0x10D3 JUMPI RETURNDATASIZE PUSH1 0x0 DUP1 RETURNDATACOPY RETURNDATASIZE PUSH1 0x0 REVERT JUMPDEST POP POP POP POP PUSH1 0x40 MLOAD RETURNDATASIZE PUSH1 0x1F NOT PUSH1 0x1F DUP3 ADD AND DUP3 ADD DUP1 PUSH1 0x40 MSTORE POP DUP2 ADD SWAP1 PUSH2 0x10F7 SWAP2 SWAP1 PUSH2 0x3CBE JUMP JUMPDEST PUSH1 0x3 DUP3 ADD DUP1 SLOAD PUSH32 0xFFFFFFFFFFFFFFFFFFFFFFFF0000000000000000000000000000000000000000 AND PUSH20 0xFFFFFFFFFFFFFFFFFFFFFFFFFFFFFFFFFFFFFFFF SWAP3 DUP4 AND OR SWAP1 SSTORE PUSH1 0x2 DUP3 ADD SLOAD PUSH2 0x1149 SWAP2 AND PUSH2 0x230F JUMP JUMPDEST POP PUSH1 0x3 DUP2 ADD SLOAD PUSH2 0x116E SWAP1 PUSH20 0xFFFFFFFFFFFFFFFFFFFFFFFFFFFFFFFFFFFFFFFF AND PUSH2 0x230F JUMP JUMPDEST POP DUP1 PUSH1 0x2 ADD PUSH1 0x0 SWAP1 SLOAD SWAP1 PUSH2 0x100 EXP SWAP1 DIV PUSH20 0xFFFFFFFFFFFFFFFFFFFFFFFFFFFFFFFFFFFFFFFF AND PUSH20 0xFFFFFFFFFFFFFFFFFFFFFFFFFFFFFFFFFFFFFFFF AND PUSH4 0x313CE567 PUSH1 0x40 MLOAD DUP2 PUSH4 0xFFFFFFFF AND PUSH1 0xE0 SHL DUP2 MSTORE PUSH1 0x4 ADD PUSH1 0x20 PUSH1 0x40 MLOAD DUP1 DUP4 SUB DUP2 DUP7 DUP1 EXTCODESIZE ISZERO DUP1 ISZERO PUSH2 0x11D9 JUMPI PUSH1 0x0 DUP1 REVERT JUMPDEST POP GAS STATICCALL ISZERO DUP1 ISZERO PUSH2 0x11ED JUMPI RETURNDATASIZE PUSH1 0x0 DUP1 RETURNDATACOPY RETURNDATASIZE PUSH1 0x0 REVERT JUMPDEST POP POP POP POP PUSH1 0x40 MLOAD RETURNDATASIZE PUSH1 0x1F NOT PUSH1 0x1F DUP3 ADD AND DUP3 ADD DUP1 PUSH1 0x40 MSTORE POP DUP2 ADD SWAP1 PUSH2 0x1211 SWAP2 SWAP1 PUSH2 0x3E5F JUMP JUMPDEST PUSH1 0xFF AND PUSH1 0x4 DUP1 DUP4 ADD SWAP2 SWAP1 SWAP2 SSTORE PUSH1 0x3 DUP3 ADD SLOAD PUSH1 0x40 DUP1 MLOAD PUSH32 0x313CE56700000000000000000000000000000000000000000000000000000000 DUP2 MSTORE SWAP1 MLOAD PUSH20 0xFFFFFFFFFFFFFFFFFFFFFFFFFFFFFFFFFFFFFFFF SWAP1 SWAP3 AND SWAP3 PUSH4 0x313CE567 SWAP3 DUP3 DUP3 ADD SWAP3 PUSH1 0x20 SWAP3 SWAP1 DUP3 SWAP1 SUB ADD DUP2 DUP7 DUP1 EXTCODESIZE ISZERO DUP1 ISZERO PUSH2 0x1286 JUMPI PUSH1 0x0 DUP1 REVERT JUMPDEST POP GAS STATICCALL ISZERO DUP1 ISZERO PUSH2 0x129A JUMPI RETURNDATASIZE PUSH1 0x0 DUP1 RETURNDATACOPY RETURNDATASIZE PUSH1 0x0 REVERT JUMPDEST POP POP POP POP PUSH1 0x40 MLOAD RETURNDATASIZE PUSH1 0x1F NOT PUSH1 0x1F DUP3 ADD AND DUP3 ADD DUP1 PUSH1 0x40 MSTORE POP DUP2 ADD SWAP1 PUSH2 0x12BE SWAP2 SWAP1 PUSH2 0x3E5F JUMP JUMPDEST PUSH1 0xFF AND PUSH1 0x5 DUP3 ADD SSTORE PUSH1 0x6 DUP2 ADD DUP1 SLOAD PUSH20 0xFFFFFFFFFFFFFFFFFFFFFFFFFFFFFFFFFFFFFFFF DUP1 DUP7 AND PUSH32 0xFFFFFFFFFFFFFFFFFFFFFFFF0000000000000000000000000000000000000000 SWAP3 DUP4 AND OR SWAP1 SWAP3 SSTORE PUSH1 0x7 DUP4 ADD DUP1 SLOAD SWAP3 DUP6 AND SWAP3 SWAP1 SWAP2 AND SWAP2 SWAP1 SWAP2 OR SWAP1 SSTORE PUSH2 0x1328 DUP4 PUSH2 0x230F JUMP JUMPDEST POP PUSH2 0x1332 DUP3 PUSH2 0x230F JUMP JUMPDEST POP PUSH1 0x3 DUP1 SLOAD PUSH1 0x1 DUP1 DUP3 ADD DUP4 SSTORE PUSH1 0x0 SWAP3 SWAP1 SWAP3 MSTORE PUSH32 0xC2575A0E9E593C00F959F8C92F12DB2869C3395A3B0502D05E2516446F71F85B ADD DUP1 SLOAD PUSH32 0xFFFFFFFFFFFFFFFFFFFFFFFF0000000000000000000000000000000000000000 AND PUSH20 0xFFFFFFFFFFFFFFFFFFFFFFFFFFFFFFFFFFFFFFFF DUP8 DUP2 AND SWAP2 DUP3 OR SWAP1 SWAP3 SSTORE DUP4 SLOAD PUSH32 0xFFFFFFFFFFFFFFFFFFFFFFFFFFFFFFFFFFFFFFFFFFFFFFFFFFFFFFFFFFFFFF00 AND DUP4 OR DUP1 DUP6 SSTORE PUSH1 0x40 DUP1 MLOAD SWAP5 DUP6 MSTORE PUSH2 0x100 SWAP1 SWAP2 DIV PUSH11 0xFFFFFFFFFFFFFFFFFFFFFF AND PUSH1 0x20 DUP6 ADD MSTORE DUP4 ADD MSTORE DUP5 DUP2 AND PUSH1 0x60 DUP4 ADD MSTORE DUP4 AND PUSH1 0x80 DUP3 ADD MSTORE PUSH32 0xA9C1A243C663BEA93D8B6C5D7850083FD601A6719A17F6E8EB16E89860E25855 SWAP1 PUSH1 0xA0 ADD PUSH1 0x40 MLOAD DUP1 SWAP2 SUB SWAP1 LOG1 POP POP PUSH1 0x0 DUP1 SLOAD PUSH32 0xFFFFFFFFFFFFFFFFFFFFFFFFFFFFFFFFFFFFFFFFFFFFFFFFFFFFFFFFFFFFFF00 AND PUSH1 0x1 OR SWAP1 SSTORE POP POP JUMP JUMPDEST PUSH20 0xFFFFFFFFFFFFFFFFFFFFFFFFFFFFFFFFFFFFFFFF DUP2 DUP2 AND PUSH1 0x0 SWAP1 DUP2 MSTORE PUSH1 0x2 PUSH1 0x20 DUP2 DUP2 MSTORE PUSH1 0x40 DUP1 DUP5 KECCAK256 DUP2 MLOAD PUSH2 0x140 DUP2 ADD DUP4 MSTORE DUP2 SLOAD PUSH1 0xFF DUP2 AND ISZERO ISZERO DUP1 DUP4 MSTORE PUSH2 0x100 DUP1 DUP4 DIV PUSH11 0xFFFFFFFFFFFFFFFFFFFFFF AND SWAP7 DUP5 ADD SWAP7 SWAP1 SWAP7 MSTORE PUSH13 0x1000000000000000000000000 SWAP1 SWAP2 DIV DUP9 AND SWAP4 DUP3 ADD SWAP4 SWAP1 SWAP4 MSTORE PUSH1 0x1 DUP3 ADD SLOAD DUP8 AND PUSH1 0x60 DUP3 ADD MSTORE SWAP4 DUP2 ADD SLOAD DUP7 AND PUSH1 0x80 DUP6 ADD MSTORE PUSH1 0x3 DUP2 ADD SLOAD DUP7 AND PUSH1 0xA0 DUP6 ADD MSTORE PUSH1 0x4 DUP2 ADD SLOAD PUSH1 0xC0 DUP6 ADD MSTORE PUSH1 0x5 DUP2 ADD SLOAD PUSH1 0xE0 DUP6 ADD MSTORE PUSH1 0x6 DUP2 ADD SLOAD DUP7 AND SWAP3 DUP5 ADD SWAP3 SWAP1 SWAP3 MSTORE PUSH1 0x7 SWAP1 SWAP2 ADD SLOAD SWAP1 SWAP4 AND PUSH2 0x120 DUP3 ADD MSTORE SWAP1 SWAP2 DUP3 SWAP2 DUP3 SWAP2 PUSH2 0x1579 JUMPI PUSH1 0x40 MLOAD PUSH32 0xFB642B4D00000000000000000000000000000000000000000000000000000000 DUP2 MSTORE PUSH20 0xFFFFFFFFFFFFFFFFFFFFFFFFFFFFFFFFFFFFFFFF DUP7 AND PUSH1 0x4 DUP3 ADD MSTORE PUSH1 0x24 ADD PUSH2 0x67A JUMP JUMPDEST PUSH1 0x0 DUP2 PUSH2 0x100 ADD MLOAD PUSH20 0xFFFFFFFFFFFFFFFFFFFFFFFFFFFFFFFFFFFFFFFF AND PUSH4 0xFEAF968C PUSH1 0x40 MLOAD DUP2 PUSH4 0xFFFFFFFF AND PUSH1 0xE0 SHL DUP2 MSTORE PUSH1 0x4 ADD PUSH1 0xA0 PUSH1 0x40 MLOAD DUP1 DUP4 SUB DUP2 DUP7 DUP1 EXTCODESIZE ISZERO DUP1 ISZERO PUSH2 0x15C6 JUMPI PUSH1 0x0 DUP1 REVERT JUMPDEST POP GAS STATICCALL ISZERO DUP1 ISZERO PUSH2 0x15DA JUMPI RETURNDATASIZE PUSH1 0x0 DUP1 RETURNDATACOPY RETURNDATASIZE PUSH1 0x0 REVERT JUMPDEST POP POP POP POP PUSH1 0x40 MLOAD RETURNDATASIZE PUSH1 0x1F NOT PUSH1 0x1F DUP3 ADD AND DUP3 ADD DUP1 PUSH1 0x40 MSTORE POP DUP2 ADD SWAP1 PUSH2 0x15FE SWAP2 SWAP1 PUSH2 0x3E10 JUMP JUMPDEST POP POP POP SWAP2 POP POP PUSH1 0x0 DUP3 PUSH2 0x120 ADD MLOAD PUSH20 0xFFFFFFFFFFFFFFFFFFFFFFFFFFFFFFFFFFFFFFFF AND PUSH4 0xFEAF968C PUSH1 0x40 MLOAD DUP2 PUSH4 0xFFFFFFFF AND PUSH1 0xE0 SHL DUP2 MSTORE PUSH1 0x4 ADD PUSH1 0xA0 PUSH1 0x40 MLOAD DUP1 DUP4 SUB DUP2 DUP7 DUP1 EXTCODESIZE ISZERO DUP1 ISZERO PUSH2 0x1651 JUMPI PUSH1 0x0 DUP1 REVERT JUMPDEST POP GAS STATICCALL ISZERO DUP1 ISZERO PUSH2 0x1665 JUMPI RETURNDATASIZE PUSH1 0x0 DUP1 RETURNDATACOPY RETURNDATASIZE PUSH1 0x0 REVERT JUMPDEST POP POP POP POP PUSH1 0x40 MLOAD RETURNDATASIZE PUSH1 0x1F NOT PUSH1 0x1F DUP3 ADD AND DUP3 ADD DUP1 PUSH1 0x40 MSTORE POP DUP2 ADD SWAP1 PUSH2 0x1689 SWAP2 SWAP1 PUSH2 0x3E10 JUMP JUMPDEST POP POP POP SWAP2 POP POP PUSH1 0x0 PUSH2 0x16A0 DUP5 PUSH2 0x100 ADD MLOAD DUP5 PUSH2 0x202A JUMP JUMPDEST SWAP1 POP PUSH1 0x0 PUSH2 0x16B3 DUP6 PUSH2 0x120 ADD MLOAD DUP5 PUSH2 0x202A JUMP JUMPDEST SWAP1 POP PUSH1 0x0 PUSH2 0x16CB DUP4 DUP8 PUSH1 0xC0 ADD MLOAD DUP5 DUP10 PUSH1 0xE0 ADD MLOAD PUSH2 0x2071 JUMP JUMPDEST SWAP1 POP PUSH2 0x16D7 DUP7 DUP3 PUSH2 0x2475 JUMP JUMPDEST SWAP9 POP SWAP9 POP SWAP9 POP POP POP POP POP POP POP SWAP2 SWAP4 SWAP1 SWAP3 POP JUMP JUMPDEST PUSH1 0x0 SLOAD PUSH1 0xFF AND PUSH2 0x1726 JUMPI PUSH1 0x40 MLOAD PUSH32 0x37ED32E800000000000000000000000000000000000000000000000000000000 DUP2 MSTORE PUSH1 0x4 ADD PUSH1 0x40 MLOAD DUP1 SWAP2 SUB SWAP1 REVERT JUMPDEST PUSH1 0x0 DUP1 SLOAD PUSH32 0xFFFFFFFFFFFFFFFFFFFFFFFFFFFFFFFFFFFFFFFFFFFFFFFFFFFFFFFFFFFFFF00 AND SWAP1 SSTORE PUSH2 0x1756 PUSH2 0x22A4 JUMP JUMPDEST PUSH1 0x5 SLOAD PUSH20 0xFFFFFFFFFFFFFFFFFFFFFFFFFFFFFFFFFFFFFFFF AND PUSH2 0x17C1 JUMPI PUSH1 0x5 SLOAD PUSH1 0x40 MLOAD PUSH32 0xB964881700000000000000000000000000000000000000000000000000000000 DUP2 MSTORE PUSH20 0xFFFFFFFFFFFFFFFFFFFFFFFFFFFFFFFFFFFFFFFF SWAP1 SWAP2 AND PUSH1 0x4 DUP3 ADD MSTORE PUSH1 0x24 ADD PUSH2 0x67A JUMP JUMPDEST PUSH1 0x4 DUP1 SLOAD PUSH1 0x5 DUP1 SLOAD PUSH20 0xFFFFFFFFFFFFFFFFFFFFFFFFFFFFFFFFFFFFFFFF DUP1 DUP3 AND PUSH32 0xFFFFFFFFFFFFFFFFFFFFFFFF0000000000000000000000000000000000000000 DUP1 DUP7 AND DUP3 OR SWAP1 SWAP7 SSTORE SWAP5 SWAP1 SWAP2 AND SWAP1 SWAP2 SSTORE PUSH1 0x40 DUP1 MLOAD SWAP2 SWAP1 SWAP3 AND DUP1 DUP3 MSTORE PUSH1 0x20 DUP3 ADD SWAP4 SWAP1 SWAP4 MSTORE PUSH32 0x5D79527E1742E3CB9A668B777100775A1648A5A8ADEA9C578D164DD2D0908AAC SWAP2 ADD JUMPDEST PUSH1 0x40 MLOAD DUP1 SWAP2 SUB SWAP1 LOG1 POP PUSH1 0x0 DUP1 SLOAD PUSH32 0xFFFFFFFFFFFFFFFFFFFFFFFFFFFFFFFFFFFFFFFFFFFFFFFFFFFFFFFFFFFFFF00 AND PUSH1 0x1 OR SWAP1 SSTORE JUMP JUMPDEST PUSH1 0x0 SLOAD PUSH1 0xFF AND PUSH2 0x18BA JUMPI PUSH1 0x40 MLOAD PUSH32 0x37ED32E800000000000000000000000000000000000000000000000000000000 DUP2 MSTORE PUSH1 0x4 ADD PUSH1 0x40 MLOAD DUP1 SWAP2 SUB SWAP1 REVERT JUMPDEST PUSH1 0x0 DUP1 SLOAD PUSH32 0xFFFFFFFFFFFFFFFFFFFFFFFFFFFFFFFFFFFFFFFFFFFFFFFFFFFFFFFFFFFFFF00 AND SWAP1 SSTORE PUSH2 0x18EA PUSH2 0x22A4 JUMP JUMPDEST PUSH1 0x5 SLOAD PUSH20 0xFFFFFFFFFFFFFFFFFFFFFFFFFFFFFFFFFFFFFFFF DUP3 DUP2 AND SWAP2 AND EQ ISZERO PUSH2 0x1957 JUMPI PUSH1 0x40 MLOAD PUSH32 0x3181DF5200000000000000000000000000000000000000000000000000000000 DUP2 MSTORE PUSH20 0xFFFFFFFFFFFFFFFFFFFFFFFFFFFFFFFFFFFFFFFF DUP3 AND PUSH1 0x4 DUP3 ADD MSTORE PUSH1 0x24 ADD PUSH2 0x67A JUMP JUMPDEST PUSH1 0x5 DUP1 SLOAD PUSH32 0xFFFFFFFFFFFFFFFFFFFFFFFF0000000000000000000000000000000000000000 AND PUSH20 0xFFFFFFFFFFFFFFFFFFFFFFFFFFFFFFFFFFFFFFFF DUP4 DUP2 AND SWAP2 DUP3 OR SWAP1 SWAP3 SSTORE PUSH1 0x4 SLOAD PUSH1 0x40 DUP1 MLOAD SWAP2 SWAP1 SWAP4 AND DUP2 MSTORE PUSH1 0x20 DUP2 ADD SWAP2 SWAP1 SWAP2 MSTORE PUSH32 0xDDC205EECBCB9FD6100D787269A63285115C1E35297B5CD128AA171376B7622 SWAP2 ADD PUSH2 0x1848 JUMP JUMPDEST PUSH20 0xFFFFFFFFFFFFFFFFFFFFFFFFFFFFFFFFFFFFFFFF DUP2 DUP2 AND PUSH1 0x0 SWAP1 DUP2 MSTORE PUSH1 0x2 PUSH1 0x20 DUP2 DUP2 MSTORE PUSH1 0x40 DUP1 DUP5 KECCAK256 DUP2 MLOAD PUSH2 0x140 DUP2 ADD DUP4 MSTORE DUP2 SLOAD PUSH1 0xFF DUP2 AND ISZERO ISZERO DUP1 DUP4 MSTORE PUSH2 0x100 DUP1 DUP4 DIV PUSH11 0xFFFFFFFFFFFFFFFFFFFFFF AND SWAP7 DUP5 ADD SWAP7 SWAP1 SWAP7 MSTORE PUSH13 0x1000000000000000000000000 SWAP1 SWAP2 DIV DUP9 AND SWAP4 DUP3 ADD SWAP4 SWAP1 SWAP4 MSTORE PUSH1 0x1 DUP3 ADD SLOAD DUP8 AND PUSH1 0x60 DUP3 ADD MSTORE SWAP4 DUP2 ADD SLOAD DUP7 AND PUSH1 0x80 DUP6 ADD MSTORE PUSH1 0x3 DUP2 ADD SLOAD DUP7 AND PUSH1 0xA0 DUP6 ADD MSTORE PUSH1 0x4 DUP2 ADD SLOAD PUSH1 0xC0 DUP6 ADD MSTORE PUSH1 0x5 DUP2 ADD SLOAD PUSH1 0xE0 DUP6 ADD MSTORE PUSH1 0x6 DUP2 ADD SLOAD DUP7 AND SWAP3 DUP5 ADD SWAP3 SWAP1 SWAP3 MSTORE PUSH1 0x7 SWAP1 SWAP2 ADD SLOAD SWAP1 SWAP4 AND PUSH2 0x120 DUP3 ADD MSTORE SWAP1 SWAP2 DUP3 SWAP2 SWAP1 PUSH2 0x1AF0 JUMPI PUSH1 0x40 MLOAD PUSH32 0xFB642B4D00000000000000000000000000000000000000000000000000000000 DUP2 MSTORE PUSH20 0xFFFFFFFFFFFFFFFFFFFFFFFFFFFFFFFFFFFFFFFF DUP6 AND PUSH1 0x4 DUP3 ADD MSTORE PUSH1 0x24 ADD PUSH2 0x67A JUMP JUMPDEST PUSH1 0x0 DUP2 PUSH2 0x100 ADD MLOAD PUSH20 0xFFFFFFFFFFFFFFFFFFFFFFFFFFFFFFFFFFFFFFFF AND PUSH4 0xFEAF968C PUSH1 0x40 MLOAD DUP2 PUSH4 0xFFFFFFFF AND PUSH1 0xE0 SHL DUP2 MSTORE PUSH1 0x4 ADD PUSH1 0xA0 PUSH1 0x40 MLOAD DUP1 DUP4 SUB DUP2 DUP7 DUP1 EXTCODESIZE ISZERO DUP1 ISZERO PUSH2 0x1B3D JUMPI PUSH1 0x0 DUP1 REVERT JUMPDEST POP GAS STATICCALL ISZERO DUP1 ISZERO PUSH2 0x1B51 JUMPI RETURNDATASIZE PUSH1 0x0 DUP1 RETURNDATACOPY RETURNDATASIZE PUSH1 0x0 REVERT JUMPDEST POP POP POP POP PUSH1 0x40 MLOAD RETURNDATASIZE PUSH1 0x1F NOT PUSH1 0x1F DUP3 ADD AND DUP3 ADD DUP1 PUSH1 0x40 MSTORE POP DUP2 ADD SWAP1 PUSH2 0x1B75 SWAP2 SWAP1 PUSH2 0x3E10 JUMP JUMPDEST POP POP POP SWAP2 POP POP PUSH1 0x0 DUP3 PUSH2 0x120 ADD MLOAD PUSH20 0xFFFFFFFFFFFFFFFFFFFFFFFFFFFFFFFFFFFFFFFF AND PUSH4 0xFEAF968C PUSH1 0x40 MLOAD DUP2 PUSH4 0xFFFFFFFF AND PUSH1 0xE0 SHL DUP2 MSTORE PUSH1 0x4 ADD PUSH1 0xA0 PUSH1 0x40 MLOAD DUP1 DUP4 SUB DUP2 DUP7 DUP1 EXTCODESIZE ISZERO DUP1 ISZERO PUSH2 0x1BC8 JUMPI PUSH1 0x0 DUP1 REVERT JUMPDEST POP GAS STATICCALL ISZERO DUP1 ISZERO PUSH2 0x1BDC JUMPI RETURNDATASIZE PUSH1 0x0 DUP1 RETURNDATACOPY RETURNDATASIZE PUSH1 0x0 REVERT JUMPDEST POP POP POP POP PUSH1 0x40 MLOAD RETURNDATASIZE PUSH1 0x1F NOT PUSH1 0x1F DUP3 ADD AND DUP3 ADD DUP1 PUSH1 0x40 MSTORE POP DUP2 ADD SWAP1 PUSH2 0x1C00 SWAP2 SWAP1 PUSH2 0x3E10 JUMP JUMPDEST POP POP POP SWAP2 POP POP PUSH1 0x0 PUSH2 0x1C17 DUP5 PUSH2 0x100 ADD MLOAD DUP5 PUSH2 0x202A JUMP JUMPDEST SWAP1 POP PUSH1 0x0 PUSH2 0x1C2A DUP6 PUSH2 0x120 ADD MLOAD DUP5 PUSH2 0x202A JUMP JUMPDEST SWAP1 POP PUSH1 0x0 PUSH2 0x1C42 DUP4 DUP8 PUSH1 0xC0 ADD MLOAD DUP5 DUP10 PUSH1 0xE0 ADD MLOAD PUSH2 0x2071 JUMP JUMPDEST SWAP1 POP PUSH2 0x1C4E DUP7 DUP3 PUSH2 0x20D3 JUMP JUMPDEST SWAP8 POP SWAP8 POP POP POP POP POP POP POP SWAP2 POP SWAP2 JUMP JUMPDEST PUSH1 0x0 DUP1 PUSH32 0x0 PUSH20 0xFFFFFFFFFFFFFFFFFFFFFFFFFFFFFFFFFFFFFFFF AND PUSH4 0xFEAF968C PUSH1 0x40 MLOAD DUP2 PUSH4 0xFFFFFFFF AND PUSH1 0xE0 SHL DUP2 MSTORE PUSH1 0x4 ADD PUSH1 0xA0 PUSH1 0x40 MLOAD DUP1 DUP4 SUB DUP2 DUP7 DUP1 EXTCODESIZE ISZERO DUP1 ISZERO PUSH2 0x1CC6 JUMPI PUSH1 0x0 DUP1 REVERT JUMPDEST POP GAS STATICCALL ISZERO DUP1 ISZERO PUSH2 0x1CDA JUMPI RETURNDATASIZE PUSH1 0x0 DUP1 RETURNDATACOPY RETURNDATASIZE PUSH1 0x0 REVERT JUMPDEST POP POP POP POP PUSH1 0x40 MLOAD RETURNDATASIZE PUSH1 0x1F NOT PUSH1 0x1F DUP3 ADD AND DUP3 ADD DUP1 PUSH1 0x40 MSTORE POP DUP2 ADD SWAP1 PUSH2 0x1CFE SWAP2 SWAP1 PUSH2 0x3E10 JUMP JUMPDEST POP SWAP2 SWAP6 SWAP5 POP POP POP POP POP JUMP JUMPDEST PUSH1 0x0 DUP1 PUSH2 0x1D15 DUP6 PUSH2 0x2612 JUMP JUMPDEST SWAP1 POP PUSH1 0x0 PUSH2 0x1D22 DUP6 PUSH2 0x2612 JUMP JUMPDEST SWAP1 POP PUSH1 0x0 PUSH2 0x1D30 DUP4 DUP4 PUSH2 0x40C8 JUMP JUMPDEST SWAP1 POP PUSH1 0x0 DUP6 PUSH2 0x1D43 PUSH4 0x1E13380 DUP5 PUSH2 0x4056 JUMP JUMPDEST PUSH2 0x1D4D SWAP2 SWAP1 PUSH2 0x3F09 JUMP JUMPDEST SWAP1 POP PUSH1 0x0 PUSH8 0xDE0B6B3A7640000 PUSH2 0x1D63 DUP4 PUSH2 0x266B JUMP JUMPDEST PUSH2 0x1D6D SWAP2 SWAP1 PUSH2 0x40C8 JUMP JUMPDEST SWAP6 POP POP POP POP POP POP JUMPDEST SWAP4 SWAP3 POP POP POP JUMP JUMPDEST PUSH20 0xFFFFFFFFFFFFFFFFFFFFFFFFFFFFFFFFFFFFFFFF DUP2 DUP2 AND PUSH1 0x0 SWAP1 DUP2 MSTORE PUSH1 0x2 PUSH1 0x20 DUP2 DUP2 MSTORE PUSH1 0x40 DUP1 DUP5 KECCAK256 DUP2 MLOAD PUSH2 0x140 DUP2 ADD DUP4 MSTORE DUP2 SLOAD PUSH1 0xFF DUP2 AND ISZERO ISZERO DUP1 DUP4 MSTORE PUSH2 0x100 DUP1 DUP4 DIV PUSH11 0xFFFFFFFFFFFFFFFFFFFFFF AND SWAP7 DUP5 ADD SWAP7 SWAP1 SWAP7 MSTORE PUSH13 0x1000000000000000000000000 SWAP1 SWAP2 DIV DUP9 AND SWAP4 DUP3 ADD SWAP4 SWAP1 SWAP4 MSTORE PUSH1 0x1 DUP3 ADD SLOAD DUP8 AND PUSH1 0x60 DUP3 ADD MSTORE SWAP4 DUP2 ADD SLOAD DUP7 AND PUSH1 0x80 DUP6 ADD MSTORE PUSH1 0x3 DUP2 ADD SLOAD DUP7 AND PUSH1 0xA0 DUP6 ADD MSTORE PUSH1 0x4 DUP2 ADD SLOAD PUSH1 0xC0 DUP6 ADD MSTORE PUSH1 0x5 DUP2 ADD SLOAD PUSH1 0xE0 DUP6 ADD MSTORE PUSH1 0x6 DUP2 ADD SLOAD DUP7 AND SWAP3 DUP5 ADD SWAP3 SWAP1 SWAP3 MSTORE PUSH1 0x7 SWAP1 SWAP2 ADD SLOAD SWAP1 SWAP4 AND PUSH2 0x120 DUP3 ADD MSTORE SWAP1 SWAP2 DUP3 SWAP2 DUP3 SWAP2 PUSH2 0x1E95 JUMPI PUSH1 0x40 MLOAD PUSH32 0xFB642B4D00000000000000000000000000000000000000000000000000000000 DUP2 MSTORE PUSH20 0xFFFFFFFFFFFFFFFFFFFFFFFFFFFFFFFFFFFFFFFF DUP7 AND PUSH1 0x4 DUP3 ADD MSTORE PUSH1 0x24 ADD PUSH2 0x67A JUMP JUMPDEST PUSH1 0x0 DUP2 PUSH2 0x100 ADD MLOAD PUSH20 0xFFFFFFFFFFFFFFFFFFFFFFFFFFFFFFFFFFFFFFFF AND PUSH4 0xFEAF968C PUSH1 0x40 MLOAD DUP2 PUSH4 0xFFFFFFFF AND PUSH1 0xE0 SHL DUP2 MSTORE PUSH1 0x4 ADD PUSH1 0xA0 PUSH1 0x40 MLOAD DUP1 DUP4 SUB DUP2 DUP7 DUP1 EXTCODESIZE ISZERO DUP1 ISZERO PUSH2 0x1EE2 JUMPI PUSH1 0x0 DUP1 REVERT JUMPDEST POP GAS STATICCALL ISZERO DUP1 ISZERO PUSH2 0x1EF6 JUMPI RETURNDATASIZE PUSH1 0x0 DUP1 RETURNDATACOPY RETURNDATASIZE PUSH1 0x0 REVERT JUMPDEST POP POP POP POP PUSH1 0x40 MLOAD RETURNDATASIZE PUSH1 0x1F NOT PUSH1 0x1F DUP3 ADD AND DUP3 ADD DUP1 PUSH1 0x40 MSTORE POP DUP2 ADD SWAP1 PUSH2 0x1F1A SWAP2 SWAP1 PUSH2 0x3E10 JUMP JUMPDEST POP POP POP SWAP2 POP POP PUSH1 0x0 DUP3 PUSH2 0x120 ADD MLOAD PUSH20 0xFFFFFFFFFFFFFFFFFFFFFFFFFFFFFFFFFFFFFFFF AND PUSH4 0xFEAF968C PUSH1 0x40 MLOAD DUP2 PUSH4 0xFFFFFFFF AND PUSH1 0xE0 SHL DUP2 MSTORE PUSH1 0x4 ADD PUSH1 0xA0 PUSH1 0x40 MLOAD DUP1 DUP4 SUB DUP2 DUP7 DUP1 EXTCODESIZE ISZERO DUP1 ISZERO PUSH2 0x1F6D JUMPI PUSH1 0x0 DUP1 REVERT JUMPDEST POP GAS STATICCALL ISZERO DUP1 ISZERO PUSH2 0x1F81 JUMPI RETURNDATASIZE PUSH1 0x0 DUP1 RETURNDATACOPY RETURNDATASIZE PUSH1 0x0 REVERT JUMPDEST POP POP POP POP PUSH1 0x40 MLOAD RETURNDATASIZE PUSH1 0x1F NOT PUSH1 0x1F DUP3 ADD AND DUP3 ADD DUP1 PUSH1 0x40 MSTORE POP DUP2 ADD SWAP1 PUSH2 0x1FA5 SWAP2 SWAP1 PUSH2 0x3E10 JUMP JUMPDEST POP POP POP SWAP2 POP POP PUSH1 0x0 PUSH2 0x1FBC DUP5 PUSH2 0x100 ADD MLOAD DUP5 PUSH2 0x202A JUMP JUMPDEST SWAP1 POP PUSH1 0x0 PUSH2 0x1FCF DUP6 PUSH2 0x120 ADD MLOAD DUP5 PUSH2 0x202A JUMP JUMPDEST SWAP1 POP PUSH1 0x0 PUSH2 0x1FE7 DUP4 DUP8 PUSH1 0xC0 ADD MLOAD DUP5 DUP10 PUSH1 0xE0 ADD MLOAD PUSH2 0x2071 JUMP JUMPDEST SWAP1 POP PUSH2 0x16D7 DUP7 DUP3 PUSH2 0x26DA JUMP JUMPDEST PUSH1 0x3 DUP2 DUP2 SLOAD DUP2 LT PUSH2 0x2003 JUMPI PUSH1 0x0 DUP1 REVERT JUMPDEST PUSH1 0x0 SWAP2 DUP3 MSTORE PUSH1 0x20 SWAP1 SWAP2 KECCAK256 ADD SLOAD PUSH20 0xFFFFFFFFFFFFFFFFFFFFFFFFFFFFFFFFFFFFFFFF AND SWAP1 POP DUP2 JUMP JUMPDEST PUSH20 0xFFFFFFFFFFFFFFFFFFFFFFFFFFFFFFFFFFFFFFFF DUP3 AND PUSH1 0x0 SWAP1 DUP2 MSTORE PUSH1 0x1 PUSH1 0x20 MSTORE PUSH1 0x40 DUP2 KECCAK256 SLOAD DUP1 PUSH1 0x1 EQ ISZERO PUSH2 0x205F JUMPI DUP3 PUSH2 0x2069 JUMP JUMPDEST PUSH2 0x2069 DUP2 DUP5 PUSH2 0x4056 JUMP JUMPDEST SWAP5 SWAP4 POP POP POP POP JUMP JUMPDEST PUSH1 0x0 PUSH1 0x30 PUSH2 0x20C8 PUSH2 0x2083 DUP7 PUSH1 0xA PUSH2 0x3F7E JUMP JUMPDEST PUSH2 0x208D SWAP1 DUP7 PUSH2 0x4056 JUMP JUMPDEST PUSH2 0x2098 DUP6 PUSH1 0xA PUSH2 0x3F7E JUMP JUMPDEST PUSH2 0x20A2 SWAP1 DUP10 PUSH2 0x4056 JUMP JUMPDEST PUSH2 0x20B9 SWAP1 PUSH13 0x1000000000000000000000000 PUSH2 0x4056 JUMP JUMPDEST PUSH2 0x20C3 SWAP2 SWAP1 PUSH2 0x3F09 JUMP JUMPDEST PUSH2 0x27B0 JUMP JUMPDEST SWAP1 SHL SWAP6 SWAP5 POP POP POP POP POP JUMP JUMPDEST PUSH1 0x0 DUP1 PUSH1 0x0 DUP1 PUSH2 0x20E3 DUP7 DUP7 PUSH2 0x2475 JUMP JUMPDEST SWAP3 POP SWAP3 POP POP PUSH1 0x0 DUP1 PUSH2 0x20F5 DUP9 DUP9 PUSH2 0x26DA JUMP JUMPDEST PUSH1 0x80 DUP12 ADD MLOAD PUSH1 0x40 DUP1 DUP14 ADD MLOAD SWAP1 MLOAD PUSH32 0x70A0823100000000000000000000000000000000000000000000000000000000 DUP2 MSTORE PUSH20 0xFFFFFFFFFFFFFFFFFFFFFFFFFFFFFFFFFFFFFFFF SWAP2 DUP3 AND PUSH1 0x4 DUP3 ADD MSTORE SWAP4 SWAP7 POP SWAP2 SWAP5 POP DUP6 SWAP4 POP DUP8 SWAP3 SWAP2 AND SWAP1 PUSH4 0x70A08231 SWAP1 PUSH1 0x24 ADD PUSH1 0x20 PUSH1 0x40 MLOAD DUP1 DUP4 SUB DUP2 DUP7 DUP1 EXTCODESIZE ISZERO DUP1 ISZERO PUSH2 0x2171 JUMPI PUSH1 0x0 DUP1 REVERT JUMPDEST POP GAS STATICCALL ISZERO DUP1 ISZERO PUSH2 0x2185 JUMPI RETURNDATASIZE PUSH1 0x0 DUP1 RETURNDATACOPY RETURNDATASIZE PUSH1 0x0 REVERT JUMPDEST POP POP POP POP PUSH1 0x40 MLOAD RETURNDATASIZE PUSH1 0x1F NOT PUSH1 0x1F DUP3 ADD AND DUP3 ADD DUP1 PUSH1 0x40 MSTORE POP DUP2 ADD SWAP1 PUSH2 0x21A9 SWAP2 SWAP1 PUSH2 0x3DCD JUMP JUMPDEST PUSH2 0x21B3 SWAP2 SWAP1 PUSH2 0x3EF1 JUMP JUMPDEST PUSH2 0x21BD SWAP2 SWAP1 PUSH2 0x3EF1 JUMP JUMPDEST SWAP6 POP DUP1 DUP4 DUP10 PUSH1 0xA0 ADD MLOAD PUSH20 0xFFFFFFFFFFFFFFFFFFFFFFFFFFFFFFFFFFFFFFFF AND PUSH4 0x70A08231 DUP12 PUSH1 0x40 ADD MLOAD PUSH1 0x40 MLOAD DUP3 PUSH4 0xFFFFFFFF AND PUSH1 0xE0 SHL DUP2 MSTORE PUSH1 0x4 ADD PUSH2 0x221E SWAP2 SWAP1 PUSH20 0xFFFFFFFFFFFFFFFFFFFFFFFFFFFFFFFFFFFFFFFF SWAP2 SWAP1 SWAP2 AND DUP2 MSTORE PUSH1 0x20 ADD SWAP1 JUMP JUMPDEST PUSH1 0x20 PUSH1 0x40 MLOAD DUP1 DUP4 SUB DUP2 DUP7 DUP1 EXTCODESIZE ISZERO DUP1 ISZERO PUSH2 0x2236 JUMPI PUSH1 0x0 DUP1 REVERT JUMPDEST POP GAS STATICCALL ISZERO DUP1 ISZERO PUSH2 0x224A JUMPI RETURNDATASIZE PUSH1 0x0 DUP1 RETURNDATACOPY RETURNDATASIZE PUSH1 0x0 REVERT JUMPDEST POP POP POP POP PUSH1 0x40 MLOAD RETURNDATASIZE PUSH1 0x1F NOT PUSH1 0x1F DUP3 ADD AND DUP3 ADD DUP1 PUSH1 0x40 MSTORE POP DUP2 ADD SWAP1 PUSH2 0x226E SWAP2 SWAP1 PUSH2 0x3DCD JUMP JUMPDEST PUSH2 0x2278 SWAP2 SWAP1 PUSH2 0x3EF1 JUMP JUMPDEST PUSH2 0x2282 SWAP2 SWAP1 PUSH2 0x3EF1 JUMP JUMPDEST SWAP5 POP POP POP POP POP SWAP3 POP SWAP3 SWAP1 POP JUMP JUMPDEST PUSH1 0x0 PUSH2 0x1D75 DUP4 PUSH8 0xDE0B6B3A7640000 DUP5 PUSH2 0x2A66 JUMP JUMPDEST PUSH1 0x4 SLOAD PUSH20 0xFFFFFFFFFFFFFFFFFFFFFFFFFFFFFFFFFFFFFFFF AND CALLER PUSH20 0xFFFFFFFFFFFFFFFFFFFFFFFFFFFFFFFFFFFFFFFF AND EQ PUSH2 0x230D JUMPI PUSH1 0x40 MLOAD PUSH32 0x97FCC9E200000000000000000000000000000000000000000000000000000000 DUP2 MSTORE CALLER PUSH1 0x4 DUP3 ADD MSTORE PUSH1 0x24 ADD PUSH2 0x67A JUMP JUMPDEST JUMP JUMPDEST PUSH1 0x0 DUP1 DUP3 PUSH20 0xFFFFFFFFFFFFFFFFFFFFFFFFFFFFFFFFFFFFFFFF AND PUSH4 0x313CE567 PUSH1 0x40 MLOAD DUP2 PUSH4 0xFFFFFFFF AND PUSH1 0xE0 SHL DUP2 MSTORE PUSH1 0x4 ADD PUSH1 0x20 PUSH1 0x40 MLOAD DUP1 DUP4 SUB DUP2 DUP7 DUP1 EXTCODESIZE ISZERO DUP1 ISZERO PUSH2 0x2358 JUMPI PUSH1 0x0 DUP1 REVERT JUMPDEST POP GAS STATICCALL ISZERO DUP1 ISZERO PUSH2 0x236C JUMPI RETURNDATASIZE PUSH1 0x0 DUP1 RETURNDATACOPY RETURNDATASIZE PUSH1 0x0 REVERT JUMPDEST POP POP POP POP PUSH1 0x40 MLOAD RETURNDATASIZE PUSH1 0x1F NOT PUSH1 0x1F DUP3 ADD AND DUP3 ADD DUP1 PUSH1 0x40 MSTORE POP DUP2 ADD SWAP1 PUSH2 0x2390 SWAP2 SWAP1 PUSH2 0x3E5F JUMP JUMPDEST PUSH1 0xFF AND SWAP1 POP DUP1 PUSH2 0x23E4 JUMPI PUSH1 0x40 MLOAD PUSH32 0xFE3C012900000000000000000000000000000000000000000000000000000000 DUP2 MSTORE PUSH20 0xFFFFFFFFFFFFFFFFFFFFFFFFFFFFFFFFFFFFFFFF DUP5 AND PUSH1 0x4 DUP3 ADD MSTORE PUSH1 0x24 ADD PUSH2 0x67A JUMP JUMPDEST PUSH1 0x12 DUP2 GT ISZERO PUSH2 0x243E JUMPI PUSH1 0x40 MLOAD PUSH32 0x96434C7F00000000000000000000000000000000000000000000000000000000 DUP2 MSTORE PUSH20 0xFFFFFFFFFFFFFFFFFFFFFFFFFFFFFFFFFFFFFFFF DUP5 AND PUSH1 0x4 DUP3 ADD MSTORE PUSH1 0x24 DUP2 ADD DUP3 SWAP1 MSTORE PUSH1 0x44 ADD PUSH2 0x67A JUMP JUMPDEST PUSH20 0xFFFFFFFFFFFFFFFFFFFFFFFFFFFFFFFFFFFFFFFF SWAP1 SWAP3 AND PUSH1 0x0 SWAP1 DUP2 MSTORE PUSH1 0x1 PUSH1 0x20 MSTORE PUSH1 0x40 SWAP1 KECCAK256 PUSH1 0x12 SWAP3 SWAP1 SWAP3 SUB PUSH1 0xA EXP SWAP2 DUP3 SWAP1 SSTORE POP SWAP1 JUMP JUMPDEST PUSH1 0x0 DUP1 PUSH1 0x0 DUP1 DUP6 PUSH1 0x40 ADD MLOAD PUSH20 0xFFFFFFFFFFFFFFFFFFFFFFFFFFFFFFFFFFFFFFFF AND PUSH4 0xFA082743 PUSH1 0x40 MLOAD DUP2 PUSH4 0xFFFFFFFF AND PUSH1 0xE0 SHL DUP2 MSTORE PUSH1 0x4 ADD PUSH1 0x20 PUSH1 0x40 MLOAD DUP1 DUP4 SUB DUP2 DUP7 DUP1 EXTCODESIZE ISZERO DUP1 ISZERO PUSH2 0x24C5 JUMPI PUSH1 0x0 DUP1 REVERT JUMPDEST POP GAS STATICCALL ISZERO DUP1 ISZERO PUSH2 0x24D9 JUMPI RETURNDATASIZE PUSH1 0x0 DUP1 RETURNDATACOPY RETURNDATASIZE PUSH1 0x0 REVERT JUMPDEST POP POP POP POP PUSH1 0x40 MLOAD RETURNDATASIZE PUSH1 0x1F NOT PUSH1 0x1F DUP3 ADD AND DUP3 ADD DUP1 PUSH1 0x40 MSTORE POP DUP2 ADD SWAP1 PUSH2 0x24FD SWAP2 SWAP1 PUSH2 0x3D24 JUMP JUMPDEST SWAP1 POP PUSH1 0x0 DUP7 PUSH1 0x40 ADD MLOAD PUSH20 0xFFFFFFFFFFFFFFFFFFFFFFFFFFFFFFFFFFFFFFFF AND PUSH4 0x888A9134 PUSH1 0x40 MLOAD DUP2 PUSH4 0xFFFFFFFF AND PUSH1 0xE0 SHL DUP2 MSTORE PUSH1 0x4 ADD PUSH1 0x20 PUSH1 0x40 MLOAD DUP1 DUP4 SUB DUP2 DUP7 DUP1 EXTCODESIZE ISZERO DUP1 ISZERO PUSH2 0x254B JUMPI PUSH1 0x0 DUP1 REVERT JUMPDEST POP GAS STATICCALL ISZERO DUP1 ISZERO PUSH2 0x255F JUMPI RETURNDATASIZE PUSH1 0x0 DUP1 RETURNDATACOPY RETURNDATASIZE PUSH1 0x0 REVERT JUMPDEST POP POP POP POP PUSH1 0x40 MLOAD RETURNDATASIZE PUSH1 0x1F NOT PUSH1 0x1F DUP3 ADD AND DUP3 ADD DUP1 PUSH1 0x40 MSTORE POP DUP2 ADD SWAP1 PUSH2 0x2583 SWAP2 SWAP1 PUSH2 0x3D24 JUMP JUMPDEST SWAP1 POP PUSH1 0x0 DUP1 PUSH1 0x0 PUSH2 0x259E DUP11 PUSH1 0x40 ADD MLOAD DUP7 DUP7 DUP14 PUSH1 0x60 ADD MLOAD PUSH2 0x2B92 JUMP JUMPDEST SWAP3 POP SWAP3 POP SWAP3 POP PUSH2 0x25B0 DUP10 DUP7 DUP7 DUP7 PUSH2 0x2C4F JUMP JUMPDEST SWAP1 SWAP8 POP SWAP6 POP PUSH2 0x25D1 PUSH16 0xFFFFFFFFFFFFFFFFFFFFFFFFFFFFFFFF DUP4 AND DUP9 PUSH2 0x3EF1 JUMP JUMPDEST SWAP7 POP PUSH2 0x25EF PUSH16 0xFFFFFFFFFFFFFFFFFFFFFFFFFFFFFFFF DUP3 AND DUP8 PUSH2 0x3EF1 JUMP JUMPDEST SWAP6 POP DUP3 PUSH16 0xFFFFFFFFFFFFFFFFFFFFFFFFFFFFFFFF AND SWAP8 POP POP POP POP POP POP SWAP3 POP SWAP3 POP SWAP3 JUMP JUMPDEST PUSH1 0x0 PUSH8 0x14057B7EF767814F PUSH8 0xDE0B6B3A7640000 PUSH2 0x262F DUP5 PUSH2 0x2C7C JUMP JUMPDEST MUL DUP2 PUSH2 0x2664 JUMPI PUSH32 0x4E487B7100000000000000000000000000000000000000000000000000000000 PUSH1 0x0 MSTORE PUSH1 0x12 PUSH1 0x4 MSTORE PUSH1 0x24 PUSH1 0x0 REVERT JUMPDEST DIV SWAP3 SWAP2 POP POP JUMP JUMPDEST PUSH1 0x0 PUSH9 0x736EA4425C11AC631 DUP3 LT PUSH2 0x26B2 JUMPI PUSH1 0x40 MLOAD PUSH32 0x315DA06800000000000000000000000000000000000000000000000000000000 DUP2 MSTORE PUSH1 0x4 DUP2 ADD DUP4 SWAP1 MSTORE PUSH1 0x24 ADD PUSH2 0x67A JUMP JUMPDEST PUSH8 0x14057B7EF767814F DUP3 MUL PUSH2 0x1D75 PUSH8 0xDE0B6B3A7640000 PUSH8 0x6F05B59D3B20000 DUP4 ADD DIV PUSH2 0x2D45 JUMP JUMPDEST PUSH1 0x0 DUP1 PUSH1 0x0 DUP1 DUP6 PUSH1 0x40 ADD MLOAD PUSH20 0xFFFFFFFFFFFFFFFFFFFFFFFFFFFFFFFFFFFFFFFF AND PUSH4 0x51E87AF7 PUSH1 0x40 MLOAD DUP2 PUSH4 0xFFFFFFFF AND PUSH1 0xE0 SHL DUP2 MSTORE PUSH1 0x4 ADD PUSH1 0x20 PUSH1 0x40 MLOAD DUP1 DUP4 SUB DUP2 DUP7 DUP1 EXTCODESIZE ISZERO DUP1 ISZERO PUSH2 0x272A JUMPI PUSH1 0x0 DUP1 REVERT JUMPDEST POP GAS STATICCALL ISZERO DUP1 ISZERO PUSH2 0x273E JUMPI RETURNDATASIZE PUSH1 0x0 DUP1 RETURNDATACOPY RETURNDATASIZE PUSH1 0x0 REVERT JUMPDEST POP POP POP POP PUSH1 0x40 MLOAD RETURNDATASIZE PUSH1 0x1F NOT PUSH1 0x1F DUP3 ADD AND DUP3 ADD DUP1 PUSH1 0x40 MSTORE POP DUP2 ADD SWAP1 PUSH2 0x2762 SWAP2 SWAP1 PUSH2 0x3D24 JUMP JUMPDEST SWAP1 POP PUSH1 0x0 DUP7 PUSH1 0x40 ADD MLOAD PUSH20 0xFFFFFFFFFFFFFFFFFFFFFFFFFFFFFFFFFFFFFFFF AND PUSH4 0xF35BCAC PUSH1 0x40 MLOAD DUP2 PUSH4 0xFFFFFFFF AND PUSH1 0xE0 SHL DUP2 MSTORE PUSH1 0x4 ADD PUSH1 0x20 PUSH1 0x40 MLOAD DUP1 DUP4 SUB DUP2 DUP7 DUP1 EXTCODESIZE ISZERO DUP1 ISZERO PUSH2 0x254B JUMPI PUSH1 0x0 DUP1 REVERT JUMPDEST PUSH1 0x0 DUP2 PUSH2 0x27BF JUMPI POP PUSH1 0x0 SWAP2 SWAP1 POP JUMP JUMPDEST POP PUSH1 0x1 DUP2 PUSH17 0x100000000000000000000000000000000 DUP2 LT PUSH2 0x27E6 JUMPI PUSH1 0x40 SWAP2 SWAP1 SWAP2 SHL SWAP1 PUSH1 0x80 SHR JUMPDEST PUSH9 0x10000000000000000 DUP2 LT PUSH2 0x2801 JUMPI PUSH1 0x20 SWAP2 SWAP1 SWAP2 SHL SWAP1 PUSH1 0x40 SHR JUMPDEST PUSH5 0x100000000 DUP2 LT PUSH2 0x2818 JUMPI PUSH1 0x10 SWAP2 SWAP1 SWAP2 SHL SWAP1 PUSH1 0x20 SHR JUMPDEST PUSH3 0x10000 DUP2 LT PUSH2 0x282D JUMPI PUSH1 0x8 SWAP2 SWAP1 SWAP2 SHL SWAP1 PUSH1 0x10 SHR JUMPDEST PUSH2 0x100 DUP2 LT PUSH2 0x2841 JUMPI PUSH1 0x4 SWAP2 SWAP1 SWAP2 SHL SWAP1 PUSH1 0x8 SHR JUMPDEST PUSH1 0x10 DUP2 LT PUSH2 0x2854 JUMPI PUSH1 0x2 SWAP2 SWAP1 SWAP2 SHL SWAP1 PUSH1 0x4 SHR JUMPDEST PUSH1 0x8 DUP2 LT PUSH2 0x2864 JUMPI PUSH1 0x1 DUP3 SWAP1 SHL SWAP2 POP JUMPDEST PUSH1 0x1 DUP3 DUP5 DUP2 PUSH2 0x289C JUMPI PUSH32 0x4E487B7100000000000000000000000000000000000000000000000000000000 PUSH1 0x0 MSTORE PUSH1 0x12 PUSH1 0x4 MSTORE PUSH1 0x24 PUSH1 0x0 REVERT JUMPDEST DIV DUP4 ADD SWAP1 SHR SWAP2 POP PUSH1 0x1 DUP3 DUP5 DUP2 PUSH2 0x28DB JUMPI PUSH32 0x4E487B7100000000000000000000000000000000000000000000000000000000 PUSH1 0x0 MSTORE PUSH1 0x12 PUSH1 0x4 MSTORE PUSH1 0x24 PUSH1 0x0 REVERT JUMPDEST DIV DUP4 ADD SWAP1 SHR SWAP2 POP PUSH1 0x1 DUP3 DUP5 DUP2 PUSH2 0x291A JUMPI PUSH32 0x4E487B7100000000000000000000000000000000000000000000000000000000 PUSH1 0x0 MSTORE PUSH1 0x12 PUSH1 0x4 MSTORE PUSH1 0x24 PUSH1 0x0 REVERT JUMPDEST DIV DUP4 ADD SWAP1 SHR SWAP2 POP PUSH1 0x1 DUP3 DUP5 DUP2 PUSH2 0x2959 JUMPI PUSH32 0x4E487B7100000000000000000000000000000000000000000000000000000000 PUSH1 0x0 MSTORE PUSH1 0x12 PUSH1 0x4 MSTORE PUSH1 0x24 PUSH1 0x0 REVERT JUMPDEST DIV DUP4 ADD SWAP1 SHR SWAP2 POP PUSH1 0x1 DUP3 DUP5 DUP2 PUSH2 0x2998 JUMPI PUSH32 0x4E487B7100000000000000000000000000000000000000000000000000000000 PUSH1 0x0 MSTORE PUSH1 0x12 PUSH1 0x4 MSTORE PUSH1 0x24 PUSH1 0x0 REVERT JUMPDEST DIV DUP4 ADD SWAP1 SHR SWAP2 POP PUSH1 0x1 DUP3 DUP5 DUP2 PUSH2 0x29D7 JUMPI PUSH32 0x4E487B7100000000000000000000000000000000000000000000000000000000 PUSH1 0x0 MSTORE PUSH1 0x12 PUSH1 0x4 MSTORE PUSH1 0x24 PUSH1 0x0 REVERT JUMPDEST DIV DUP4 ADD SWAP1 SHR SWAP2 POP PUSH1 0x1 DUP3 DUP5 DUP2 PUSH2 0x2A16 JUMPI PUSH32 0x4E487B7100000000000000000000000000000000000000000000000000000000 PUSH1 0x0 MSTORE PUSH1 0x12 PUSH1 0x4 MSTORE PUSH1 0x24 PUSH1 0x0 REVERT JUMPDEST DIV DUP4 ADD SWAP1 SHR SWAP2 POP PUSH1 0x0 DUP3 DUP5 DUP2 PUSH2 0x2A55 JUMPI PUSH32 0x4E487B7100000000000000000000000000000000000000000000000000000000 PUSH1 0x0 MSTORE PUSH1 0x12 PUSH1 0x4 MSTORE PUSH1 0x24 PUSH1 0x0 REVERT JUMPDEST DIV SWAP1 POP DUP1 DUP4 LT ISZERO PUSH2 0x1D75 JUMPI DUP3 PUSH2 0x2069 JUMP JUMPDEST PUSH1 0x0 DUP1 DUP1 PUSH32 0xFFFFFFFFFFFFFFFFFFFFFFFFFFFFFFFFFFFFFFFFFFFFFFFFFFFFFFFFFFFFFFFF DUP6 DUP8 MULMOD DUP6 DUP8 MUL SWAP3 POP DUP3 DUP2 LT DUP4 DUP3 SUB SUB SWAP2 POP POP DUP1 PUSH1 0x0 EQ ISZERO PUSH2 0x2AE6 JUMPI DUP4 DUP3 DUP2 PUSH2 0x2ADC JUMPI PUSH32 0x4E487B7100000000000000000000000000000000000000000000000000000000 PUSH1 0x0 MSTORE PUSH1 0x12 PUSH1 0x4 MSTORE PUSH1 0x24 PUSH1 0x0 REVERT JUMPDEST DIV SWAP3 POP POP POP PUSH2 0x1D75 JUMP JUMPDEST DUP4 DUP2 LT PUSH2 0x2B29 JUMPI PUSH1 0x40 MLOAD PUSH32 0x773CC18C00000000000000000000000000000000000000000000000000000000 DUP2 MSTORE PUSH1 0x4 DUP2 ADD DUP8 SWAP1 MSTORE PUSH1 0x24 DUP2 ADD DUP7 SWAP1 MSTORE PUSH1 0x44 ADD PUSH2 0x67A JUMP JUMPDEST PUSH1 0x0 DUP5 DUP7 DUP9 MULMOD PUSH1 0x2 PUSH1 0x1 DUP8 NOT DUP2 ADD DUP9 AND SWAP8 DUP9 SWAP1 DIV PUSH1 0x3 DUP2 MUL DUP4 XOR DUP1 DUP3 MUL DUP5 SUB MUL DUP1 DUP3 MUL DUP5 SUB MUL DUP1 DUP3 MUL DUP5 SUB MUL DUP1 DUP3 MUL DUP5 SUB MUL DUP1 DUP3 MUL DUP5 SUB MUL SWAP1 DUP2 MUL SWAP1 SWAP3 SUB SWAP1 SWAP2 MUL PUSH1 0x0 DUP9 SWAP1 SUB DUP9 SWAP1 DIV SWAP1 SWAP2 ADD DUP6 DUP4 GT SWAP1 SWAP5 SUB SWAP4 SWAP1 SWAP4 MUL SWAP4 SUB SWAP5 SWAP1 SWAP5 DIV SWAP2 SWAP1 SWAP2 OR MUL SWAP5 SWAP4 POP POP POP POP JUMP JUMPDEST PUSH1 0x0 DUP1 PUSH1 0x0 DUP1 PUSH3 0xFFFFFF DUP7 AND PUSH3 0xFFFFFF DUP9 AND DUP10 PUSH1 0x18 SHL OR PUSH1 0x18 SHL OR SWAP1 POP DUP5 PUSH20 0xFFFFFFFFFFFFFFFFFFFFFFFFFFFFFFFFFFFFFFFF AND PUSH4 0x514EA4BF DUP3 PUSH1 0x40 MLOAD DUP3 PUSH4 0xFFFFFFFF AND PUSH1 0xE0 SHL DUP2 MSTORE PUSH1 0x4 ADD PUSH2 0x2BEA SWAP2 DUP2 MSTORE PUSH1 0x20 ADD SWAP1 JUMP JUMPDEST PUSH1 0xC0 PUSH1 0x40 MLOAD DUP1 DUP4 SUB DUP2 DUP7 DUP1 EXTCODESIZE ISZERO DUP1 ISZERO PUSH2 0x2C02 JUMPI PUSH1 0x0 DUP1 REVERT JUMPDEST POP GAS STATICCALL ISZERO DUP1 ISZERO PUSH2 0x2C16 JUMPI RETURNDATASIZE PUSH1 0x0 DUP1 RETURNDATACOPY RETURNDATASIZE PUSH1 0x0 REVERT JUMPDEST POP POP POP POP PUSH1 0x40 MLOAD RETURNDATASIZE PUSH1 0x1F NOT PUSH1 0x1F DUP3 ADD AND DUP3 ADD DUP1 PUSH1 0x40 MSTORE POP DUP2 ADD SWAP1 PUSH2 0x2C3A SWAP2 SWAP1 PUSH2 0x3D45 JUMP JUMPDEST SWAP5 SWAP14 SWAP1 SWAP13 POP SWAP4 SWAP11 POP SWAP3 SWAP9 POP POP POP POP POP POP POP POP POP JUMP JUMPDEST PUSH1 0x0 DUP1 PUSH2 0x2C6E DUP7 PUSH2 0x2C5F DUP8 PUSH2 0x2DA4 JUMP JUMPDEST PUSH2 0x2C68 DUP8 PUSH2 0x2DA4 JUMP JUMPDEST DUP7 PUSH2 0x3236 JUMP JUMPDEST SWAP2 POP SWAP2 POP JUMPDEST SWAP5 POP SWAP5 SWAP3 POP POP POP JUMP JUMPDEST PUSH1 0x0 PUSH8 0xDE0B6B3A7640000 DUP3 LT ISZERO PUSH2 0x2CC3 JUMPI PUSH1 0x40 MLOAD PUSH32 0xD88504DC00000000000000000000000000000000000000000000000000000000 DUP2 MSTORE PUSH1 0x4 DUP2 ADD DUP4 SWAP1 MSTORE PUSH1 0x24 ADD PUSH2 0x67A JUMP JUMPDEST PUSH1 0x0 PUSH2 0x2CD8 PUSH8 0xDE0B6B3A7640000 DUP5 DIV PUSH2 0x331F JUMP JUMPDEST PUSH8 0xDE0B6B3A7640000 DUP1 DUP3 MUL SWAP4 POP SWAP1 SWAP2 POP DUP4 DUP3 SHR SWAP1 DUP2 EQ ISZERO PUSH2 0x2CFB JUMPI POP POP SWAP2 SWAP1 POP JUMP JUMPDEST PUSH8 0x6F05B59D3B20000 JUMPDEST DUP1 ISZERO PUSH2 0x2D3D JUMPI PUSH8 0xDE0B6B3A7640000 DUP3 DUP1 MUL DIV SWAP2 POP PUSH8 0x1BC16D674EC80000 DUP3 LT PUSH2 0x2D35 JUMPI SWAP3 DUP4 ADD SWAP3 PUSH1 0x1 SWAP2 SWAP1 SWAP2 SHR SWAP1 JUMPDEST PUSH1 0x1 SHR PUSH2 0x2D05 JUMP JUMPDEST POP POP POP SWAP2 SWAP1 POP JUMP JUMPDEST PUSH1 0x0 PUSH9 0xA688906BD8B000000 DUP3 LT PUSH2 0x2D8C JUMPI PUSH1 0x40 MLOAD PUSH32 0x4A4F26F100000000000000000000000000000000000000000000000000000000 DUP2 MSTORE PUSH1 0x4 DUP2 ADD DUP4 SWAP1 MSTORE PUSH1 0x24 ADD PUSH2 0x67A JUMP JUMPDEST PUSH8 0xDE0B6B3A7640000 PUSH1 0x40 DUP4 SWAP1 SHL DIV PUSH2 0x1D75 DUP2 PUSH2 0x3418 JUMP JUMPDEST PUSH1 0x0 DUP1 PUSH1 0x0 DUP4 PUSH1 0x2 SIGNEXTEND SLT PUSH2 0x2DBB JUMPI DUP3 PUSH1 0x2 SIGNEXTEND PUSH2 0x2DC8 JUMP JUMPDEST DUP3 PUSH1 0x2 SIGNEXTEND PUSH2 0x2DC8 SWAP1 PUSH2 0x4153 JUMP JUMPDEST SWAP1 POP PUSH2 0x2DF3 PUSH32 0xFFFFFFFFFFFFFFFFFFFFFFFFFFFFFFFFFFFFFFFFFFFFFFFFFFFFFFFFFFF27618 PUSH2 0x4116 JUMP JUMPDEST PUSH1 0x2 SIGNEXTEND DUP2 GT ISZERO PUSH2 0x2E5F JUMPI PUSH1 0x40 MLOAD PUSH32 0x8C379A000000000000000000000000000000000000000000000000000000000 DUP2 MSTORE PUSH1 0x20 PUSH1 0x4 DUP3 ADD MSTORE PUSH1 0x1 PUSH1 0x24 DUP3 ADD MSTORE PUSH32 0x5400000000000000000000000000000000000000000000000000000000000000 PUSH1 0x44 DUP3 ADD MSTORE PUSH1 0x64 ADD PUSH2 0x67A JUMP JUMPDEST PUSH1 0x0 PUSH1 0x1 DUP3 AND PUSH2 0x2E80 JUMPI PUSH17 0x100000000000000000000000000000000 PUSH2 0x2E92 JUMP JUMPDEST PUSH16 0xFFFCB933BD6FAD37AA2D162D1A594001 JUMPDEST PUSH17 0xFFFFFFFFFFFFFFFFFFFFFFFFFFFFFFFFFF AND SWAP1 POP PUSH1 0x2 DUP3 AND ISZERO PUSH2 0x2ED1 JUMPI PUSH1 0x80 PUSH2 0x2ECC DUP3 PUSH16 0xFFF97272373D413259A46990580E213A PUSH2 0x4056 JUMP JUMPDEST SWAP1 SHR SWAP1 POP JUMPDEST PUSH1 0x4 DUP3 AND ISZERO PUSH2 0x2EFB JUMPI PUSH1 0x80 PUSH2 0x2EF6 DUP3 PUSH16 0xFFF2E50F5F656932EF12357CF3C7FDCC PUSH2 0x4056 JUMP JUMPDEST SWAP1 SHR SWAP1 POP JUMPDEST PUSH1 0x8 DUP3 AND ISZERO PUSH2 0x2F25 JUMPI PUSH1 0x80 PUSH2 0x2F20 DUP3 PUSH16 0xFFE5CACA7E10E4E61C3624EAA0941CD0 PUSH2 0x4056 JUMP JUMPDEST SWAP1 SHR SWAP1 POP JUMPDEST PUSH1 0x10 DUP3 AND ISZERO PUSH2 0x2F4F JUMPI PUSH1 0x80 PUSH2 0x2F4A DUP3 PUSH16 0xFFCB9843D60F6159C9DB58835C926644 PUSH2 0x4056 JUMP JUMPDEST SWAP1 SHR SWAP1 POP JUMPDEST PUSH1 0x20 DUP3 AND ISZERO PUSH2 0x2F79 JUMPI PUSH1 0x80 PUSH2 0x2F74 DUP3 PUSH16 0xFF973B41FA98C081472E6896DFB254C0 PUSH2 0x4056 JUMP JUMPDEST SWAP1 SHR SWAP1 POP JUMPDEST PUSH1 0x40 DUP3 AND ISZERO PUSH2 0x2FA3 JUMPI PUSH1 0x80 PUSH2 0x2F9E DUP3 PUSH16 0xFF2EA16466C96A3843EC78B326B52861 PUSH2 0x4056 JUMP JUMPDEST SWAP1 SHR SWAP1 POP JUMPDEST PUSH1 0x80 DUP3 AND ISZERO PUSH2 0x2FCD JUMPI PUSH1 0x80 PUSH2 0x2FC8 DUP3 PUSH16 0xFE5DEE046A99A2A811C461F1969C3053 PUSH2 0x4056 JUMP JUMPDEST SWAP1 SHR SWAP1 POP JUMPDEST PUSH2 0x100 DUP3 AND ISZERO PUSH2 0x2FF8 JUMPI PUSH1 0x80 PUSH2 0x2FF3 DUP3 PUSH16 0xFCBE86C7900A88AEDCFFC83B479AA3A4 PUSH2 0x4056 JUMP JUMPDEST SWAP1 SHR SWAP1 POP JUMPDEST PUSH2 0x200 DUP3 AND ISZERO PUSH2 0x3023 JUMPI PUSH1 0x80 PUSH2 0x301E DUP3 PUSH16 0xF987A7253AC413176F2B074CF7815E54 PUSH2 0x4056 JUMP JUMPDEST SWAP1 SHR SWAP1 POP JUMPDEST PUSH2 0x400 DUP3 AND ISZERO PUSH2 0x304E JUMPI PUSH1 0x80 PUSH2 0x3049 DUP3 PUSH16 0xF3392B0822B70005940C7A398E4B70F3 PUSH2 0x4056 JUMP JUMPDEST SWAP1 SHR SWAP1 POP JUMPDEST PUSH2 0x800 DUP3 AND ISZERO PUSH2 0x3079 JUMPI PUSH1 0x80 PUSH2 0x3074 DUP3 PUSH16 0xE7159475A2C29B7443B29C7FA6E889D9 PUSH2 0x4056 JUMP JUMPDEST SWAP1 SHR SWAP1 POP JUMPDEST PUSH2 0x1000 DUP3 AND ISZERO PUSH2 0x30A4 JUMPI PUSH1 0x80 PUSH2 0x309F DUP3 PUSH16 0xD097F3BDFD2022B8845AD8F792AA5825 PUSH2 0x4056 JUMP JUMPDEST SWAP1 SHR SWAP1 POP JUMPDEST PUSH2 0x2000 DUP3 AND ISZERO PUSH2 0x30CF JUMPI PUSH1 0x80 PUSH2 0x30CA DUP3 PUSH16 0xA9F746462D870FDF8A65DC1F90E061E5 PUSH2 0x4056 JUMP JUMPDEST SWAP1 SHR SWAP1 POP JUMPDEST PUSH2 0x4000 DUP3 AND ISZERO PUSH2 0x30FA JUMPI PUSH1 0x80 PUSH2 0x30F5 DUP3 PUSH16 0x70D869A156D2A1B890BB3DF62BAF32F7 PUSH2 0x4056 JUMP JUMPDEST SWAP1 SHR SWAP1 POP JUMPDEST PUSH2 0x8000 DUP3 AND ISZERO PUSH2 0x3125 JUMPI PUSH1 0x80 PUSH2 0x3120 DUP3 PUSH16 0x31BE135F97D08FD981231505542FCFA6 PUSH2 0x4056 JUMP JUMPDEST SWAP1 SHR SWAP1 POP JUMPDEST PUSH3 0x10000 DUP3 AND ISZERO PUSH2 0x3151 JUMPI PUSH1 0x80 PUSH2 0x314C DUP3 PUSH16 0x9AA508B5B7A84E1C677DE54F3E99BC9 PUSH2 0x4056 JUMP JUMPDEST SWAP1 SHR SWAP1 POP JUMPDEST PUSH3 0x20000 DUP3 AND ISZERO PUSH2 0x317C JUMPI PUSH1 0x80 PUSH2 0x3177 DUP3 PUSH15 0x5D6AF8DEDB81196699C329225EE604 PUSH2 0x4056 JUMP JUMPDEST SWAP1 SHR SWAP1 POP JUMPDEST PUSH3 0x40000 DUP3 AND ISZERO PUSH2 0x31A6 JUMPI PUSH1 0x80 PUSH2 0x31A1 DUP3 PUSH14 0x2216E584F5FA1EA926041BEDFE98 PUSH2 0x4056 JUMP JUMPDEST SWAP1 SHR SWAP1 POP JUMPDEST PUSH3 0x80000 DUP3 AND ISZERO PUSH2 0x31CE JUMPI PUSH1 0x80 PUSH2 0x31C9 DUP3 PUSH12 0x48A170391F7DC42444E8FA2 PUSH2 0x4056 JUMP JUMPDEST SWAP1 SHR SWAP1 POP JUMPDEST PUSH1 0x0 DUP5 PUSH1 0x2 SIGNEXTEND SGT ISZERO PUSH2 0x3207 JUMPI PUSH2 0x3204 DUP2 PUSH32 0xFFFFFFFFFFFFFFFFFFFFFFFFFFFFFFFFFFFFFFFFFFFFFFFFFFFFFFFFFFFFFFFF PUSH2 0x3F09 JUMP JUMPDEST SWAP1 POP JUMPDEST PUSH2 0x3216 PUSH5 0x100000000 DUP3 PUSH2 0x4102 JUMP JUMPDEST ISZERO PUSH2 0x3222 JUMPI PUSH1 0x1 PUSH2 0x3225 JUMP JUMPDEST PUSH1 0x0 JUMPDEST PUSH2 0x2069 SWAP1 PUSH1 0xFF AND PUSH1 0x20 DUP4 SWAP1 SHR PUSH2 0x3EF1 JUMP JUMPDEST PUSH1 0x0 DUP1 DUP4 PUSH20 0xFFFFFFFFFFFFFFFFFFFFFFFFFFFFFFFFFFFFFFFF AND DUP6 PUSH20 0xFFFFFFFFFFFFFFFFFFFFFFFFFFFFFFFFFFFFFFFF AND GT ISZERO PUSH2 0x3271 JUMPI SWAP3 SWAP4 SWAP3 JUMPDEST DUP5 PUSH20 0xFFFFFFFFFFFFFFFFFFFFFFFFFFFFFFFFFFFFFFFF AND DUP7 PUSH20 0xFFFFFFFFFFFFFFFFFFFFFFFFFFFFFFFFFFFFFFFF AND GT PUSH2 0x32B6 JUMPI PUSH2 0x32AF DUP6 DUP6 DUP6 PUSH2 0x3B28 JUMP JUMPDEST SWAP2 POP PUSH2 0x2C73 JUMP JUMPDEST DUP4 PUSH20 0xFFFFFFFFFFFFFFFFFFFFFFFFFFFFFFFFFFFFFFFF AND DUP7 PUSH20 0xFFFFFFFFFFFFFFFFFFFFFFFFFFFFFFFFFFFFFFFF AND LT ISZERO PUSH2 0x3309 JUMPI PUSH2 0x32F5 DUP7 DUP6 DUP6 PUSH2 0x3B28 JUMP JUMPDEST SWAP2 POP PUSH2 0x3302 DUP6 DUP8 DUP6 PUSH2 0x3BE5 JUMP JUMPDEST SWAP1 POP PUSH2 0x2C73 JUMP JUMPDEST PUSH2 0x3314 DUP6 DUP6 DUP6 PUSH2 0x3BE5 JUMP JUMPDEST SWAP1 POP SWAP5 POP SWAP5 SWAP3 POP POP POP JUMP JUMPDEST PUSH1 0x0 PUSH17 0x100000000000000000000000000000000 DUP3 LT PUSH2 0x334C JUMPI PUSH1 0x80 SWAP2 DUP3 SHR SWAP2 PUSH2 0x3349 SWAP1 DUP3 PUSH2 0x3EF1 JUMP JUMPDEST SWAP1 POP JUMPDEST PUSH9 0x10000000000000000 DUP3 LT PUSH2 0x336F JUMPI PUSH1 0x40 SWAP2 DUP3 SHR SWAP2 PUSH2 0x336C SWAP1 DUP3 PUSH2 0x3EF1 JUMP JUMPDEST SWAP1 POP JUMPDEST PUSH5 0x100000000 DUP3 LT PUSH2 0x338E JUMPI PUSH1 0x20 SWAP2 DUP3 SHR SWAP2 PUSH2 0x338B SWAP1 DUP3 PUSH2 0x3EF1 JUMP JUMPDEST SWAP1 POP JUMPDEST PUSH3 0x10000 DUP3 LT PUSH2 0x33AB JUMPI PUSH1 0x10 SWAP2 DUP3 SHR SWAP2 PUSH2 0x33A8 SWAP1 DUP3 PUSH2 0x3EF1 JUMP JUMPDEST SWAP1 POP JUMPDEST PUSH2 0x100 DUP3 LT PUSH2 0x33C7 JUMPI PUSH1 0x8 SWAP2 DUP3 SHR SWAP2 PUSH2 0x33C4 SWAP1 DUP3 PUSH2 0x3EF1 JUMP JUMPDEST SWAP1 POP JUMPDEST PUSH1 0x10 DUP3 LT PUSH2 0x33E2 JUMPI PUSH1 0x4 SWAP2 DUP3 SHR SWAP2 PUSH2 0x33DF SWAP1 DUP3 PUSH2 0x3EF1 JUMP JUMPDEST SWAP1 POP JUMPDEST PUSH1 0x4 DUP3 LT PUSH2 0x33FD JUMPI PUSH1 0x2 SWAP2 DUP3 SHR SWAP2 PUSH2 0x33FA SWAP1 DUP3 PUSH2 0x3EF1 JUMP JUMPDEST SWAP1 POP JUMPDEST PUSH1 0x2 DUP3 LT PUSH2 0x3413 JUMPI PUSH2 0x3410 PUSH1 0x1 DUP3 PUSH2 0x3EF1 JUMP JUMPDEST SWAP1 POP JUMPDEST SWAP2 SWAP1 POP JUMP JUMPDEST PUSH24 0x800000000000000000000000000000000000000000000000 PUSH8 0x8000000000000000 DUP3 AND ISZERO PUSH2 0x3450 JUMPI PUSH9 0x16A09E667F3BCC909 MUL PUSH1 0x40 SHR JUMPDEST PUSH8 0x4000000000000000 DUP3 AND ISZERO PUSH2 0x346F JUMPI PUSH9 0x1306FE0A31B7152DF MUL PUSH1 0x40 SHR JUMPDEST PUSH8 0x2000000000000000 DUP3 AND ISZERO PUSH2 0x348E JUMPI PUSH9 0x1172B83C7D517ADCE MUL PUSH1 0x40 SHR JUMPDEST PUSH8 0x1000000000000000 DUP3 AND ISZERO PUSH2 0x34AD JUMPI PUSH9 0x10B5586CF9890F62A MUL PUSH1 0x40 SHR JUMPDEST PUSH8 0x800000000000000 DUP3 AND ISZERO PUSH2 0x34CC JUMPI PUSH9 0x1059B0D31585743AE MUL PUSH1 0x40 SHR JUMPDEST PUSH8 0x400000000000000 DUP3 AND ISZERO PUSH2 0x34EB JUMPI PUSH9 0x102C9A3E778060EE7 MUL PUSH1 0x40 SHR JUMPDEST PUSH8 0x200000000000000 DUP3 AND ISZERO PUSH2 0x350A JUMPI PUSH9 0x10163DA9FB33356D8 MUL PUSH1 0x40 SHR JUMPDEST PUSH8 0x100000000000000 DUP3 AND ISZERO PUSH2 0x3529 JUMPI PUSH9 0x100B1AFA5ABCBED61 MUL PUSH1 0x40 SHR JUMPDEST PUSH7 0x80000000000000 DUP3 AND ISZERO PUSH2 0x3547 JUMPI PUSH9 0x10058C86DA1C09EA2 MUL PUSH1 0x40 SHR JUMPDEST PUSH7 0x40000000000000 DUP3 AND ISZERO PUSH2 0x3565 JUMPI PUSH9 0x1002C605E2E8CEC50 MUL PUSH1 0x40 SHR JUMPDEST PUSH7 0x20000000000000 DUP3 AND ISZERO PUSH2 0x3583 JUMPI PUSH9 0x100162F3904051FA1 MUL PUSH1 0x40 SHR JUMPDEST PUSH7 0x10000000000000 DUP3 AND ISZERO PUSH2 0x35A1 JUMPI PUSH9 0x1000B175EFFDC76BA MUL PUSH1 0x40 SHR JUMPDEST PUSH7 0x8000000000000 DUP3 AND ISZERO PUSH2 0x35BF JUMPI PUSH9 0x100058BA01FB9F96D MUL PUSH1 0x40 SHR JUMPDEST PUSH7 0x4000000000000 DUP3 AND ISZERO PUSH2 0x35DD JUMPI PUSH9 0x10002C5CC37DA9492 MUL PUSH1 0x40 SHR JUMPDEST PUSH7 0x2000000000000 DUP3 AND ISZERO PUSH2 0x35FB JUMPI PUSH9 0x1000162E525EE0547 MUL PUSH1 0x40 SHR JUMPDEST PUSH7 0x1000000000000 DUP3 AND ISZERO PUSH2 0x3619 JUMPI PUSH9 0x10000B17255775C04 MUL PUSH1 0x40 SHR JUMPDEST PUSH6 0x800000000000 DUP3 AND ISZERO PUSH2 0x3636 JUMPI PUSH9 0x1000058B91B5BC9AE MUL PUSH1 0x40 SHR JUMPDEST PUSH6 0x400000000000 DUP3 AND ISZERO PUSH2 0x3653 JUMPI PUSH9 0x100002C5C89D5EC6D MUL PUSH1 0x40 SHR JUMPDEST PUSH6 0x200000000000 DUP3 AND ISZERO PUSH2 0x3670 JUMPI PUSH9 0x10000162E43F4F831 MUL PUSH1 0x40 SHR JUMPDEST PUSH6 0x100000000000 DUP3 AND ISZERO PUSH2 0x368D JUMPI PUSH9 0x100000B1721BCFC9A MUL PUSH1 0x40 SHR JUMPDEST PUSH6 0x80000000000 DUP3 AND ISZERO PUSH2 0x36AA JUMPI PUSH9 0x10000058B90CF1E6E MUL PUSH1 0x40 SHR JUMPDEST PUSH6 0x40000000000 DUP3 AND ISZERO PUSH2 0x36C7 JUMPI PUSH9 0x1000002C5C863B73F MUL PUSH1 0x40 SHR JUMPDEST PUSH6 0x20000000000 DUP3 AND ISZERO PUSH2 0x36E4 JUMPI PUSH9 0x100000162E430E5A2 MUL PUSH1 0x40 SHR JUMPDEST PUSH6 0x10000000000 DUP3 AND ISZERO PUSH2 0x3701 JUMPI PUSH9 0x1000000B172183551 MUL PUSH1 0x40 SHR JUMPDEST PUSH5 0x8000000000 DUP3 AND ISZERO PUSH2 0x371D JUMPI PUSH9 0x100000058B90C0B49 MUL PUSH1 0x40 SHR JUMPDEST PUSH5 0x4000000000 DUP3 AND ISZERO PUSH2 0x3739 JUMPI PUSH9 0x10000002C5C8601CC MUL PUSH1 0x40 SHR JUMPDEST PUSH5 0x2000000000 DUP3 AND ISZERO PUSH2 0x3755 JUMPI PUSH9 0x1000000162E42FFF0 MUL PUSH1 0x40 SHR JUMPDEST PUSH5 0x1000000000 DUP3 AND ISZERO PUSH2 0x3771 JUMPI PUSH9 0x10000000B17217FBB MUL PUSH1 0x40 SHR JUMPDEST PUSH5 0x800000000 DUP3 AND ISZERO PUSH2 0x378D JUMPI PUSH9 0x1000000058B90BFCE MUL PUSH1 0x40 SHR JUMPDEST PUSH5 0x400000000 DUP3 AND ISZERO PUSH2 0x37A9 JUMPI PUSH9 0x100000002C5C85FE3 MUL PUSH1 0x40 SHR JUMPDEST PUSH5 0x200000000 DUP3 AND ISZERO PUSH2 0x37C5 JUMPI PUSH9 0x10000000162E42FF1 MUL PUSH1 0x40 SHR JUMPDEST PUSH5 0x100000000 DUP3 AND ISZERO PUSH2 0x37E1 JUMPI PUSH9 0x100000000B17217F8 MUL PUSH1 0x40 SHR JUMPDEST PUSH4 0x80000000 DUP3 AND ISZERO PUSH2 0x37FC JUMPI PUSH9 0x10000000058B90BFC MUL PUSH1 0x40 SHR JUMPDEST PUSH4 0x40000000 DUP3 AND ISZERO PUSH2 0x3817 JUMPI PUSH9 0x1000000002C5C85FE MUL PUSH1 0x40 SHR JUMPDEST PUSH4 0x20000000 DUP3 AND ISZERO PUSH2 0x3832 JUMPI PUSH9 0x100000000162E42FF MUL PUSH1 0x40 SHR JUMPDEST PUSH4 0x10000000 DUP3 AND ISZERO PUSH2 0x384D JUMPI PUSH9 0x1000000000B17217F MUL PUSH1 0x40 SHR JUMPDEST PUSH4 0x8000000 DUP3 AND ISZERO PUSH2 0x3868 JUMPI PUSH9 0x100000000058B90C0 MUL PUSH1 0x40 SHR JUMPDEST PUSH4 0x4000000 DUP3 AND ISZERO PUSH2 0x3883 JUMPI PUSH9 0x10000000002C5C860 MUL PUSH1 0x40 SHR JUMPDEST PUSH4 0x2000000 DUP3 AND ISZERO PUSH2 0x389E JUMPI PUSH9 0x1000000000162E430 MUL PUSH1 0x40 SHR JUMPDEST PUSH4 0x1000000 DUP3 AND ISZERO PUSH2 0x38B9 JUMPI PUSH9 0x10000000000B17218 MUL PUSH1 0x40 SHR JUMPDEST PUSH3 0x800000 DUP3 AND ISZERO PUSH2 0x38D3 JUMPI PUSH9 0x1000000000058B90C MUL PUSH1 0x40 SHR JUMPDEST PUSH3 0x400000 DUP3 AND ISZERO PUSH2 0x38ED JUMPI PUSH9 0x100000000002C5C86 MUL PUSH1 0x40 SHR JUMPDEST PUSH3 0x200000 DUP3 AND ISZERO PUSH2 0x3907 JUMPI PUSH9 0x10000000000162E43 MUL PUSH1 0x40 SHR JUMPDEST PUSH3 0x100000 DUP3 AND ISZERO PUSH2 0x3921 JUMPI PUSH9 0x100000000000B1721 MUL PUSH1 0x40 SHR JUMPDEST PUSH3 0x80000 DUP3 AND ISZERO PUSH2 0x393B JUMPI PUSH9 0x10000000000058B91 MUL PUSH1 0x40 SHR JUMPDEST PUSH3 0x40000 DUP3 AND ISZERO PUSH2 0x3955 JUMPI PUSH9 0x1000000000002C5C8 MUL PUSH1 0x40 SHR JUMPDEST PUSH3 0x20000 DUP3 AND ISZERO PUSH2 0x396F JUMPI PUSH9 0x100000000000162E4 MUL PUSH1 0x40 SHR JUMPDEST PUSH3 0x10000 DUP3 AND ISZERO PUSH2 0x3989 JUMPI PUSH9 0x1000000000000B172 MUL PUSH1 0x40 SHR JUMPDEST PUSH2 0x8000 DUP3 AND ISZERO PUSH2 0x39A2 JUMPI PUSH9 0x100000000000058B9 MUL PUSH1 0x40 SHR JUMPDEST PUSH2 0x4000 DUP3 AND ISZERO PUSH2 0x39BB JUMPI PUSH9 0x10000000000002C5D MUL PUSH1 0x40 SHR JUMPDEST PUSH2 0x2000 DUP3 AND ISZERO PUSH2 0x39D4 JUMPI PUSH9 0x1000000000000162E MUL PUSH1 0x40 SHR JUMPDEST PUSH2 0x1000 DUP3 AND ISZERO PUSH2 0x39ED JUMPI PUSH9 0x10000000000000B17 MUL PUSH1 0x40 SHR JUMPDEST PUSH2 0x800 DUP3 AND ISZERO PUSH2 0x3A06 JUMPI PUSH9 0x1000000000000058C MUL PUSH1 0x40 SHR JUMPDEST PUSH2 0x400 DUP3 AND ISZERO PUSH2 0x3A1F JUMPI PUSH9 0x100000000000002C6 MUL PUSH1 0x40 SHR JUMPDEST PUSH2 0x200 DUP3 AND ISZERO PUSH2 0x3A38 JUMPI PUSH9 0x10000000000000163 MUL PUSH1 0x40 SHR JUMPDEST PUSH2 0x100 DUP3 AND ISZERO PUSH2 0x3A51 JUMPI PUSH9 0x100000000000000B1 MUL PUSH1 0x40 SHR JUMPDEST PUSH1 0x80 DUP3 AND ISZERO PUSH2 0x3A69 JUMPI PUSH9 0x10000000000000059 MUL PUSH1 0x40 SHR JUMPDEST PUSH1 0x40 DUP3 AND ISZERO PUSH2 0x3A81 JUMPI PUSH9 0x1000000000000002C MUL PUSH1 0x40 SHR JUMPDEST PUSH1 0x20 DUP3 AND ISZERO PUSH2 0x3A99 JUMPI PUSH9 0x10000000000000016 MUL PUSH1 0x40 SHR JUMPDEST PUSH1 0x10 DUP3 AND ISZERO PUSH2 0x3AB1 JUMPI PUSH9 0x1000000000000000B MUL PUSH1 0x40 SHR JUMPDEST PUSH1 0x8 DUP3 AND ISZERO PUSH2 0x3AC9 JUMPI PUSH9 0x10000000000000006 MUL PUSH1 0x40 SHR JUMPDEST PUSH1 0x4 DUP3 AND ISZERO PUSH2 0x3AE1 JUMPI PUSH9 0x10000000000000003 MUL PUSH1 0x40 SHR JUMPDEST PUSH1 0x2 DUP3 AND ISZERO PUSH2 0x3AF9 JUMPI PUSH9 0x10000000000000001 MUL PUSH1 0x40 SHR JUMPDEST PUSH1 0x1 DUP3 AND ISZERO PUSH2 0x3B11 JUMPI PUSH9 0x10000000000000001 MUL PUSH1 0x40 SHR JUMPDEST PUSH8 0xDE0B6B3A7640000 MUL PUSH1 0x40 SWAP2 SWAP1 SWAP2 SHR PUSH1 0xBF SUB SHR SWAP1 JUMP JUMPDEST PUSH1 0x0 DUP3 PUSH20 0xFFFFFFFFFFFFFFFFFFFFFFFFFFFFFFFFFFFFFFFF AND DUP5 PUSH20 0xFFFFFFFFFFFFFFFFFFFFFFFFFFFFFFFFFFFFFFFF AND GT ISZERO PUSH2 0x3B62 JUMPI SWAP2 SWAP3 SWAP2 JUMPDEST PUSH20 0xFFFFFFFFFFFFFFFFFFFFFFFFFFFFFFFFFFFFFFFF DUP5 AND PUSH2 0x3BDB PUSH28 0xFFFFFFFFFFFFFFFFFFFFFFFFFFFFFFFF000000000000000000000000 PUSH1 0x60 DUP6 SWAP1 SHL AND PUSH2 0x3BA9 DUP8 DUP8 PUSH2 0x4093 JUMP JUMPDEST PUSH20 0xFFFFFFFFFFFFFFFFFFFFFFFFFFFFFFFFFFFFFFFF AND DUP7 PUSH20 0xFFFFFFFFFFFFFFFFFFFFFFFFFFFFFFFFFFFFFFFF AND PUSH2 0x2A66 JUMP JUMPDEST PUSH2 0x2069 SWAP2 SWAP1 PUSH2 0x3F09 JUMP JUMPDEST PUSH1 0x0 DUP3 PUSH20 0xFFFFFFFFFFFFFFFFFFFFFFFFFFFFFFFFFFFFFFFF AND DUP5 PUSH20 0xFFFFFFFFFFFFFFFFFFFFFFFFFFFFFFFFFFFFFFFF AND GT ISZERO PUSH2 0x3C1F JUMPI SWAP2 SWAP3 SWAP2 JUMPDEST PUSH2 0x2069 PUSH16 0xFFFFFFFFFFFFFFFFFFFFFFFFFFFFFFFF DUP4 AND PUSH2 0x3C3F DUP7 DUP7 PUSH2 0x4093 JUMP JUMPDEST PUSH20 0xFFFFFFFFFFFFFFFFFFFFFFFFFFFFFFFFFFFFFFFF AND PUSH13 0x1000000000000000000000000 PUSH2 0x2A66 JUMP JUMPDEST DUP1 MLOAD PUSH16 0xFFFFFFFFFFFFFFFFFFFFFFFFFFFFFFFF DUP2 AND DUP2 EQ PUSH2 0x3413 JUMPI PUSH1 0x0 DUP1 REVERT JUMPDEST DUP1 MLOAD PUSH10 0xFFFFFFFFFFFFFFFFFFFF DUP2 AND DUP2 EQ PUSH2 0x3413 JUMPI PUSH1 0x0 DUP1 REVERT JUMPDEST PUSH1 0x0 PUSH1 0x20 DUP3 DUP5 SUB SLT ISZERO PUSH2 0x3CB3 JUMPI DUP1 DUP2 REVERT JUMPDEST DUP2 CALLDATALOAD PUSH2 0x1D75 DUP2 PUSH2 0x41E7 JUMP JUMPDEST PUSH1 0x0 PUSH1 0x20 DUP3 DUP5 SUB SLT ISZERO PUSH2 0x3CCF JUMPI DUP1 DUP2 REVERT JUMPDEST DUP2 MLOAD PUSH2 0x1D75 DUP2 PUSH2 0x41E7 JUMP JUMPDEST PUSH1 0x0 DUP1 PUSH1 0x0 PUSH1 0x60 DUP5 DUP7 SUB SLT ISZERO PUSH2 0x3CEE JUMPI DUP2 DUP3 REVERT JUMPDEST DUP4 CALLDATALOAD PUSH2 0x3CF9 DUP2 PUSH2 0x41E7 JUMP JUMPDEST SWAP3 POP PUSH1 0x20 DUP5 ADD CALLDATALOAD PUSH2 0x3D09 DUP2 PUSH2 0x41E7 JUMP JUMPDEST SWAP2 POP PUSH1 0x40 DUP5 ADD CALLDATALOAD PUSH2 0x3D19 DUP2 PUSH2 0x41E7 JUMP JUMPDEST DUP1 SWAP2 POP POP SWAP3 POP SWAP3 POP SWAP3 JUMP JUMPDEST PUSH1 0x0 PUSH1 0x20 DUP3 DUP5 SUB SLT ISZERO PUSH2 0x3D35 JUMPI DUP1 DUP2 REVERT JUMPDEST DUP2 MLOAD DUP1 PUSH1 0x2 SIGNEXTEND DUP2 EQ PUSH2 0x1D75 JUMPI DUP2 DUP3 REVERT JUMPDEST PUSH1 0x0 DUP1 PUSH1 0x0 DUP1 PUSH1 0x0 DUP1 PUSH1 0xC0 DUP8 DUP10 SUB SLT ISZERO PUSH2 0x3D5D JUMPI DUP2 DUP3 REVERT JUMPDEST PUSH2 0x3D66 DUP8 PUSH2 0x3C68 JUMP JUMPDEST SWAP6 POP PUSH1 0x20 DUP8 ADD MLOAD PUSH4 0xFFFFFFFF DUP2 AND DUP2 EQ PUSH2 0x3D7E JUMPI DUP3 DUP4 REVERT JUMPDEST PUSH1 0x40 DUP9 ADD MLOAD PUSH1 0x60 DUP10 ADD MLOAD SWAP2 SWAP7 POP SWAP5 POP SWAP3 POP PUSH2 0x3D9B PUSH1 0x80 DUP9 ADD PUSH2 0x3C68 JUMP JUMPDEST SWAP2 POP PUSH2 0x3DA9 PUSH1 0xA0 DUP9 ADD PUSH2 0x3C68 JUMP JUMPDEST SWAP1 POP SWAP3 SWAP6 POP SWAP3 SWAP6 POP SWAP3 SWAP6 JUMP JUMPDEST PUSH1 0x0 PUSH1 0x20 DUP3 DUP5 SUB SLT ISZERO PUSH2 0x3DC6 JUMPI DUP1 DUP2 REVERT JUMPDEST POP CALLDATALOAD SWAP2 SWAP1 POP JUMP JUMPDEST PUSH1 0x0 PUSH1 0x20 DUP3 DUP5 SUB SLT ISZERO PUSH2 0x3DDE JUMPI DUP1 DUP2 REVERT JUMPDEST POP MLOAD SWAP2 SWAP1 POP JUMP JUMPDEST PUSH1 0x0 DUP1 PUSH1 0x0 PUSH1 0x60 DUP5 DUP7 SUB SLT ISZERO PUSH2 0x3DF9 JUMPI DUP3 DUP4 REVERT JUMPDEST POP POP DUP2 CALLDATALOAD SWAP4 PUSH1 0x20 DUP4 ADD CALLDATALOAD SWAP4 POP PUSH1 0x40 SWAP1 SWAP3 ADD CALLDATALOAD SWAP2 SWAP1 POP JUMP JUMPDEST PUSH1 0x0 DUP1 PUSH1 0x0 DUP1 PUSH1 0x0 PUSH1 0xA0 DUP7 DUP9 SUB SLT ISZERO PUSH2 0x3E27 JUMPI DUP1 DUP2 REVERT JUMPDEST PUSH2 0x3E30 DUP7 PUSH2 0x3C88 JUMP JUMPDEST SWAP5 POP PUSH1 0x20 DUP7 ADD MLOAD SWAP4 POP PUSH1 0x40 DUP7 ADD MLOAD SWAP3 POP PUSH1 0x60 DUP7 ADD MLOAD SWAP2 POP PUSH2 0x3E53 PUSH1 0x80 DUP8 ADD PUSH2 0x3C88 JUMP JUMPDEST SWAP1 POP SWAP3 SWAP6 POP SWAP3 SWAP6 SWAP1 SWAP4 POP JUMP JUMPDEST PUSH1 0x0 PUSH1 0x20 DUP3 DUP5 SUB SLT ISZERO PUSH2 0x3E70 JUMPI DUP1 DUP2 REVERT JUMPDEST DUP2 MLOAD PUSH1 0xFF DUP2 AND DUP2 EQ PUSH2 0x1D75 JUMPI DUP2 DUP3 REVERT JUMPDEST PUSH1 0x0 PUSH1 0x20 DUP1 DUP4 MSTORE DUP4 MLOAD DUP1 DUP3 DUP6 ADD MSTORE DUP3 JUMPDEST DUP2 DUP2 LT ISZERO PUSH2 0x3EAC JUMPI DUP6 DUP2 ADD DUP4 ADD MLOAD DUP6 DUP3 ADD PUSH1 0x40 ADD MSTORE DUP3 ADD PUSH2 0x3E90 JUMP JUMPDEST DUP2 DUP2 GT ISZERO PUSH2 0x3EBD JUMPI DUP4 PUSH1 0x40 DUP4 DUP8 ADD ADD MSTORE JUMPDEST POP PUSH1 0x1F ADD PUSH32 0xFFFFFFFFFFFFFFFFFFFFFFFFFFFFFFFFFFFFFFFFFFFFFFFFFFFFFFFFFFFFFFE0 AND SWAP3 SWAP1 SWAP3 ADD PUSH1 0x40 ADD SWAP4 SWAP3 POP POP POP JUMP JUMPDEST PUSH1 0x0 DUP3 NOT DUP3 GT ISZERO PUSH2 0x3F04 JUMPI PUSH2 0x3F04 PUSH2 0x4189 JUMP JUMPDEST POP ADD SWAP1 JUMP JUMPDEST PUSH1 0x0 DUP3 PUSH2 0x3F18 JUMPI PUSH2 0x3F18 PUSH2 0x41B8 JUMP JUMPDEST POP DIV SWAP1 JUMP JUMPDEST PUSH1 0x1 DUP2 DUP2 JUMPDEST DUP1 DUP6 GT ISZERO PUSH2 0x3F76 JUMPI DUP2 PUSH32 0xFFFFFFFFFFFFFFFFFFFFFFFFFFFFFFFFFFFFFFFFFFFFFFFFFFFFFFFFFFFFFFFF DIV DUP3 GT ISZERO PUSH2 0x3F5C JUMPI PUSH2 0x3F5C PUSH2 0x4189 JUMP JUMPDEST DUP1 DUP6 AND ISZERO PUSH2 0x3F69 JUMPI SWAP2 DUP2 MUL SWAP2 JUMPDEST SWAP4 DUP5 SHR SWAP4 SWAP1 DUP1 MUL SWAP1 PUSH2 0x3F22 JUMP JUMPDEST POP SWAP3 POP SWAP3 SWAP1 POP JUMP JUMPDEST PUSH1 0x0 PUSH2 0x1D75 DUP4 DUP4 PUSH2 0x3F95 JUMP JUMPDEST PUSH1 0x0 PUSH2 0x1D75 PUSH1 0xFF DUP5 AND DUP4 JUMPDEST PUSH1 0x0 DUP3 PUSH2 0x3FA4 JUMPI POP PUSH1 0x1 PUSH2 0x4050 JUMP JUMPDEST DUP2 PUSH2 0x3FB1 JUMPI POP PUSH1 0x0 PUSH2 0x4050 JUMP JUMPDEST DUP2 PUSH1 0x1 DUP2 EQ PUSH2 0x3FC7 JUMPI PUSH1 0x2 DUP2 EQ PUSH2 0x3FD1 JUMPI PUSH2 0x3FED JUMP JUMPDEST PUSH1 0x1 SWAP2 POP POP PUSH2 0x4050 JUMP JUMPDEST PUSH1 0xFF DUP5 GT ISZERO PUSH2 0x3FE2 JUMPI PUSH2 0x3FE2 PUSH2 0x4189 JUMP JUMPDEST POP POP PUSH1 0x1 DUP3 SHL PUSH2 0x4050 JUMP JUMPDEST POP PUSH1 0x20 DUP4 LT PUSH2 0x133 DUP4 LT AND PUSH1 0x4E DUP5 LT PUSH1 0xB DUP5 LT AND OR ISZERO PUSH2 0x4010 JUMPI POP DUP2 DUP2 EXP PUSH2 0x4050 JUMP JUMPDEST PUSH2 0x401A DUP4 DUP4 PUSH2 0x3F1D JUMP JUMPDEST DUP1 PUSH32 0xFFFFFFFFFFFFFFFFFFFFFFFFFFFFFFFFFFFFFFFFFFFFFFFFFFFFFFFFFFFFFFFF DIV DUP3 GT ISZERO PUSH2 0x404C JUMPI PUSH2 0x404C PUSH2 0x4189 JUMP JUMPDEST MUL SWAP1 POP JUMPDEST SWAP3 SWAP2 POP POP JUMP JUMPDEST PUSH1 0x0 DUP2 PUSH32 0xFFFFFFFFFFFFFFFFFFFFFFFFFFFFFFFFFFFFFFFFFFFFFFFFFFFFFFFFFFFFFFFF DIV DUP4 GT DUP3 ISZERO ISZERO AND ISZERO PUSH2 0x408E JUMPI PUSH2 0x408E PUSH2 0x4189 JUMP JUMPDEST POP MUL SWAP1 JUMP JUMPDEST PUSH1 0x0 PUSH20 0xFFFFFFFFFFFFFFFFFFFFFFFFFFFFFFFFFFFFFFFF DUP4 DUP2 AND SWAP1 DUP4 AND DUP2 DUP2 LT ISZERO PUSH2 0x40C0 JUMPI PUSH2 0x40C0 PUSH2 0x4189 JUMP JUMPDEST SUB SWAP4 SWAP3 POP POP POP JUMP JUMPDEST PUSH1 0x0 DUP3 DUP3 LT ISZERO PUSH2 0x40DA JUMPI PUSH2 0x40DA PUSH2 0x4189 JUMP JUMPDEST POP SUB SWAP1 JUMP JUMPDEST PUSH1 0x0 PUSH1 0xFF DUP3 AND PUSH1 0xFF DUP5 AND DUP1 DUP3 LT ISZERO PUSH2 0x40F9 JUMPI PUSH2 0x40F9 PUSH2 0x4189 JUMP JUMPDEST SWAP1 SUB SWAP4 SWAP3 POP POP POP JUMP JUMPDEST PUSH1 0x0 DUP3 PUSH2 0x4111 JUMPI PUSH2 0x4111 PUSH2 0x41B8 JUMP JUMPDEST POP MOD SWAP1 JUMP JUMPDEST PUSH1 0x0 DUP2 PUSH1 0x2 SIGNEXTEND PUSH32 0xFFFFFFFFFFFFFFFFFFFFFFFFFFFFFFFFFFFFFFFFFFFFFFFFFFFFFFFFFF800000 DUP2 EQ ISZERO PUSH2 0x414C JUMPI PUSH2 0x414C PUSH2 0x4189 JUMP JUMPDEST SWAP1 SUB SWAP2 SWAP1 POP JUMP JUMPDEST PUSH1 0x0 PUSH32 0x8000000000000000000000000000000000000000000000000000000000000000 DUP3 EQ ISZERO PUSH2 0x4185 JUMPI PUSH2 0x4185 PUSH2 0x4189 JUMP JUMPDEST SUB SWAP1 JUMP JUMPDEST PUSH32 0x4E487B7100000000000000000000000000000000000000000000000000000000 PUSH1 0x0 MSTORE PUSH1 0x11 PUSH1 0x4 MSTORE PUSH1 0x24 PUSH1 0x0 REVERT JUMPDEST PUSH32 0x4E487B7100000000000000000000000000000000000000000000000000000000 PUSH1 0x0 MSTORE PUSH1 0x12 PUSH1 0x4 MSTORE PUSH1 0x24 PUSH1 0x0 REVERT JUMPDEST PUSH20 0xFFFFFFFFFFFFFFFFFFFFFFFFFFFFFFFFFFFFFFFF DUP2 AND DUP2 EQ PUSH2 0x4209 JUMPI PUSH1 0x0 DUP1 REVERT JUMPDEST POP JUMP INVALID LOG2 PUSH5 0x6970667358 0x22 SLT KECCAK256 PUSH25 0x51ADD39F35C22C8043425E55F1DADDDAD51003DC817132E29E PUSH29 0x2901E1FEBF64736F6C6343000804003300000000000000000000000000 "},"methodIdentifiers":{"SECONDS_PER_YEAR()":"e6a69ab8","admin()":"f851a440","allNebulas(uint256)":"d02c70e8","assetPricesUsd(address)":"193d1da9","decimals()":"313ce567","denominationAggregator()":"8eb6f8f0","denominationPriceUsd()":"6fcd22b9","denominationToken()":"f6b9fdfb","getAnnualizedLogApr(uint256,uint256,uint256)":"8fd1c213","getBasePosition(address)":"5b22d050","getLimitPosition(address)":"a39443f7","getNebula(address)":"f0ac40c4","getTotalAmounts(address)":"6e938406","initializeNebula(address,address,address)":"51fcba9d","lpTokenPriceUsd(address)":"17e5a1a1","name()":"06fdde03","nebulaSize()":"ba3941e7","pendingAdmin()":"26782247","setOracleAdmin()":"62bbb6e0","setOraclePendingAdmin(address)":"65c9b257","symbol()":"95d89b41","version()":"54fd4d50"}}}}}