{
  "_format": "hh-sol-artifact-1",
  "contractName": "CygnusNebulaOracle",
  "sourceName": "contracts/cygnus-oracle/CygnusNebulaOracle.sol",
  "abi": [
    {
      "inputs": [
        {
          "internalType": "contract IERC20",
          "name": "denomination",
          "type": "address"
        },
        {
          "internalType": "contract AggregatorV3Interface",
          "name": "denominationPrice",
          "type": "address"
        }
      ],
      "stateMutability": "nonpayable",
      "type": "constructor"
    },
    {
      "inputs": [
        {
          "internalType": "address",
          "name": "pendingAdmin",
          "type": "address"
        }
      ],
      "name": "CygnusNebulaOracle__AdminCantBeZero",
      "type": "error"
    },
    {
      "inputs": [
        {
          "internalType": "address",
          "name": "msgSender",
          "type": "address"
        }
      ],
      "name": "CygnusNebulaOracle__MsgSenderNotAdmin",
      "type": "error"
    },
    {
      "inputs": [
        {
          "internalType": "address",
          "name": "lpTokenPair",
          "type": "address"
        }
      ],
      "name": "CygnusNebulaOracle__PairAlreadyInitialized",
      "type": "error"
    },
    {
      "inputs": [
        {
          "internalType": "address",
          "name": "lpTokenPair",
          "type": "address"
        }
      ],
      "name": "CygnusNebulaOracle__PairNotInitialized",
      "type": "error"
    },
    {
      "inputs": [
        {
          "internalType": "address",
          "name": "pendingAdmin",
          "type": "address"
        }
      ],
      "name": "CygnusNebulaOracle__PendingAdminAlreadySet",
      "type": "error"
    },
    {
      "inputs": [
        {
          "internalType": "contract IERC20",
          "name": "token",
          "type": "address"
        },
        {
          "internalType": "uint256",
          "name": "decimals",
          "type": "uint256"
        }
      ],
      "name": "IERC20Normalizer__TokenDecimalsGreaterThan18",
      "type": "error"
    },
    {
      "inputs": [
        {
          "internalType": "contract IERC20",
          "name": "token",
          "type": "address"
        }
      ],
      "name": "IERC20Normalizer__TokenDecimalsZero",
      "type": "error"
    },
    {
      "inputs": [
        {
          "internalType": "uint256",
          "name": "x",
          "type": "uint256"
        }
      ],
      "name": "PRBMathUD60x18__Exp2InputTooBig",
      "type": "error"
    },
    {
      "inputs": [
        {
          "internalType": "uint256",
          "name": "x",
          "type": "uint256"
        }
      ],
      "name": "PRBMathUD60x18__ExpInputTooBig",
      "type": "error"
    },
    {
      "inputs": [
        {
          "internalType": "uint256",
          "name": "x",
          "type": "uint256"
        }
      ],
      "name": "PRBMathUD60x18__LogInputTooSmall",
      "type": "error"
    },
    {
      "inputs": [
        {
          "internalType": "uint256",
          "name": "prod1",
          "type": "uint256"
        },
        {
          "internalType": "uint256",
          "name": "denominator",
          "type": "uint256"
        }
      ],
      "name": "PRBMath__MulDivOverflow",
      "type": "error"
    },
    {
      "inputs": [],
      "name": "ReentrantCall",
      "type": "error"
    },
    {
      "anonymous": false,
      "inputs": [
        {
          "indexed": false,
          "internalType": "bool",
          "name": "initialized",
          "type": "bool"
        },
        {
          "indexed": false,
          "internalType": "uint88",
          "name": "oracleId",
          "type": "uint88"
        },
        {
          "indexed": false,
          "internalType": "address",
          "name": "lpTokenPair",
          "type": "address"
        },
        {
          "indexed": false,
          "internalType": "contract IERC20[]",
          "name": "poolTokens",
          "type": "address[]"
        },
        {
          "indexed": false,
          "internalType": "uint256[]",
          "name": "tokenDecimals",
          "type": "uint256[]"
        },
        {
          "indexed": false,
          "internalType": "contract AggregatorV3Interface[]",
          "name": "priceFeeds",
          "type": "address[]"
        }
      ],
      "name": "InitializeCygnusNebula",
      "type": "event"
    },
    {
      "anonymous": false,
      "inputs": [
        {
          "indexed": false,
          "internalType": "address",
          "name": "oracleOldAdmin",
          "type": "address"
        },
        {
          "indexed": false,
          "internalType": "address",
          "name": "oracleNewAdmin",
          "type": "address"
        }
      ],
      "name": "NewOracleAdmin",
      "type": "event"
    },
    {
      "anonymous": false,
      "inputs": [
        {
          "indexed": false,
          "internalType": "address",
          "name": "oracleCurrentAdmin",
          "type": "address"
        },
        {
          "indexed": false,
          "internalType": "address",
          "name": "oraclePendingAdmin",
          "type": "address"
        }
      ],
      "name": "NewOraclePendingAdmin",
      "type": "event"
    },
    {
      "inputs": [],
      "name": "SECONDS_PER_YEAR",
      "outputs": [
        {
          "internalType": "uint256",
          "name": "",
          "type": "uint256"
        }
      ],
      "stateMutability": "view",
      "type": "function"
    },
    {
      "inputs": [],
      "name": "admin",
      "outputs": [
        {
          "internalType": "address",
          "name": "",
          "type": "address"
        }
      ],
      "stateMutability": "view",
      "type": "function"
    },
    {
      "inputs": [
        {
          "internalType": "uint256",
          "name": "",
          "type": "uint256"
        }
      ],
      "name": "allNebulas",
      "outputs": [
        {
          "internalType": "address",
          "name": "",
          "type": "address"
        }
      ],
      "stateMutability": "view",
      "type": "function"
    },
    {
      "inputs": [
        {
          "internalType": "address",
          "name": "lpTokenPair",
          "type": "address"
        }
      ],
      "name": "assetPricesUsd",
      "outputs": [
        {
          "internalType": "uint256",
          "name": "tokenPriceA",
          "type": "uint256"
        },
        {
          "internalType": "uint256",
          "name": "tokenPriceB",
          "type": "uint256"
        }
      ],
      "stateMutability": "view",
      "type": "function"
    },
    {
      "inputs": [],
      "name": "decimals",
      "outputs": [
        {
          "internalType": "uint8",
          "name": "",
          "type": "uint8"
        }
      ],
      "stateMutability": "view",
      "type": "function"
    },
    {
      "inputs": [],
      "name": "denominationAggregator",
      "outputs": [
        {
          "internalType": "contract AggregatorV3Interface",
          "name": "",
          "type": "address"
        }
      ],
      "stateMutability": "view",
      "type": "function"
    },
    {
      "inputs": [],
      "name": "denominationPriceUsd",
      "outputs": [
        {
          "internalType": "uint256",
          "name": "",
          "type": "uint256"
        }
      ],
      "stateMutability": "view",
      "type": "function"
    },
    {
      "inputs": [],
      "name": "denominationToken",
      "outputs": [
        {
          "internalType": "contract IERC20",
          "name": "",
          "type": "address"
        }
      ],
      "stateMutability": "view",
      "type": "function"
    },
    {
      "inputs": [
        {
          "internalType": "uint256",
          "name": "exchangeRateLast",
          "type": "uint256"
        },
        {
          "internalType": "uint256",
          "name": "exchangeRateNow",
          "type": "uint256"
        },
        {
          "internalType": "uint256",
          "name": "timeElapsed",
          "type": "uint256"
        }
      ],
      "name": "getAnnualizedLogApr",
      "outputs": [
        {
          "internalType": "uint256",
          "name": "",
          "type": "uint256"
        }
      ],
      "stateMutability": "pure",
      "type": "function"
    },
    {
      "inputs": [
        {
          "internalType": "address",
          "name": "lpTokenPair",
          "type": "address"
        }
      ],
      "name": "getBasePosition",
      "outputs": [
        {
          "internalType": "uint256",
          "name": "liquidity",
          "type": "uint256"
        },
        {
          "internalType": "uint256",
          "name": "total0",
          "type": "uint256"
        },
        {
          "internalType": "uint256",
          "name": "total1",
          "type": "uint256"
        }
      ],
      "stateMutability": "view",
      "type": "function"
    },
    {
      "inputs": [
        {
          "internalType": "address",
          "name": "lpTokenPair",
          "type": "address"
        }
      ],
      "name": "getLimitPosition",
      "outputs": [
        {
          "internalType": "uint256",
          "name": "liquidity",
          "type": "uint256"
        },
        {
          "internalType": "uint256",
          "name": "total0",
          "type": "uint256"
        },
        {
          "internalType": "uint256",
          "name": "total1",
          "type": "uint256"
        }
      ],
      "stateMutability": "view",
      "type": "function"
    },
    {
      "inputs": [
        {
          "internalType": "address",
          "name": "lpTokenPair",
          "type": "address"
        }
      ],
      "name": "getNebula",
      "outputs": [
        {
          "components": [
            {
              "internalType": "bool",
              "name": "initialized",
              "type": "bool"
            },
            {
              "internalType": "uint88",
              "name": "oracleId",
              "type": "uint88"
            },
            {
              "internalType": "string",
              "name": "name",
              "type": "string"
            },
            {
              "internalType": "address",
              "name": "underlying",
              "type": "address"
            },
            {
              "internalType": "contract IERC20[]",
              "name": "poolTokens",
              "type": "address[]"
            },
            {
              "internalType": "uint256[]",
              "name": "tokenDecimals",
              "type": "uint256[]"
            },
            {
              "internalType": "contract AggregatorV3Interface[]",
              "name": "priceFeeds",
              "type": "address[]"
            }
          ],
          "internalType": "struct ICygnusNebulaOracle.CygnusNebula",
          "name": "",
          "type": "tuple"
        }
      ],
      "stateMutability": "view",
      "type": "function"
    },
    {
      "inputs": [
        {
          "internalType": "address",
          "name": "lpTokenPair",
          "type": "address"
        }
      ],
      "name": "getTotalAmounts",
      "outputs": [
        {
          "internalType": "uint256",
          "name": "total0",
          "type": "uint256"
        },
        {
          "internalType": "uint256",
          "name": "total1",
          "type": "uint256"
        }
      ],
      "stateMutability": "view",
      "type": "function"
    },
    {
      "inputs": [
        {
          "internalType": "address",
          "name": "lpTokenPair",
          "type": "address"
        },
        {
          "internalType": "contract AggregatorV3Interface[]",
          "name": "aggregators",
          "type": "address[]"
        }
      ],
      "name": "initializeNebula",
      "outputs": [],
      "stateMutability": "nonpayable",
      "type": "function"
    },
    {
      "inputs": [
        {
          "internalType": "address",
          "name": "lpTokenPair",
          "type": "address"
        }
      ],
      "name": "lpTokenPriceUsd",
      "outputs": [
        {
          "internalType": "uint256",
          "name": "lpTokenPrice",
          "type": "uint256"
        }
      ],
      "stateMutability": "view",
      "type": "function"
    },
    {
      "inputs": [],
      "name": "name",
      "outputs": [
        {
          "internalType": "string",
          "name": "",
          "type": "string"
        }
      ],
      "stateMutability": "view",
      "type": "function"
    },
    {
      "inputs": [],
      "name": "nebulaSize",
      "outputs": [
        {
          "internalType": "uint24",
          "name": "",
          "type": "uint24"
        }
      ],
      "stateMutability": "view",
      "type": "function"
    },
    {
      "inputs": [],
      "name": "pendingAdmin",
      "outputs": [
        {
          "internalType": "address",
          "name": "",
          "type": "address"
        }
      ],
      "stateMutability": "view",
      "type": "function"
    },
    {
      "inputs": [],
      "name": "setOracleAdmin",
      "outputs": [],
      "stateMutability": "nonpayable",
      "type": "function"
    },
    {
      "inputs": [
        {
          "internalType": "address",
          "name": "newPendingAdmin",
          "type": "address"
        }
      ],
      "name": "setOraclePendingAdmin",
      "outputs": [],
      "stateMutability": "nonpayable",
      "type": "function"
    },
    {
      "inputs": [],
      "name": "symbol",
      "outputs": [
        {
          "internalType": "string",
          "name": "",
          "type": "string"
        }
      ],
      "stateMutability": "view",
      "type": "function"
    },
    {
      "inputs": [],
      "name": "version",
      "outputs": [
        {
          "internalType": "string",
          "name": "",
          "type": "string"
        }
      ],
      "stateMutability": "view",
      "type": "function"
    }
  ],
  "bytecode": "0x60e06040523480156200001157600080fd5b5060405162005f6038038062005f60833981016040819052620000349162000244565b6000805460ff19166001179055620000493390565b600480546001600160a01b0319166001600160a01b03928316178155606084901b6001600160601b0319166080526040805163313ce56760e01b815290519285169263313ce56792828101926020929190829003018186803b158015620000af57600080fd5b505afa158015620000c4573d6000803e3d6000fd5b505050506040513d601f19601f82011682018060405250810190620000ea919062000282565b60f81b7fff000000000000000000000000000000000000000000000000000000000000001660a052606081901b6001600160601b03191660c0526200012f8162000138565b505050620002c5565b600080826001600160a01b031663313ce5676040518163ffffffff1660e01b815260040160206040518083038186803b1580156200017557600080fd5b505afa1580156200018a573d6000803e3d6000fd5b505050506040513d601f19601f82011682018060405250810190620001b0919062000282565b60ff16905080620001e45760405163fe3c012960e01b81526001600160a01b03841660048201526024015b60405180910390fd5b60128111156200021a576040516396434c7f60e01b81526001600160a01b038416600482015260248101829052604401620001db565b6001600160a01b039092166000908152600160205260409020601292909203600a0a918290555090565b6000806040838503121562000257578182fd5b82516200026481620002ac565b60208401519092506200027781620002ac565b809150509250929050565b60006020828403121562000294578081fd5b815160ff81168114620002a5578182fd5b9392505050565b6001600160a01b0381168114620002c257600080fd5b50565b60805160601c60a05160f81c60c05160601c615c2a620003366000396000818161032601528181610b9301528181610c3c0152818161117e015281816112270152612a8601526000818161023801528181610c6801528181611253015261129f015260006104040152615c2a6000f3fe608060405234801561001057600080fd5b50600436106101825760003560e01c80636fcd22b9116100d8578063ba3941e71161008c578063f0ac40c411610066578063f0ac40c4146103df578063f6b9fdfb146103ff578063f851a4401461042657600080fd5b8063ba3941e7146103aa578063d02c70e8146103c1578063e6a69ab8146103d457600080fd5b80638fd1c213116100bd5780638fd1c2131461034857806395d89b411461035b578063a39443f71461039757600080fd5b80636fcd22b9146103195780638eb6f8f01461032157600080fd5b806354fd4d501161013a57806362bbb6e01161011457806362bbb6e0146102eb57806365c9b257146102f35780636e9384061461030657600080fd5b806354fd4d501461026c57806357a4ad7c146102a85780635b22d050146102bd57600080fd5b8063193d1da91161016b578063193d1da9146101c657806326782247146101ee578063313ce5671461023357600080fd5b806306fdde031461018757806317e5a1a1146101a5575b600080fd5b61018f610446565b60405161019c91906156fe565b60405180910390f35b6101b86101b336600461529b565b610462565b60405190815260200161019c565b6101d96101d436600461529b565b610cc3565b6040805192835260208301919091520161019c565b60055461020e9073ffffffffffffffffffffffffffffffffffffffff1681565b60405173ffffffffffffffffffffffffffffffffffffffff909116815260200161019c565b61025a7f000000000000000000000000000000000000000000000000000000000000000081565b60405160ff909116815260200161019c565b61018f6040518060400160405280600581526020017f312e302e3000000000000000000000000000000000000000000000000000000081525081565b6102bb6102b63660046152d3565b6112f2565b005b6102d06102cb36600461529b565b611c57565b6040805193845260208401929092529082015260600161019c565b6102bb6121f9565b6102bb61030136600461529b565b61238d565b6101d961031436600461529b565b6124e7565b6101b8612a81565b61020e7f000000000000000000000000000000000000000000000000000000000000000081565b6101b86103563660046154de565b612b2d565b61018f6040518060400160405280600981526020017f4379674e6562756c61000000000000000000000000000000000000000000000081525081565b6102d06103a536600461529b565b612ba0565b60035460405162ffffff909116815260200161019c565b61020e6103cf3660046154ae565b61312e565b6101b86301e1338081565b6103f26103ed36600461529b565b613165565b60405161019c9190615711565b61020e7f000000000000000000000000000000000000000000000000000000000000000081565b60045461020e9073ffffffffffffffffffffffffffffffffffffffff1681565b604051806060016040528060258152602001615bd06025913981565b73ffffffffffffffffffffffffffffffffffffffff81166000908152600260209081526040808320815160e081018352815460ff81161515825261010090046affffffffffffffffffffff1693810193909352600181018054859493840191906104cb90615a42565b80601f01602080910402602001604051908101604052809291908181526020018280546104f790615a42565b80156105445780601f1061051957610100808354040283529160200191610544565b820191906000526020600020905b81548152906001019060200180831161052757829003601f168201915b5050509183525050600282015473ffffffffffffffffffffffffffffffffffffffff1660208083019190915260038301805460408051828502810185018252828152940193928301828280156105d057602002820191906000526020600020905b815473ffffffffffffffffffffffffffffffffffffffff1681526001909101906020018083116105a5575b505050505081526020016004820180548060200260200160405190810160405280929190818152602001828054801561062857602002820191906000526020600020905b815481526020019060010190808311610614575b505050505081526020016005820180548060200260200160405190810160405280929190818152602001828054801561069757602002820191906000526020600020905b815473ffffffffffffffffffffffffffffffffffffffff16815260019091019060200180831161066c575b505050505081525050905080600001516106fa576040517ffb642b4d00000000000000000000000000000000000000000000000000000000815273ffffffffffffffffffffffffffffffffffffffff841660048201526024015b60405180910390fd5b60008160c0015160008151811061073a577f4e487b7100000000000000000000000000000000000000000000000000000000600052603260045260246000fd5b602002602001015173ffffffffffffffffffffffffffffffffffffffff1663feaf968c6040518163ffffffff1660e01b815260040160a06040518083038186803b15801561078757600080fd5b505afa15801561079b573d6000803e3d6000fd5b505050506040513d601f19601f820116820180604052508101906107bf9190615509565b50505091505060008260c00151600181518110610805577f4e487b7100000000000000000000000000000000000000000000000000000000600052603260045260246000fd5b602002602001015173ffffffffffffffffffffffffffffffffffffffff1663feaf968c6040518163ffffffff1660e01b815260040160a06040518083038186803b15801561085257600080fd5b505afa158015610866573d6000803e3d6000fd5b505050506040513d601f19601f8201168201806040525081019061088a9190615509565b50505091505060006108e18460c001516000815181106108d3577f4e487b7100000000000000000000000000000000000000000000000000000000600052603260045260246000fd5b6020026020010151846133dd565b905060006109268560c001516001815181106108d3577f4e487b7100000000000000000000000000000000000000000000000000000000600052603260045260246000fd5b905060006109c0838760a0015160008151811061096c577f4e487b7100000000000000000000000000000000000000000000000000000000600052603260045260246000fd5b6020026020010151848960a001516001815181106109b3577f4e487b7100000000000000000000000000000000000000000000000000000000600052603260045260246000fd5b6020026020010151613424565b905060008873ffffffffffffffffffffffffffffffffffffffff166316f0115b6040518163ffffffff1660e01b815260040160206040518083038186803b158015610a0a57600080fd5b505afa158015610a1e573d6000803e3d6000fd5b505050506040513d601f19601f82011682018060405250810190610a4291906152b7565b9050600080610a52898486613486565b915091506000610a998a608001516000815181106108d3577f4e487b7100000000000000000000000000000000000000000000000000000000600052603260045260246000fd5b90506000610ade8b608001516001815181106108d3577f4e487b7100000000000000000000000000000000000000000000000000000000600052603260045260246000fd5b905060008d73ffffffffffffffffffffffffffffffffffffffff166318160ddd6040518163ffffffff1660e01b815260040160206040518083038186803b158015610b2857600080fd5b505afa158015610b3c573d6000803e3d6000fd5b505050506040513d601f19601f82011682018060405250810190610b6091906154c6565b9050600081610b6f8a85615966565b610b798c87615966565b610b839190615801565b610b8d9190615819565b905060007f000000000000000000000000000000000000000000000000000000000000000073ffffffffffffffffffffffffffffffffffffffff1663feaf968c6040518163ffffffff1660e01b815260040160a06040518083038186803b158015610bf757600080fd5b505afa158015610c0b573d6000803e3d6000fd5b505050506040513d601f19601f82011682018060405250810190610c2f9190615509565b5050509150506000610c617f0000000000000000000000000000000000000000000000000000000000000000836133dd565b9050610c8e7f000000000000000000000000000000000000000000000000000000000000000060126159ef565b610c9990600a61589a565b610ca384836136c5565b610cad9190615819565b9f50505050505050505050505050505050919050565b73ffffffffffffffffffffffffffffffffffffffff81166000908152600260209081526040808320815160e081018352815460ff81161515825261010090046affffffffffffffffffffff16938101939093526001810180548594859490939290840191610d3090615a42565b80601f0160208091040260200160405190810160405280929190818152602001828054610d5c90615a42565b8015610da95780601f10610d7e57610100808354040283529160200191610da9565b820191906000526020600020905b815481529060010190602001808311610d8c57829003601f168201915b5050509183525050600282015473ffffffffffffffffffffffffffffffffffffffff166020808301919091526003830180546040805182850281018501825282815294019392830182828015610e3557602002820191906000526020600020905b815473ffffffffffffffffffffffffffffffffffffffff168152600190910190602001808311610e0a575b5050505050815260200160048201805480602002602001604051908101604052809291908181526020018280548015610e8d57602002820191906000526020600020905b815481526020019060010190808311610e79575b5050505050815260200160058201805480602002602001604051908101604052809291908181526020018280548015610efc57602002820191906000526020600020905b815473ffffffffffffffffffffffffffffffffffffffff168152600190910190602001808311610ed1575b50505050508152505090508060000151610f5a576040517ffb642b4d00000000000000000000000000000000000000000000000000000000815273ffffffffffffffffffffffffffffffffffffffff851660048201526024016106f1565b60008160c00151600081518110610f9a577f4e487b7100000000000000000000000000000000000000000000000000000000600052603260045260246000fd5b602002602001015173ffffffffffffffffffffffffffffffffffffffff1663feaf968c6040518163ffffffff1660e01b815260040160a06040518083038186803b158015610fe757600080fd5b505afa158015610ffb573d6000803e3d6000fd5b505050506040513d601f19601f8201168201806040525081019061101f9190615509565b50505091505060008260c00151600181518110611065577f4e487b7100000000000000000000000000000000000000000000000000000000600052603260045260246000fd5b602002602001015173ffffffffffffffffffffffffffffffffffffffff1663feaf968c6040518163ffffffff1660e01b815260040160a06040518083038186803b1580156110b257600080fd5b505afa1580156110c6573d6000803e3d6000fd5b505050506040513d601f19601f820116820180604052508101906110ea9190615509565b50505091505060006111338460c001516000815181106108d3577f4e487b7100000000000000000000000000000000000000000000000000000000600052603260045260246000fd5b905060006111788560c001516001815181106108d3577f4e487b7100000000000000000000000000000000000000000000000000000000600052603260045260246000fd5b905060007f000000000000000000000000000000000000000000000000000000000000000073ffffffffffffffffffffffffffffffffffffffff1663feaf968c6040518163ffffffff1660e01b815260040160a06040518083038186803b1580156111e257600080fd5b505afa1580156111f6573d6000803e3d6000fd5b505050506040513d601f19601f8201168201806040525081019061121a9190615509565b505050915050600061124c7f0000000000000000000000000000000000000000000000000000000000000000836133dd565b90506112797f000000000000000000000000000000000000000000000000000000000000000060126159ef565b61128490600a61589a565b61128e85836136c5565b6112989190615819565b98506112c57f000000000000000000000000000000000000000000000000000000000000000060126159ef565b6112d090600a61589a565b6112da84836136c5565b6112e49190615819565b975050505050505050915091565b60005460ff1661132e576040517f37ed32e800000000000000000000000000000000000000000000000000000000815260040160405180910390fd5b600080547fffffffffffffffffffffffffffffffffffffffffffffffffffffffffffffff0016905561135e6136da565b73ffffffffffffffffffffffffffffffffffffffff83166000908152600260205260409020805460ff16156113d7576040517f48a979dc00000000000000000000000000000000000000000000000000000000815273ffffffffffffffffffffffffffffffffffffffff851660048201526024016106f1565b60008267ffffffffffffffff811115611419577f4e487b7100000000000000000000000000000000000000000000000000000000600052604160045260246000fd5b604051908082528060200260200182016040528015611442578160200160208202803683370190505b50905060008367ffffffffffffffff811115611487577f4e487b7100000000000000000000000000000000000000000000000000000000600052604160045260246000fd5b6040519080825280602002602001820160405280156114b0578160200160208202803683370190505b5090508573ffffffffffffffffffffffffffffffffffffffff16630dfe16816040518163ffffffff1660e01b815260040160206040518083038186803b1580156114f957600080fd5b505afa15801561150d573d6000803e3d6000fd5b505050506040513d601f19601f8201168201806040525081019061153191906152b7565b8260008151811061156b577f4e487b7100000000000000000000000000000000000000000000000000000000600052603260045260246000fd5b602002602001019073ffffffffffffffffffffffffffffffffffffffff16908173ffffffffffffffffffffffffffffffffffffffff16815250508573ffffffffffffffffffffffffffffffffffffffff1663d21220a76040518163ffffffff1660e01b815260040160206040518083038186803b1580156115eb57600080fd5b505afa1580156115ff573d6000803e3d6000fd5b505050506040513d601f19601f8201168201806040525081019061162391906152b7565b8260018151811061165d577f4e487b7100000000000000000000000000000000000000000000000000000000600052603260045260246000fd5b602002602001019073ffffffffffffffffffffffffffffffffffffffff16908173ffffffffffffffffffffffffffffffffffffffff16815250506116e1826000815181106116d4577f4e487b7100000000000000000000000000000000000000000000000000000000600052603260045260246000fd5b6020026020010151613745565b5061171f826001815181106116d4577f4e487b7100000000000000000000000000000000000000000000000000000000600052603260045260246000fd5b506117778585600081811061175d577f4e487b7100000000000000000000000000000000000000000000000000000000600052603260045260246000fd5b9050602002016020810190611772919061529b565b613745565b506117b58585600181811061175d577f4e487b7100000000000000000000000000000000000000000000000000000000600052603260045260246000fd5b50816000815181106117f0577f4e487b7100000000000000000000000000000000000000000000000000000000600052603260045260246000fd5b602002602001015173ffffffffffffffffffffffffffffffffffffffff1663313ce5676040518163ffffffff1660e01b815260040160206040518083038186803b15801561183d57600080fd5b505afa158015611851573d6000803e3d6000fd5b505050506040513d601f19601f820116820180604052508101906118759190615558565b60ff16816000815181106118b2577f4e487b7100000000000000000000000000000000000000000000000000000000600052603260045260246000fd5b602002602001018181525050816001815181106118f8577f4e487b7100000000000000000000000000000000000000000000000000000000600052603260045260246000fd5b602002602001015173ffffffffffffffffffffffffffffffffffffffff1663313ce5676040518163ffffffff1660e01b815260040160206040518083038186803b15801561194557600080fd5b505afa158015611959573d6000803e3d6000fd5b505050506040513d601f19601f8201168201806040525081019061197d9190615558565b60ff16816001815181106119ba577f4e487b7100000000000000000000000000000000000000000000000000000000600052603260045260246000fd5b602090810291909101015260035462ffffff168360000160016101000a8154816affffffffffffffffffffff02191690836affffffffffffffffffffff1602179055508573ffffffffffffffffffffffffffffffffffffffff166306fdde036040518163ffffffff1660e01b815260040160006040518083038186803b158015611a4357600080fd5b505afa158015611a57573d6000803e3d6000fd5b505050506040513d6000823e601f3d9081017fffffffffffffffffffffffffffffffffffffffffffffffffffffffffffffffe0168201604052611a9d9190810190615377565b8051611ab391600186019160209091019061509c565b506002830180547fffffffffffffffffffffffff00000000000000000000000000000000000000001673ffffffffffffffffffffffffffffffffffffffff88161790558151611b0b9060038501906020850190615120565b50611b1a60058401868661519a565b508051611b309060048501906020840190615212565b50825460017fffffffffffffffffffffffffffffffffffffffffffffffffffffffffffffff00909116811784556003805480830182556000919091527fc2575a0e9e593c00f959f8c92f12db2869c3395a3b0502d05e2516446f71f85b0180547fffffffffffffffffffffffff00000000000000000000000000000000000000001673ffffffffffffffffffffffffffffffffffffffff891617905583546040517f540ddb7cc823b3d17a12d65e9225ce7287eb0140008b50e7720ea95ad28ea1e392611c1c9290916101009091046affffffffffffffffffffff16908a90879087908c908c90615642565b60405180910390a15050600080547fffffffffffffffffffffffffffffffffffffffffffffffffffffffffffffff0016600117905550505050565b73ffffffffffffffffffffffffffffffffffffffff81166000908152600260209081526040808320815160e081018352815460ff81161515825261010090046affffffffffffffffffffff1693810193909352600181018054859485948594919391929084019190611cc890615a42565b80601f0160208091040260200160405190810160405280929190818152602001828054611cf490615a42565b8015611d415780601f10611d1657610100808354040283529160200191611d41565b820191906000526020600020905b815481529060010190602001808311611d2457829003601f168201915b5050509183525050600282015473ffffffffffffffffffffffffffffffffffffffff166020808301919091526003830180546040805182850281018501825282815294019392830182828015611dcd57602002820191906000526020600020905b815473ffffffffffffffffffffffffffffffffffffffff168152600190910190602001808311611da2575b5050505050815260200160048201805480602002602001604051908101604052809291908181526020018280548015611e2557602002820191906000526020600020905b815481526020019060010190808311611e11575b5050505050815260200160058201805480602002602001604051908101604052809291908181526020018280548015611e9457602002820191906000526020600020905b815473ffffffffffffffffffffffffffffffffffffffff168152600190910190602001808311611e69575b50505050508152505090508060000151611ef2576040517ffb642b4d00000000000000000000000000000000000000000000000000000000815273ffffffffffffffffffffffffffffffffffffffff861660048201526024016106f1565b60008160c00151600081518110611f32577f4e487b7100000000000000000000000000000000000000000000000000000000600052603260045260246000fd5b602002602001015173ffffffffffffffffffffffffffffffffffffffff1663feaf968c6040518163ffffffff1660e01b815260040160a06040518083038186803b158015611f7f57600080fd5b505afa158015611f93573d6000803e3d6000fd5b505050506040513d601f19601f82011682018060405250810190611fb79190615509565b50505091505060008260c00151600181518110611ffd577f4e487b7100000000000000000000000000000000000000000000000000000000600052603260045260246000fd5b602002602001015173ffffffffffffffffffffffffffffffffffffffff1663feaf968c6040518163ffffffff1660e01b815260040160a06040518083038186803b15801561204a57600080fd5b505afa15801561205e573d6000803e3d6000fd5b505050506040513d601f19601f820116820180604052508101906120829190615509565b50505091505060006120cb8460c001516000815181106108d3577f4e487b7100000000000000000000000000000000000000000000000000000000600052603260045260246000fd5b905060006121108560c001516001815181106108d3577f4e487b7100000000000000000000000000000000000000000000000000000000600052603260045260246000fd5b90506000612156838760a0015160008151811061096c577f4e487b7100000000000000000000000000000000000000000000000000000000600052603260045260246000fd5b905060008a73ffffffffffffffffffffffffffffffffffffffff166316f0115b6040518163ffffffff1660e01b815260040160206040518083038186803b1580156121a057600080fd5b505afa1580156121b4573d6000803e3d6000fd5b505050506040513d601f19601f820116820180604052508101906121d891906152b7565b90506121e58782846138ab565b995099509950505050505050509193909250565b60005460ff16612235576040517f37ed32e800000000000000000000000000000000000000000000000000000000815260040160405180910390fd5b600080547fffffffffffffffffffffffffffffffffffffffffffffffffffffffffffffff001690556122656136da565b60055473ffffffffffffffffffffffffffffffffffffffff166122d0576005546040517fb964881700000000000000000000000000000000000000000000000000000000815273ffffffffffffffffffffffffffffffffffffffff90911660048201526024016106f1565b600480546005805473ffffffffffffffffffffffffffffffffffffffff8082167fffffffffffffffffffffffff0000000000000000000000000000000000000000808616821790965594909116909155604080519190921680825260208201939093527f5d79527e1742e3cb9a668b777100775a1648a5a8adea9c578d164dd2d0908aac91015b60405180910390a150600080547fffffffffffffffffffffffffffffffffffffffffffffffffffffffffffffff00166001179055565b60005460ff166123c9576040517f37ed32e800000000000000000000000000000000000000000000000000000000815260040160405180910390fd5b600080547fffffffffffffffffffffffffffffffffffffffffffffffffffffffffffffff001690556123f96136da565b60055473ffffffffffffffffffffffffffffffffffffffff82811691161415612466576040517f3181df5200000000000000000000000000000000000000000000000000000000815273ffffffffffffffffffffffffffffffffffffffff821660048201526024016106f1565b600580547fffffffffffffffffffffffff00000000000000000000000000000000000000001673ffffffffffffffffffffffffffffffffffffffff8381169182179092556004546040805191909316815260208101919091527f0ddc205eecbcb9fd6100d787269a63285115c1e35297b5cd128aa171376b76229101612357565b73ffffffffffffffffffffffffffffffffffffffff81166000908152600260209081526040808320815160e081018352815460ff81161515825261010090046affffffffffffffffffffff1693810193909352600181018054859485949093929084019161255490615a42565b80601f016020809104026020016040519081016040528092919081815260200182805461258090615a42565b80156125cd5780601f106125a2576101008083540402835291602001916125cd565b820191906000526020600020905b8154815290600101906020018083116125b057829003601f168201915b5050509183525050600282015473ffffffffffffffffffffffffffffffffffffffff16602080830191909152600383018054604080518285028101850182528281529401939283018282801561265957602002820191906000526020600020905b815473ffffffffffffffffffffffffffffffffffffffff16815260019091019060200180831161262e575b50505050508152602001600482018054806020026020016040519081016040528092919081815260200182805480156126b157602002820191906000526020600020905b81548152602001906001019080831161269d575b505050505081526020016005820180548060200260200160405190810160405280929190818152602001828054801561272057602002820191906000526020600020905b815473ffffffffffffffffffffffffffffffffffffffff1681526001909101906020018083116126f5575b5050505050815250509050806000015161277e576040517ffb642b4d00000000000000000000000000000000000000000000000000000000815273ffffffffffffffffffffffffffffffffffffffff851660048201526024016106f1565b60008160c001516000815181106127be577f4e487b7100000000000000000000000000000000000000000000000000000000600052603260045260246000fd5b602002602001015173ffffffffffffffffffffffffffffffffffffffff1663feaf968c6040518163ffffffff1660e01b815260040160a06040518083038186803b15801561280b57600080fd5b505afa15801561281f573d6000803e3d6000fd5b505050506040513d601f19601f820116820180604052508101906128439190615509565b50505091505060008260c00151600181518110612889577f4e487b7100000000000000000000000000000000000000000000000000000000600052603260045260246000fd5b602002602001015173ffffffffffffffffffffffffffffffffffffffff1663feaf968c6040518163ffffffff1660e01b815260040160a06040518083038186803b1580156128d657600080fd5b505afa1580156128ea573d6000803e3d6000fd5b505050506040513d601f19601f8201168201806040525081019061290e9190615509565b50505091505060006129578460c001516000815181106108d3577f4e487b7100000000000000000000000000000000000000000000000000000000600052603260045260246000fd5b9050600061299c8560c001516001815181106108d3577f4e487b7100000000000000000000000000000000000000000000000000000000600052603260045260246000fd5b905060006129e2838760a0015160008151811061096c577f4e487b7100000000000000000000000000000000000000000000000000000000600052603260045260246000fd5b905060008973ffffffffffffffffffffffffffffffffffffffff166316f0115b6040518163ffffffff1660e01b815260040160206040518083038186803b158015612a2c57600080fd5b505afa158015612a40573d6000803e3d6000fd5b505050506040513d601f19601f82011682018060405250810190612a6491906152b7565b9050612a71878284613486565b9850985050505050505050915091565b6000807f000000000000000000000000000000000000000000000000000000000000000073ffffffffffffffffffffffffffffffffffffffff1663feaf968c6040518163ffffffff1660e01b815260040160a06040518083038186803b158015612aea57600080fd5b505afa158015612afe573d6000803e3d6000fd5b505050506040513d601f19601f82011682018060405250810190612b229190615509565b509195945050505050565b600080612b3985613a46565b90506000612b4685613a46565b90506000612b5483836159d8565b9050600085612b676301e1338084615966565b612b719190615819565b90506000670de0b6b3a7640000612b8783613a9f565b612b9191906159d8565b955050505050505b9392505050565b73ffffffffffffffffffffffffffffffffffffffff81166000908152600260209081526040808320815160e081018352815460ff81161515825261010090046affffffffffffffffffffff1693810193909352600181018054859485948594919391929084019190612c1190615a42565b80601f0160208091040260200160405190810160405280929190818152602001828054612c3d90615a42565b8015612c8a5780601f10612c5f57610100808354040283529160200191612c8a565b820191906000526020600020905b815481529060010190602001808311612c6d57829003601f168201915b5050509183525050600282015473ffffffffffffffffffffffffffffffffffffffff166020808301919091526003830180546040805182850281018501825282815294019392830182828015612d1657602002820191906000526020600020905b815473ffffffffffffffffffffffffffffffffffffffff168152600190910190602001808311612ceb575b5050505050815260200160048201805480602002602001604051908101604052809291908181526020018280548015612d6e57602002820191906000526020600020905b815481526020019060010190808311612d5a575b5050505050815260200160058201805480602002602001604051908101604052809291908181526020018280548015612ddd57602002820191906000526020600020905b815473ffffffffffffffffffffffffffffffffffffffff168152600190910190602001808311612db2575b50505050508152505090508060000151612e3b576040517ffb642b4d00000000000000000000000000000000000000000000000000000000815273ffffffffffffffffffffffffffffffffffffffff861660048201526024016106f1565b60008160c00151600081518110612e7b577f4e487b7100000000000000000000000000000000000000000000000000000000600052603260045260246000fd5b602002602001015173ffffffffffffffffffffffffffffffffffffffff1663feaf968c6040518163ffffffff1660e01b815260040160a06040518083038186803b158015612ec857600080fd5b505afa158015612edc573d6000803e3d6000fd5b505050506040513d601f19601f82011682018060405250810190612f009190615509565b50505091505060008260c00151600181518110612f46577f4e487b7100000000000000000000000000000000000000000000000000000000600052603260045260246000fd5b602002602001015173ffffffffffffffffffffffffffffffffffffffff1663feaf968c6040518163ffffffff1660e01b815260040160a06040518083038186803b158015612f9357600080fd5b505afa158015612fa7573d6000803e3d6000fd5b505050506040513d601f19601f82011682018060405250810190612fcb9190615509565b50505091505060006130148460c001516000815181106108d3577f4e487b7100000000000000000000000000000000000000000000000000000000600052603260045260246000fd5b905060006130598560c001516001815181106108d3577f4e487b7100000000000000000000000000000000000000000000000000000000600052603260045260246000fd5b9050600061309f838760a0015160008151811061096c577f4e487b7100000000000000000000000000000000000000000000000000000000600052603260045260246000fd5b905060008a73ffffffffffffffffffffffffffffffffffffffff166316f0115b6040518163ffffffff1660e01b815260040160206040518083038186803b1580156130e957600080fd5b505afa1580156130fd573d6000803e3d6000fd5b505050506040513d601f19601f8201168201806040525081019061312191906152b7565b90506121e5878284613b0e565b6003818154811061313e57600080fd5b60009182526020909120015473ffffffffffffffffffffffffffffffffffffffff16905081565b6040805160e080820183526000808352602080840182905260608486018190528085018390526080850181905260a0850181905260c085015273ffffffffffffffffffffffffffffffffffffffff86168252600281529084902084519283018552805460ff81161515845261010090046affffffffffffffffffffff169183019190915260018101805493949293919284019161320190615a42565b80601f016020809104026020016040519081016040528092919081815260200182805461322d90615a42565b801561327a5780601f1061324f5761010080835404028352916020019161327a565b820191906000526020600020905b81548152906001019060200180831161325d57829003601f168201915b5050509183525050600282015473ffffffffffffffffffffffffffffffffffffffff16602080830191909152600383018054604080518285028101850182528281529401939283018282801561330657602002820191906000526020600020905b815473ffffffffffffffffffffffffffffffffffffffff1681526001909101906020018083116132db575b505050505081526020016004820180548060200260200160405190810160405280929190818152602001828054801561335e57602002820191906000526020600020905b81548152602001906001019080831161334a575b50505050508152602001600582018054806020026020016040519081016040528092919081815260200182805480156133cd57602002820191906000526020600020905b815473ffffffffffffffffffffffffffffffffffffffff1681526001909101906020018083116133a2575b5050505050815250509050919050565b73ffffffffffffffffffffffffffffffffffffffff82166000908152600160205260408120548060011415613412578261341c565b61341c8184615966565b949350505050565b6000603061347b61343686600a61588e565b6134409086615966565b61344b85600a61588e565b6134559089615966565b61346c906c01000000000000000000000000615966565b6134769190615819565b613be4565b901b95945050505050565b6000806000806134978787876138ab565b92509250506000806134aa898989613b0e565b925092505081848a608001516000815181106134ef577f4e487b7100000000000000000000000000000000000000000000000000000000600052603260045260246000fd5b602090810291909101015160608c01516040517f70a0823100000000000000000000000000000000000000000000000000000000815273ffffffffffffffffffffffffffffffffffffffff91821660048201529116906370a082319060240160206040518083038186803b15801561356657600080fd5b505afa15801561357a573d6000803e3d6000fd5b505050506040513d601f19601f8201168201806040525081019061359e91906154c6565b6135a89190615801565b6135b29190615801565b955080838a608001516001815181106135f4577f4e487b7100000000000000000000000000000000000000000000000000000000600052603260045260246000fd5b602090810291909101015160608c01516040517f70a0823100000000000000000000000000000000000000000000000000000000815273ffffffffffffffffffffffffffffffffffffffff91821660048201529116906370a082319060240160206040518083038186803b15801561366b57600080fd5b505afa15801561367f573d6000803e3d6000fd5b505050506040513d601f19601f820116820180604052508101906136a391906154c6565b6136ad9190615801565b6136b79190615801565b945050505050935093915050565b6000612b9983670de0b6b3a764000084613e9a565b60045473ffffffffffffffffffffffffffffffffffffffff163373ffffffffffffffffffffffffffffffffffffffff1614613743576040517f97fcc9e20000000000000000000000000000000000000000000000000000000081523360048201526024016106f1565b565b6000808273ffffffffffffffffffffffffffffffffffffffff1663313ce5676040518163ffffffff1660e01b815260040160206040518083038186803b15801561378e57600080fd5b505afa1580156137a2573d6000803e3d6000fd5b505050506040513d601f19601f820116820180604052508101906137c69190615558565b60ff1690508061381a576040517ffe3c012900000000000000000000000000000000000000000000000000000000815273ffffffffffffffffffffffffffffffffffffffff841660048201526024016106f1565b6012811115613874576040517f96434c7f00000000000000000000000000000000000000000000000000000000815273ffffffffffffffffffffffffffffffffffffffff84166004820152602481018290526044016106f1565b73ffffffffffffffffffffffffffffffffffffffff9092166000908152600160205260409020601292909203600a0a918290555090565b600080600080866060015173ffffffffffffffffffffffffffffffffffffffff1663fa0827436040518163ffffffff1660e01b815260040160206040518083038186803b1580156138fb57600080fd5b505afa15801561390f573d6000803e3d6000fd5b505050506040513d601f19601f820116820180604052508101906139339190615356565b90506000876060015173ffffffffffffffffffffffffffffffffffffffff1663888a91346040518163ffffffff1660e01b815260040160206040518083038186803b15801561398157600080fd5b505afa158015613995573d6000803e3d6000fd5b505050506040513d601f19601f820116820180604052508101906139b99190615356565b905060008060006139d08b6060015186868d613fc6565b9250925092506139e289868686614083565b9097509550613a036fffffffffffffffffffffffffffffffff831688615801565b9650613a216fffffffffffffffffffffffffffffffff821687615801565b9550826fffffffffffffffffffffffffffffffff169750505050505093509350939050565b60006714057b7ef767814f670de0b6b3a7640000613a63846140b0565b0281613a98577f4e487b7100000000000000000000000000000000000000000000000000000000600052601260045260246000fd5b0492915050565b6000680736ea4425c11ac6318210613ae6576040517f315da068000000000000000000000000000000000000000000000000000000008152600481018390526024016106f1565b6714057b7ef767814f8202612b99670de0b6b3a76400006706f05b59d3b20000830104614179565b600080600080866060015173ffffffffffffffffffffffffffffffffffffffff166351e87af76040518163ffffffff1660e01b815260040160206040518083038186803b158015613b5e57600080fd5b505afa158015613b72573d6000803e3d6000fd5b505050506040513d601f19601f82011682018060405250810190613b969190615356565b90506000876060015173ffffffffffffffffffffffffffffffffffffffff16630f35bcac6040518163ffffffff1660e01b815260040160206040518083038186803b15801561398157600080fd5b600081613bf357506000919050565b506001817001000000000000000000000000000000008110613c1a5760409190911b9060801c5b680100000000000000008110613c355760209190911b9060401c5b6401000000008110613c4c5760109190911b9060201c5b620100008110613c615760089190911b9060101c5b6101008110613c755760049190911b9060081c5b60108110613c885760029190911b9060041c5b60088110613c9857600182901b91505b6001828481613cd0577f4e487b7100000000000000000000000000000000000000000000000000000000600052601260045260246000fd5b048301901c91506001828481613d0f577f4e487b7100000000000000000000000000000000000000000000000000000000600052601260045260246000fd5b048301901c91506001828481613d4e577f4e487b7100000000000000000000000000000000000000000000000000000000600052601260045260246000fd5b048301901c91506001828481613d8d577f4e487b7100000000000000000000000000000000000000000000000000000000600052601260045260246000fd5b048301901c91506001828481613dcc577f4e487b7100000000000000000000000000000000000000000000000000000000600052601260045260246000fd5b048301901c91506001828481613e0b577f4e487b7100000000000000000000000000000000000000000000000000000000600052601260045260246000fd5b048301901c91506001828481613e4a577f4e487b7100000000000000000000000000000000000000000000000000000000600052601260045260246000fd5b048301901c91506000828481613e89577f4e487b7100000000000000000000000000000000000000000000000000000000600052601260045260246000fd5b04905080831015612b99578261341c565b600080807fffffffffffffffffffffffffffffffffffffffffffffffffffffffffffffffff8587098587029250828110838203039150508060001415613f1a57838281613f10577f4e487b7100000000000000000000000000000000000000000000000000000000600052601260045260246000fd5b0492505050612b99565b838110613f5d576040517f773cc18c00000000000000000000000000000000000000000000000000000000815260048101879052602481018690526044016106f1565b60008486880960026001871981018816978890046003810283188082028403028082028403028082028403028082028403028082028403029081029092039091026000889003889004909101858311909403939093029303949094049190911702949350505050565b60008060008062ffffff861662ffffff88168960181b1760181b1790508473ffffffffffffffffffffffffffffffffffffffff1663514ea4bf826040518263ffffffff1660e01b815260040161401e91815260200190565b60c06040518083038186803b15801561403657600080fd5b505afa15801561404a573d6000803e3d6000fd5b505050506040513d601f19601f8201168201806040525081019061406e919061543e565b949d909c50939a509298505050505050505050565b6000806140a286614093876141d8565b61409c876141d8565b8661466a565b915091505b94509492505050565b6000670de0b6b3a76400008210156140f7576040517fd88504dc000000000000000000000000000000000000000000000000000000008152600481018390526024016106f1565b600061410c670de0b6b3a76400008404614753565b670de0b6b3a7640000808202935090915083821c9081141561412f575050919050565b6706f05b59d3b200005b801561417157670de0b6b3a7640000828002049150671bc16d674ec800008210614169579283019260019190911c905b60011c614139565b505050919050565b6000680a688906bd8b00000082106141c0576040517f4a4f26f1000000000000000000000000000000000000000000000000000000008152600481018390526024016106f1565b670de0b6b3a7640000604083901b04612b998161484c565b60008060008360020b126141ef578260020b6141fc565b8260020b6141fc90615ae7565b90506142277ffffffffffffffffffffffffffffffffffffffffffffffffffffffffffff27618615aaa565b60020b811115614293576040517f08c379a000000000000000000000000000000000000000000000000000000000815260206004820152600160248201527f540000000000000000000000000000000000000000000000000000000000000060448201526064016106f1565b6000600182166142b4577001000000000000000000000000000000006142c6565b6ffffcb933bd6fad37aa2d162d1a5940015b70ffffffffffffffffffffffffffffffffff1690506002821615614305576080614300826ffff97272373d413259a46990580e213a615966565b901c90505b600482161561432f57608061432a826ffff2e50f5f656932ef12357cf3c7fdcc615966565b901c90505b6008821615614359576080614354826fffe5caca7e10e4e61c3624eaa0941cd0615966565b901c90505b601082161561438357608061437e826fffcb9843d60f6159c9db58835c926644615966565b901c90505b60208216156143ad5760806143a8826fff973b41fa98c081472e6896dfb254c0615966565b901c90505b60408216156143d75760806143d2826fff2ea16466c96a3843ec78b326b52861615966565b901c90505b60808216156144015760806143fc826ffe5dee046a99a2a811c461f1969c3053615966565b901c90505b61010082161561442c576080614427826ffcbe86c7900a88aedcffc83b479aa3a4615966565b901c90505b610200821615614457576080614452826ff987a7253ac413176f2b074cf7815e54615966565b901c90505b61040082161561448257608061447d826ff3392b0822b70005940c7a398e4b70f3615966565b901c90505b6108008216156144ad5760806144a8826fe7159475a2c29b7443b29c7fa6e889d9615966565b901c90505b6110008216156144d85760806144d3826fd097f3bdfd2022b8845ad8f792aa5825615966565b901c90505b6120008216156145035760806144fe826fa9f746462d870fdf8a65dc1f90e061e5615966565b901c90505b61400082161561452e576080614529826f70d869a156d2a1b890bb3df62baf32f7615966565b901c90505b618000821615614559576080614554826f31be135f97d08fd981231505542fcfa6615966565b901c90505b62010000821615614585576080614580826f09aa508b5b7a84e1c677de54f3e99bc9615966565b901c90505b620200008216156145b05760806145ab826e5d6af8dedb81196699c329225ee604615966565b901c90505b620400008216156145da5760806145d5826d2216e584f5fa1ea926041bedfe98615966565b901c90505b620800008216156146025760806145fd826b048a170391f7dc42444e8fa2615966565b901c90505b60008460020b131561463b57614638817fffffffffffffffffffffffffffffffffffffffffffffffffffffffffffffffff615819565b90505b61464a64010000000082615a96565b15614656576001614659565b60005b61341c9060ff16602083901c615801565b6000808373ffffffffffffffffffffffffffffffffffffffff168573ffffffffffffffffffffffffffffffffffffffff1611156146a5579293925b8473ffffffffffffffffffffffffffffffffffffffff168673ffffffffffffffffffffffffffffffffffffffff16116146ea576146e3858585614f5c565b91506140a7565b8373ffffffffffffffffffffffffffffffffffffffff168673ffffffffffffffffffffffffffffffffffffffff16101561473d57614729868585614f5c565b9150614736858785615019565b90506140a7565b614748858585615019565b905094509492505050565b6000700100000000000000000000000000000000821061478057608091821c9161477d9082615801565b90505b6801000000000000000082106147a357604091821c916147a09082615801565b90505b64010000000082106147c257602091821c916147bf9082615801565b90505b6201000082106147df57601091821c916147dc9082615801565b90505b61010082106147fb57600891821c916147f89082615801565b90505b6010821061481657600491821c916148139082615801565b90505b6004821061483157600291821c9161482e9082615801565b90505b6002821061484757614844600182615801565b90505b919050565b778000000000000000000000000000000000000000000000006780000000000000008216156148845768016a09e667f3bcc9090260401c5b6740000000000000008216156148a3576801306fe0a31b7152df0260401c5b6720000000000000008216156148c2576801172b83c7d517adce0260401c5b6710000000000000008216156148e15768010b5586cf9890f62a0260401c5b670800000000000000821615614900576801059b0d31585743ae0260401c5b67040000000000000082161561491f57680102c9a3e778060ee70260401c5b67020000000000000082161561493e5768010163da9fb33356d80260401c5b67010000000000000082161561495d57680100b1afa5abcbed610260401c5b668000000000000082161561497b5768010058c86da1c09ea20260401c5b6640000000000000821615614999576801002c605e2e8cec500260401c5b66200000000000008216156149b757680100162f3904051fa10260401c5b66100000000000008216156149d5576801000b175effdc76ba0260401c5b66080000000000008216156149f357680100058ba01fb9f96d0260401c5b6604000000000000821615614a115768010002c5cc37da94920260401c5b6602000000000000821615614a2f576801000162e525ee05470260401c5b6601000000000000821615614a4d5768010000b17255775c040260401c5b65800000000000821615614a6a576801000058b91b5bc9ae0260401c5b65400000000000821615614a8757680100002c5c89d5ec6d0260401c5b65200000000000821615614aa45768010000162e43f4f8310260401c5b65100000000000821615614ac157680100000b1721bcfc9a0260401c5b65080000000000821615614ade5768010000058b90cf1e6e0260401c5b65040000000000821615614afb576801000002c5c863b73f0260401c5b65020000000000821615614b1857680100000162e430e5a20260401c5b65010000000000821615614b35576801000000b1721835510260401c5b648000000000821615614b5157680100000058b90c0b490260401c5b644000000000821615614b6d5768010000002c5c8601cc0260401c5b642000000000821615614b89576801000000162e42fff00260401c5b641000000000821615614ba55768010000000b17217fbb0260401c5b640800000000821615614bc1576801000000058b90bfce0260401c5b640400000000821615614bdd57680100000002c5c85fe30260401c5b640200000000821615614bf95768010000000162e42ff10260401c5b640100000000821615614c1557680100000000b17217f80260401c5b6380000000821615614c305768010000000058b90bfc0260401c5b6340000000821615614c4b576801000000002c5c85fe0260401c5b6320000000821615614c6657680100000000162e42ff0260401c5b6310000000821615614c81576801000000000b17217f0260401c5b6308000000821615614c9c57680100000000058b90c00260401c5b6304000000821615614cb75768010000000002c5c8600260401c5b6302000000821615614cd2576801000000000162e4300260401c5b6301000000821615614ced5768010000000000b172180260401c5b62800000821615614d07576801000000000058b90c0260401c5b62400000821615614d2157680100000000002c5c860260401c5b62200000821615614d3b5768010000000000162e430260401c5b62100000821615614d5557680100000000000b17210260401c5b62080000821615614d6f5768010000000000058b910260401c5b62040000821615614d89576801000000000002c5c80260401c5b62020000821615614da357680100000000000162e40260401c5b62010000821615614dbd576801000000000000b1720260401c5b618000821615614dd657680100000000000058b90260401c5b614000821615614def5768010000000000002c5d0260401c5b612000821615614e08576801000000000000162e0260401c5b611000821615614e215768010000000000000b170260401c5b610800821615614e3a576801000000000000058c0260401c5b610400821615614e5357680100000000000002c60260401c5b610200821615614e6c57680100000000000001630260401c5b610100821615614e8557680100000000000000b10260401c5b6080821615614e9d57680100000000000000590260401c5b6040821615614eb5576801000000000000002c0260401c5b6020821615614ecd57680100000000000000160260401c5b6010821615614ee5576801000000000000000b0260401c5b6008821615614efd57680100000000000000060260401c5b6004821615614f1557680100000000000000030260401c5b6002821615614f2d57680100000000000000010260401c5b6001821615614f4557680100000000000000010260401c5b670de0b6b3a76400000260409190911c60bf031c90565b60008273ffffffffffffffffffffffffffffffffffffffff168473ffffffffffffffffffffffffffffffffffffffff161115614f96579192915b73ffffffffffffffffffffffffffffffffffffffff841661500f7bffffffffffffffffffffffffffffffff000000000000000000000000606085901b16614fdd87876159a3565b73ffffffffffffffffffffffffffffffffffffffff168673ffffffffffffffffffffffffffffffffffffffff16613e9a565b61341c9190615819565b60008273ffffffffffffffffffffffffffffffffffffffff168473ffffffffffffffffffffffffffffffffffffffff161115615053579192915b61341c6fffffffffffffffffffffffffffffffff831661507386866159a3565b73ffffffffffffffffffffffffffffffffffffffff166c01000000000000000000000000613e9a565b8280546150a890615a42565b90600052602060002090601f0160209004810192826150ca5760008555615110565b82601f106150e357805160ff1916838001178555615110565b82800160010185558215615110579182015b828111156151105782518255916020019190600101906150f5565b5061511c92915061524c565b5090565b828054828255906000526020600020908101928215615110579160200282015b8281111561511057825182547fffffffffffffffffffffffff00000000000000000000000000000000000000001673ffffffffffffffffffffffffffffffffffffffff909116178255602090920191600190910190615140565b828054828255906000526020600020908101928215615110579160200282015b828111156151105781547fffffffffffffffffffffffff00000000000000000000000000000000000000001673ffffffffffffffffffffffffffffffffffffffff8435161782556020909201916001909101906151ba565b82805482825590600052602060002090810192821561511057916020028201828111156151105782518255916020019190600101906150f5565b5b8082111561511c576000815560010161524d565b80516fffffffffffffffffffffffffffffffff8116811461484757600080fd5b805169ffffffffffffffffffff8116811461484757600080fd5b6000602082840312156152ac578081fd5b8135612b9981615baa565b6000602082840312156152c8578081fd5b8151612b9981615baa565b6000806000604084860312156152e7578182fd5b83356152f281615baa565b9250602084013567ffffffffffffffff8082111561530e578384fd5b818601915086601f830112615321578384fd5b81358181111561532f578485fd5b8760208260051b8501011115615343578485fd5b6020830194508093505050509250925092565b600060208284031215615367578081fd5b81518060020b8114612b99578182fd5b600060208284031215615388578081fd5b815167ffffffffffffffff8082111561539f578283fd5b818401915084601f8301126153b2578283fd5b8151818111156153c4576153c4615b7b565b604051601f82017fffffffffffffffffffffffffffffffffffffffffffffffffffffffffffffffe0908116603f0116810190838211818310171561540a5761540a615b7b565b81604052828152876020848701011115615422578586fd5b615433836020830160208801615a12565b979650505050505050565b60008060008060008060c08789031215615456578182fd5b61545f87615261565b9550602087015163ffffffff81168114615477578283fd5b604088015160608901519196509450925061549460808801615261565b91506154a260a08801615261565b90509295509295509295565b6000602082840312156154bf578081fd5b5035919050565b6000602082840312156154d7578081fd5b5051919050565b6000806000606084860312156154f2578283fd5b505081359360208301359350604090920135919050565b600080600080600060a08688031215615520578081fd5b61552986615281565b945060208601519350604086015192506060860151915061554c60808701615281565b90509295509295909350565b600060208284031215615569578081fd5b815160ff81168114612b99578182fd5b6000815180845260208085019450808401835b838110156155be57815173ffffffffffffffffffffffffffffffffffffffff168752958201959082019060010161558c565b509495945050505050565b6000815180845260208085019450808401835b838110156155be578151875295820195908201906001016155dc565b60008151808452615610816020860160208601615a12565b601f017fffffffffffffffffffffffffffffffffffffffffffffffffffffffffffffffe0169290920160200192915050565b8715158152600060206affffffffffffffffffffff89168184015273ffffffffffffffffffffffffffffffffffffffff8816604084015260c0606084015261568d60c0840188615579565b838103608085015261569f81886155c9565b84810360a08601528581528691508201835b868110156156ee5782356156c481615baa565b73ffffffffffffffffffffffffffffffffffffffff168252918301916020909101906001016156b1565b509b9a5050505050505050505050565b602081526000612b9960208301846155f8565b602081528151151560208201526000602083015161573e60408401826affffffffffffffffffffff169052565b50604083015160e060608401526157596101008401826155f8565b90506060840151615782608085018273ffffffffffffffffffffffffffffffffffffffff169052565b5060808401517fffffffffffffffffffffffffffffffffffffffffffffffffffffffffffffffe0808584030160a08601526157bd8383615579565b925060a08601519150808584030160c08601526157da83836155c9565b925060c08601519150808584030160e0860152506157f88282615579565b95945050505050565b6000821982111561581457615814615b1d565b500190565b60008261582857615828615b4c565b500490565b600181815b8085111561588657817fffffffffffffffffffffffffffffffffffffffffffffffffffffffffffffffff0482111561586c5761586c615b1d565b8085161561587957918102915b93841c9390800290615832565b509250929050565b6000612b9983836158a5565b6000612b9960ff8416835b6000826158b457506001615960565b816158c157506000615960565b81600181146158d757600281146158e1576158fd565b6001915050615960565b60ff8411156158f2576158f2615b1d565b50506001821b615960565b5060208310610133831016604e8410600b8410161715615920575081810a615960565b61592a838361582d565b807fffffffffffffffffffffffffffffffffffffffffffffffffffffffffffffffff0482111561595c5761595c615b1d565b0290505b92915050565b6000817fffffffffffffffffffffffffffffffffffffffffffffffffffffffffffffffff048311821515161561599e5761599e615b1d565b500290565b600073ffffffffffffffffffffffffffffffffffffffff838116908316818110156159d0576159d0615b1d565b039392505050565b6000828210156159ea576159ea615b1d565b500390565b600060ff821660ff841680821015615a0957615a09615b1d565b90039392505050565b60005b83811015615a2d578181015183820152602001615a15565b83811115615a3c576000848401525b50505050565b600181811c90821680615a5657607f821691505b60208210811415615a90577f4e487b7100000000000000000000000000000000000000000000000000000000600052602260045260246000fd5b50919050565b600082615aa557615aa5615b4c565b500690565b60008160020b7fffffffffffffffffffffffffffffffffffffffffffffffffffffffffff800000811415615ae057615ae0615b1d565b9003919050565b60007f8000000000000000000000000000000000000000000000000000000000000000821415615b1957615b19615b1d565b0390565b7f4e487b7100000000000000000000000000000000000000000000000000000000600052601160045260246000fd5b7f4e487b7100000000000000000000000000000000000000000000000000000000600052601260045260246000fd5b7f4e487b7100000000000000000000000000000000000000000000000000000000600052604160045260246000fd5b73ffffffffffffffffffffffffffffffffffffffff81168114615bcc57600080fd5b5056fe4379676e75732d4e6562756c613a20436f6e63656e747261746564204c50204f7261636c65a2646970667358221220c034750f9b21063853aa5f93def27a997caafdb1c56a00c85f16bc5a8bf39b4964736f6c63430008040033",
  "linkReferences": {},
  "deployedLinkReferences": {}
}